:020000040800F2
:100000000000022015DD0008351A00083B1A000820
:10001000411A0008471A00084D1A000800000000A5
:10002000000000000000000000000000531A00085B
:10003000611A0008000000006F1A00087D1A00080D
:100040006DDD00086DDD00086DDD00086DDD000868
:100050006DDD00086DDD00086DDD00086DDD000858
:100060006DDD00086DDD00086DDD0008891A0008EF
:100070006DDD00086DDD00086DDD00086DDD000838
:100080006DDD00086DDD00086DDD00086DDD000828
:100090006DDD00086DDD00086DDD00086DDD000818
:1000A0006DDD00086DDD00086DDD00086DDD000808
:1000B0006DDD00086DDD00086DDD00086DDD0008F8
:1000C0006DDD00086DDD00086DDD00086DDD0008E8
:1000D0006DDD00086DDD00086DDD00086DDD0008D8
:1000E0006DDD00086DDD0008000000006DDD00081A
:1000F0006DDD00086DDD00086DDD00086DDD0008B8
:100100006DDD00086DDD00086DDD00086DDD0008A7
:100110006DDD00086DDD00086DDD00086DDD000897
:100120006DDD00086DDD00086DDD00086DDD000887
:100130006DDD00086DDD00086DDD00086DDD000877
:1001400000000000000000000000000000000000AF
:100150006DDD00086DDD00086DDD00086DDD000857
:100160006DDD00086DDD00086DDD00086DDD000847
:100170006DDD00086DDD00086DDD00086DDD000837
:100180006DDD00086DDD00086DDD00086DDD000827
:100190006DDD00086DDD00086DDD00086DDD000817
:1001A0006DDD00086DDD00086DDD00086DDD000807
:1001B0006DDD00086DDD00086DDD00086DDD0008F7
:1001C0006DDD00086DDD00086DDD00086DDD0008E7
:1001D0006DDD00086DDD00086DDD00086DDD0008D7
:1001E0006DDD00086DDD00086DDD00086DDD0008C7
:1001F0006DDD00086DDD00086DDD00086DDD0008B7
:100200006DDD00086DDD00086DDD00086DDD0008A6
:100210006DDD00086DDD00086DDD00086DDD000896
:100220006DDD00086DDD00086DDD000800000000D8
:100230006DDD00086DDD0008000000006DDD0008C8
:100240006DDD00086DDD00086DDD00086DDD000866
:100250006DDD00086DDD00086DDD00086DDD000856
:100260006DDD00086DDD00086DDD00086DDD000846
:100270006DDD00086DDD00086DDD00080000000088
:100280006DDD00086DDD00086DDD00080000000078
:08029000000000006DDD000814
:1002A00010B5054C237833B9044B13B10448AFF3B0
:1002B00000800123237010BD80000020000000009A
:1002C00020F8000808B5034B1BB103490348AFF3FE
:1002D000008008BD000000008400002020F8000815
:1002E000034613F8012B002AFBD1181A0138704776
:1002F00001F0FF01102A2BDB10F0070F08D010F8D7
:10030000013B013A8B422DD010F0070F42B3F6D1DA
:10031000F0B441EA012141EA014122F007047FF0F3
:1003200000070023F0E80256083C85EA010586EA4A
:10033000010685FA47F5A3FA87F586FA47F6A5FA86
:1003400087F68EB9EED1F0BC01F0FF0102F0070292
:1003500032B110F8013B013A83EA010313B1F8D13D
:100360000020704701387047002D06BF354603381E
:10037000073815F0010F07D1013015F4807F02BF57
:10038000013015F4C03F0130F0BC0138704700BFA8
:1003900053B94AB9002908BF00281CBF4FF0FF31EC
:1003A0004FF0FF3000F074B9ADF1080C6DE904CEE8
:1003B00000F006F8DDF804E0DDE9022304B0704740
:1003C0002DE9F047089D04468E46002B4DD18A4208
:1003D000944669D9B2FA82F252B101FA02F3C2F13B
:1003E000200120FA01F10CFA02FC41EA030E9440CC
:1003F0004FEA1C48210CBEFBF8F61FFA8CF708FBED
:1004000016E341EA034306FB07F199420AD91CEBC4
:10041000030306F1FF3080F01F81994240F21C81F6
:10042000023E63445B1AA4B2B3FBF8F008FB10333E
:1004300044EA034400FB07F7A7420AD91CEB040473
:1004400000F1FF3380F00A81A74240F20781644443
:10045000023840EA0640E41B00261DB1D4400023C8
:10046000C5E900433146BDE8F0878B4209D9002D2C
:1004700000F0EF800026C5E9000130463146BDE8B6
:10048000F087B3FA83F6002E4AD18B4202D3824220
:1004900000F2F980841A61EB030301209E46002DCF
:1004A000E0D0C5E9004EDDE702B9FFDEB2FA82F224
:1004B000002A40F09280A1EB0C014FEA1C471FFA82
:1004C0008CFE0126200CB1FBF7F307FB131140EA69
:1004D00001410EFB03F0884208D91CEB010103F136
:1004E000FF3802D2884200F2CB804346091AA4B2F8
:1004F000B1FBF7F007FB101144EA01440EFB00FECC
:10050000A64508D91CEB040400F1FF3102D2A64530
:1005100000F2BB800846A4EB0E0440EA03409CE7CF
:10052000C6F12007B34022FA07FC4CEA030C20FA7C
:1005300007F401FA06F31C43F9404FEA1C4900FA9C
:1005400006F3B1FBF9F8200C1FFA8CFE09FB181119
:1005500040EA014108FB0EF0884202FA06F20BD98C
:100560001CEB010108F1FF3A80F08880884240F2DC
:100570008580A8F102086144091AA4B2B1FBF9F020
:1005800009FB101144EA014100FB0EFE8E4508D91B
:100590001CEB010100F1FF346CD28E456AD90238A0
:1005A000614440EA0840A0FB0294A1EB0E01A14285
:1005B000C846A64656D353D05DB1B3EB080261EBF3
:1005C0000E0101FA07F722FA06F3F1401F43C5E9CD
:1005D000007100263146BDE8F087C2F12003D84003
:1005E0000CFA02FC21FA03F3914001434FEA1C4745
:1005F0001FFA8CFEB3FBF7F007FB10360B0C43EA37
:10060000064300FB0EF69E4204FA02F408D91CEBE6
:10061000030300F1FF382FD29E422DD902386344E4
:100620009B1B89B2B3FBF7F607FB163341EA034184
:1006300006FB0EF38B4208D91CEB010106F1FF38D3
:1006400016D28B4214D9023E6144C91A46EA0046CA
:1006500038E72E46284605E70646E3E61846F8E65C
:100660004B45A9D2B9EB020864EB0C0E0138A3E7A5
:100670004646EAE7204694E74046D1E7D0467BE786
:10068000023B614432E7304609E76444023842E7FE
:10069000704700BF80B58AB000AF07F11C0300228D
:1006A0001A605A609A603B4600221A605A609A604B
:1006B000DA601A615A619A61304B314A1A602F4BE5
:1006C00000225A602D4B00229A602C4B0022DA60E7
:1006D0002A4B04221A61294B00221A75274B00224B
:1006E0005A75264B01229A61244B00221A77234B1C
:1006F0004FF4B4625A62214B4FF480629A621F4BEE
:100700000122DA621D4B00221A631C4B00225A633D
:100710001A4B002283F83820184801F0F7FE0346F0
:10072000002B01D000F0E0FE0023FB6107F11C0369
:100730001946124803F024FB0346002B01D000F0B9
:10074000D3FE104B3B6006237B600023BB6040F26E
:10075000FF73FB6004233B6100237B6100237B76F6
:100760003B461946054802F0B7FB0346002B01D073
:1007700000F0BAFE00BF2837BD4680BD9C000020B7
:10078000002002400000844B80B588B000AF3B1DC4
:1007900000221A605A609A60DA601A615A619A619E
:1007A000294B2A4A1A60284B00225A60264B002205
:1007B0009A60254B0022DA60234B04221A61224BF7
:1007C00000221A75204B00225A751F4B01229A6194
:1007D0001D4B00221A771C4B00225A621A4B002232
:1007E0009A62194B0022DA62174B00221A63164BE9
:1007F00000225A63144B002283F83820124801F07B
:1008000085FE0346002B01D000F06EFE104B7B608E
:100810000623BB600023FB6040F2FF733B610423AF
:100820007B610023BB6100237B773B1D1946064893
:1008300002F052FB0346002B01D000F055FE00BF32
:100840002037BD4680BD00BF0001002000210240CE
:100850000800900C80B58CB000AF786007F11C03E5
:1008600000221A605A609A60DA601A617B681B681D
:10087000504A934262D1504B1B6801334E4A136079
:100880004D4B1B68012B0ED14C4BD3F8D8304B4A43
:1008900043F02003C2F8D830484BD3F8D83003F0E7
:1008A0002003BB61BB69454BD3F8E030434A43F0BA
:1008B0000103C2F8E030414BD3F8E03003F001030C
:1008C0007B617B691023FB6103233B6200237B6216
:1008D00007F11C0319463A4806F036F8394B3A4AF4
:1008E0001A60384B09225A60364B00229A60354B09
:1008F0000022DA60334B4FF480621A61314B4FF4BF
:1009000000625A612F4B4FF400529A612D4B002226
:10091000DA612C4B00221A622A4B00225A622948C3
:1009200003F01CFC0346002B01D000F0DDFD7B68CA
:10093000244ADA64234A7B68936337E07B681B6848
:10094000224A934232D11C4B1B6801331A4A13606E
:10095000194B1B68012B0ED1184BD3F8D830174A0E
:1009600043F02003C2F8D830144BD3F8D83003F04A
:1009700020033B613B69114BD3F8E0300F4A43F051
:100980000103C2F8E0300D4BD3F8E03003F001036F
:10099000FB60FB684023FB6103233B6200237B6217
:1009A00007F11C031946064805F0CEFF00BF30379B
:1009B000BD4680BD00200240DC01002000440258FA
:1009C0000000025864010020100002400021024093
:1009D00080B582B000AF0D4BD3F8D8300B4A43F04E
:1009E0000103C2F8D830094BD3F8D83003F0010323
:1009F0007B607B68002200210B2003F07AFB0B2038
:100A000003F091FB00BF0837BD4680BD004402588B
:100A100080B58CB000AF07F11C0300221A605A6049
:100A20009A60DA601A614D4BD3F8E0304B4A43F0DC
:100A30001003C2F8E030494BD3F8E03003F0100364
:100A4000BB61BB69454BD3F8E030444A43F08003B7
:100A5000C2F8E030414BD3F8E03003F080037B6113
:100A60007B693E4BD3F8E0303C4A43F00403C2F8C4
:100A7000E0303A4BD3F8E03003F004033B613B69CC
:100A8000364BD3F8E030354A43F00103C2F8E0308A
:100A9000324BD3F8E03003F00103FB60FB682F4BCF
:100AA000D3F8E0302D4A43F00203C2F8E0302B4B7C
:100AB000D3F8E03003F00203BB60BB68274BD3F8E8
:100AC000E030264A43F00803C2F8E030234BD3F865
:100AD000E03003F008037B607B68002240F20321D2
:100AE0001F4806F0E1F800224FF4A0511D4806F01F
:100AF000DBF80022FB211C4806F0D6F840F2032365
:100B0000FB6101233B6200237B620023BB6207F190
:100B10001C031946124805F017FF4FF4A053FB6160
:100B200011233B6201237B620023BB6207F11C039C
:100B300019460C4805F008FFFB23FB6101233B62CB
:100B400000237B620023BB6207F11C0319460648A1
:100B500005F0FAFE00BF3037BD4680BD00440258A4
:100B60000008025800040258000C025880B500AF7B
:100B70001B4B1C4A1A601A4B1B4A5A60184B002226
:100B80009A60174B0122DA60154B00221A61144B50
:100B900000225A61124B00229A61114B0022DA6145
:100BA0000F4B00221A620E4806F098F80346002BFD
:100BB00001D000F099FC0021094806F01FF9034616
:100BC000002B01D000F090FC0021054806F061F9EF
:100BD0000346002B01D000F087FC00BF80BD00BFA2
:100BE000E001002000540040AF74700080B5BAB03E
:100BF00000AF786007F1D40300221A605A609A604F
:100C0000DA601A6107F11003C022002118460DF0C6
:100C1000E1F87B681B68264A934245D14FF00802F1
:100C20004FF00003C7E904230023C7F8943007F10D
:100C30001003184607F09AF90346002B01D000F084
:100C400053FC1C4BD3F8E0301A4A43F00203C2F8BD
:100C5000E030184BD3F8E03003F00203FB60FB6890
:100C6000C023C7F8D4301223C7F8D8300123C7F8FF
:100C7000DC300023C7F8E0300423C7F8E43007F184
:100C8000D40319460C4805F05FFE0A4BD3F8E83050
:100C9000084A43F40013C2F8E830064BD3F8E830B2
:100CA00003F40013BB60BB6800BFE837BD4680BDDE
:100CB00000540040004402580004025880B5ADF6CC
:100CC000280D00AF01F01AF900F0CAFA00F044FB59
:100CD000FFF79EFEFFF77CFEFFF7DCFC01F00AF851
:100CE00000F0BCFFFFF742FF00F004FC00F0B4FC92
:100CF00000F05CFFFFF748FD00F054FC0CF022F818
:100D00000BF0FCFD00200CF09BF940F2FF724FF05D
:100D10000111314802F0D0FF4FF480622F492E4874
:100D200001F088FF2E480AF07FFA4FF4FA7001F0C4
:100D300077F92B480AF0E8FA274802F03FF8002339
:100D4000A7F8263827E0B7F82638244A32F81330B7
:100D500007EE903AF8EE677A9FED227A27EE877ACF
:100D6000B7F826385B00DFED206AC7EE267A1F4A07
:100D70009B001344C3ED007AB7F826385B000133BB
:100D80001A4A9B0013444FF000021A60B7F8263845
:100D90000133A7F82638B7F82638B3F5806FD2D3D9
:100DA00001230022114912480EF08AF84FF48062A4
:100DB00010490E480EF022F907F62803A3F5026346
:100DC000184640F618031A4600210DF003F80123D7
:100DD000A7F8263824E000BF9C0000200000002473
:100DE000943800203333534000FF7F473402002003
:100DF000A80A010834220020B7F82628B7F82638B8
:100E0000D44992000A44126807F62801A1F502614C
:100E10009B000B441A60B7F826380133A7F8263830
:100E2000B7F82638B3F5007FE6D30023A7F82438B7
:100E3000002387F82338002387F8223807F10803B6
:100E400018460CF087FC07F62803A3F50263B3F8F5
:100E50000838184607F62803A3F50263B3F80828F4
:100E6000BD4BA3FB021399080B469B000B44D31AFE
:100E70009BB2C31A4FF47A7202FB03F31A46B74BC4
:100E80001A6007F62803A3F50263B3F80A38184678
:100E900007F62803A3F50263B3F80A28AE4BA3FBB9
:100EA000021399080B469B000B44D31A9BB2C31A3A
:100EB0004FF47A7202FB03F31A46A94B1A6007F645
:100EC0002803A3F50263B3F80A38184607F6280387
:100ED000A3F50263B3F80A289F4BA3FB02139908FA
:100EE0000B469B000B44D31A9BB2C31A4FF47A7281
:100EF00002FB03F31A4600214FF4FA700BF082FE56
:100F0000072000F059FA03461A46964B1A80954B73
:100F10001B8807EE903AF8EE677A9FED937A27EEFA
:100F2000877ADFED926AC7EE267A914BC3ED007A9D
:100F3000B7F82438952B22D88D4BD3ED007A9FED4E
:100F40008D7A67EE877AB7F82438FCEEE77A17EEE9
:100F5000901A894A42F82310854BD3ED007AB7F8EE
:100F600024389FED847A67EE877A844A9B00134485
:100F7000C3ED007AB7F824380133A7F82438B7F85E
:100F80002438962B40F0228196217B480CF04AFEB3
:100F90003B1D1A46962179480DF0C6FB0023A7F8A1
:100FA000243897F82238002B40F0FF8007F62803FA
:100FB000A3F62403D3ED007A9FED717AF4EEC77A9D
:100FC000F1EE10FA05DB6F4B1B781433DAB26D4B80
:100FD0001A7007F62803A3F62403D3ED007A9FEDD9
:100FE0006A7AF4EEC77AF1EE10FA12DB07F62803FC
:100FF000A3F62403D3ED007A9FED617AF4EEC77A6D
:10100000F1EE10FA05D55F4B1B780F33DAB25D4B6A
:101010001A7007F62803A3F62403D3ED007A9FED98
:101020005B7AF4EEC77AF1EE10FA12DB07F62803CA
:10103000A3F62403D3ED007A9FED537AF4EEC77A3A
:10104000F1EE10FA05D54F4B1B780A33DAB24D4B4F
:101050001A7007F62803A3F62403D3ED007A9FED58
:101060004C7AF4EEC77AF1EE10FA12DB07F6280399
:10107000A3F62403D3ED007A9FED447AF4EEC77A09
:10108000F1EE10FA05D53F4B1B780533DAB23D4B34
:101090001A7007F62803A3F62403D3ED007A9FED18
:1010A0003D7AF4EEC77AF1EE10FA12DB07F6280368
:1010B000A3F62403D3ED007A9FED357AF4EEC77AD8
:1010C000F1EE10FA05D52F4B1B780333DAB22D4B16
:1010D0001A7007F62803A3F62403D3ED007AB2EEC4
:1010E000047AF4EEC77AF1EE10FA12DB07F6280361
:1010F000A3F62403D3ED007A9FED267AF4EEC77AA7
:10110000F1EE10FA05D51F4B1B780133DAB21D4BF7
:101110001A7007F62803A3F62403D3ED007AB1EE84
:10112000047AF4EEC77AF1EE10FA04D897F823386F
:10113000013387F8233897F82338032B05D101238F
:1011400087F82238002387F823380E4B1B78632B4F
:1011500022E000BF34220020CDCCCCCCEC360020E5
:10116000F0360020E436002033335340000080473F
:10117000E83600200000C842343200208C340020C1
:1011800000803B45F83600200080BB440000164438
:10119000000096430000164307D92C4B00221A701A
:1011A0002B4B1B6801332A4A1360294B1B686422AE
:1011B00002FB03F3254A127813441B02254A1360ED
:1011C0000A2301222349244809F0F2FC204B1B6822
:1011D0001A4606230A210A200CF0A6F807F628036F
:1011E000A3F5026393F814381A4601230A218C20D0
:1011F0000CF09AF8194B1B681A46062332210A2074
:101200000CF092F807F62803A3F5026393F815385B
:101210001A46012332218C200CF086F807F62803A9
:10122000A3F62403D3ED007AFDEEE77A052317EE4B
:10123000902A8C2164200CF077F8044B1B781A4616
:101240000523A02164200CF06FF838E6F836002062
:10125000EC360020F4360020FC360020F03600206A
:1012600080B59CB000AF07F124034C220021184642
:101270000CF0B0FD3B1D2022002118460CF0AAFD09
:10128000022005F053FE00233B60314BDB6A304AFD
:1012900023F00103D3622E4BDB6A03F001033B60B2
:1012A0002C4B9B6923F440432A4A43F480439361C7
:1012B000284B9B6903F440433B603B6800BF254BD0
:1012C0009B6903F40053B3F5005FF8D101237B62FF
:1012D0004FF48033BB620223BB640223FB6405230B
:1012E0003B6530237B650223BB650323FB6502233B
:1012F0003B6608237B660023BB660023FB6607F181
:101300002403184605F04CFE0346002B01D000F0E4
:10131000EBF83F237B600323BB600023FB600023CB
:101320003B6100237B615023BB614FF4A063FB61F1
:1013300000233B623B1D0221184606F08BFA034650
:10134000002B01D000F0D0F800BF7037BD4680BD43
:10135000000400580048025880B5B0B000AF3B46CA
:10136000C022002118460CF035FD4FF400224FF04A
:101370000003C7E900230223BB600C23FB600423A6
:101380003B6102237B610223BB61C023FB612023FD
:101390003B6200237B620023C7F8A4303B4618461B
:1013A00006F0E4FD0346002B01D000F09DF800BFDD
:1013B000C037BD4680BD00002DE9F04389B000AFC5
:1013C00078606B461E4679684B1E3B610A460023D7
:1013D000904699464FF000024FF000034FEA491340
:1013E00043EAD8634FEA48120A46002314461D46D2
:1013F0004FF000024FF000036B0143EAD463620137
:101400000B469B000733DB08DB00ADEB030D6B469F
:1014100003339B089B00FB6000237B6115E0314890
:1014200001F016FA0A212F4801F010FB2D4801F0B7
:10143000D9FA2C4801F024FD03461946FB687A6965
:1014400043F822107B6901337B617A697B689A4299
:10145000E5DB0023BB612EE00023FB6121E0FB689C
:10146000FA6953F82220FB69591CFB6853F82130B4
:101470009A4213DDFB68FA6953F82230BB60FB69BE
:101480005A1CFB6853F82210FB68FA6943F82210D3
:10149000FB695A1CFB68B96843F82210FB690133E9
:1014A000FB617A68BB69D31A013BFA699A42D6DBC1
:1014B000BB690133BB617B68013BBA699A42CBDBF4
:1014C0007B68013B002B00DA01335B101A46FB6896
:1014D00053F822309BB2B54618462437BD46BDE8C6
:1014E000F08300BF0001002080B400AF72B600BFDF
:1014F000FEE7000080B500AF284B294A1A60274B51
:101500004FF480025A60254B00229A60234B1F2221
:10151000DA60224B4FF000721A61204B4FF080725C
:101520005A611E4B4FF000529A611C4B4FF0005213
:10153000DA611A4B00221A62184B00225A62174BCA
:1015400000229A62154B0022DA62144B00225A6381
:10155000124B00229A63114B0022DA630F4B0022D8
:101560001A640E4B00225A640C4B00229A640B4BF7
:101570000022DA64094B00221A65084B00225A65E2
:10158000064B00229A65054809F0EEF90346002B48
:1015900001D0FFF7A9FF00BF80BD00BFFC360020CF
:1015A0000030014080B500AF294B2A4A1A60284B11
:1015B0004FF480025A60264B4FF400329A60244B5D
:1015C0000722DA60224B4FF000721A61204B4FF075
:1015D00080725A611E4B4FF080629A611C4B4FF033
:1015E0008052DA611A4B00221A62194B00225A62A9
:1015F000174B00229A62164B0022DA62144B4FF00E
:1016000080425A63124B00229A63114B0022DA6324
:101610000F4B00221A640E4B00225A640C4B00221E
:101620009A640B4B0022DA64094B00221A65084BBE
:1016300000225A65064B00229A65054809F094F984
:101640000346002B01D0FFF74FFF00BF80BD00BF56
:1016500084370020003C004080B500AF274B284A6B
:101660001A60264B4FF480025A60244B00229A6085
:10167000224B0722DA60214B00221A611F4B002205
:101680005A611E4B4FF000529A611C4B0022DA61E6
:101690001A4B00221A62194B00225A62174B002281
:1016A0009A62164B0022DA62144B4FF080425A6362
:1016B000124B00229A63114B2022DA630F4B002257
:1016C0001A640E4B00225A640C4B00229A640B4B96
:1016D0000022DA64094B00221A65084B00225A6581
:1016E000064B00229A65054809F03EF90346002B97
:1016F00001D0FFF7F9FE00BF80BD00BF0C3800200D
:101700000034014080B5C0B000AF786007F1EC0351
:1017100000221A605A609A60DA601A6107F12803A1
:10172000C022002118460CF055FB7B681B68AB4AB1
:1017300093426BD14FF480524FF00003C7E90A2364
:101740000023C7F8883007F12803184606F00EFC7E
:101750000346002B01D0FFF7C7FEA14BD3F8F030B2
:101760009F4A43F48053C2F8F0309D4BD3F8F030D9
:1017700003F480537B627B6A994BD3F8E030984A3C
:1017800043F00103C2F8E030954BD3F8E03003F0AA
:1017900001033B623B6A924BD3F8E030904A43F03E
:1017A0000203C2F8E0308E4BD3F8E03003F00203BE
:1017B000FB61FB6948F2A003C7F8EC300223C7F8CD
:1017C000F0300023C7F8F4300023C7F8F8300523C1
:1017D000C7F8FC3007F1EC031946824805F0B4F86D
:1017E0001023C7F8EC300223C7F8F0300023C7F805
:1017F000F4300023C7F8F8300523C7F8FC3007F1B0
:10180000EC031946784805F09FF8E2E07B681B6816
:10181000764A93426BD14FF480524FF00003C7E9F0
:101820000A230023C7F8883007F12803184606F07A
:101830009DFB0346002B01D0FFF756FE684BD3F803
:10184000E830674A43F40043C2F8E830644BD3F809
:10185000E83003F40043BB61BB69614BD3F8E0306F
:101860005F4A43F00203C2F8E0305D4BD3F8E0304A
:1018700003F002037B617B69594BD3F8E030584A8F
:1018800043F00403C2F8E030554BD3F8E03003F0E6
:1018900004033B613B690423C7F8EC300223C7F81B
:1018A000F0300023C7F8F4300023C7F8F8300723DE
:1018B000C7F8FC3007F1EC0319464B4805F044F833
:1018C0004FF48063C7F8EC300223C7F8F0300023F0
:1018D000C7F8F4300023C7F8F8300623C7F8FC3007
:1018E00007F1EC031946424805F02EF871E07B68D9
:1018F0001B68404A93426CD14FF400524FF00003F2
:10190000C7E90A230023C7F88C3007F128031846DB
:1019100006F02CFB0346002B01D0FFF7E5FD304B12
:10192000D3F8F0302E4A43F40053C2F8F0302C4B79
:10193000D3F8F03003F40053FB60FB68284BD3F876
:10194000E030274A43F01003C2F8E030244BD3F8CC
:10195000E03003F01003BB60BB6845F62003C7F816
:10196000EC300223C7F8F0300023C7F8F43000232E
:10197000C7F8F8300523C7F8FC3007F1EC03194627
:101980001D4804F0E1FF4FF40043C7F8EC30012399
:10199000C7F8F0300023C7F8F4300023C7F8F83058
:1019A00007F1EC031946154804F0CEFF4FF400434D
:1019B000C7F8EC300123C7F8F0300023C7F8F43043
:1019C0000023C7F8F83007F1EC0319460A4804F081
:1019D000BBFF00BF07F58077BD4680BD00300140EA
:1019E000004402580000025800040258003C004025
:1019F000000802580034014000100258000C025840
:101A000080B483B000AF0A4BD3F8F430084A43F0F7
:101A10000203C2F8F430064BD3F8F43003F00203AB
:101A20007B607B6800BF0C37BD465DF8047B704768
:101A30000044025880B400AFFEE780B400AFFEE778
:101A400080B400AFFEE780B400AFFEE780B400AF23
:101A5000FEE780B400AF00BFBD465DF8047B704771
:101A600080B400AF00BFBD465DF8047B704780B412
:101A700000AF00BFBD465DF8047B704780B500AF86
:101A800000F0AEFA00BF80BD80B500AF024803F0A1
:101A900049FC00BF80BD00BF6401002080B400AFDE
:101AA000374BD3F88830364A43F47003C2F8883095
:101AB000344B1B6803F00F03062B07D8314B1B6810
:101AC00023F00F032F4A43F0070313602E4B1B68CC
:101AD0002D4A43F0010313602B4B00221A612A4B5D
:101AE0001A682949294B13400B60264B1B6803F0E9
:101AF0000803002B07D0234B1B6823F00F03214A58
:101B000043F007031360204B00229A611E4B002212
:101B1000DA611D4B00221A621B4B1D4A9A621A4B56
:101B20001C4ADA62184B1C4A1A63174B00225A638C
:101B3000154B194A9A63144B0022DA63124B164A6A
:101B40001A64114B00225A640F4B1B680E4A23F48F
:101B5000802313600C4B00221A66104B1A68104B3E
:101B60001340B3F1005F02D20E4B01221A600E4BFC
:101B700043F2D2021A6000BFBD465DF8047B704795
:101B800000ED00E000200052004402587FEDF6EA2C
:101B9000000202020000FF01800201010010005C4F
:101BA0000000FFFF088100510040005280B584B062
:101BB00000AF3B1D00221A605A609A60144B154A10
:101BC0001A60134B00225A60114B00229A60104B8E
:101BD0003B22DA600E4B00229A610D4809F0CDFAE3
:101BE0000346002B01D0FFF77FFC20237B600023FE
:101BF000FB603B1D1946064809F048FC0346002BD4
:101C000001D0FFF771FC00BF1037BD4680BD00BF9B
:101C1000943800200010004080B485B000AF786098
:101C20007B681B680B4A93420ED10B4BD3F8E8300C
:101C3000094A43F01003C2F8E830074BD3F8E83004
:101C400003F01003FB60FB6800BF1437BD465DF86E
:101C5000047B7047001000400044025880B500AF7C
:101C6000224B234A1A60214B4FF4E1325A601F4B3A
:101C700000229A601D4B0022DA601C4B00221A6180
:101C80001A4B0C225A61194B00229A61174B002201
:101C9000DA61164B00221A62144B00225A62134B6F
:101CA00000229A62114809F07FFC0346002B01D004
:101CB000FFF71AFC00210D480AF00FFD0346002B28
:101CC00001D0FFF711FC002108480AF044FD03464B
:101CD000002B01D0FFF708FC04480AF0C5FC0346BE
:101CE000002B01D0FFF700FC00BF80BDE0380020D2
:101CF0000010014080B500AF224B234A1A60214BEF
:101D00004FF4E1325A601F4B00229A601D4B0022B3
:101D1000DA601C4B00221A611A4B0C225A61194BD3
:101D200000229A61174B0022DA61164B00221A62D8
:101D3000144B00225A62134B00229A62114809F098
:101D400033FC0346002B01D0FFF7CEFB00210D48EA
:101D50000AF0C3FC0346002B01D0FFF7C5FB0021AE
:101D600008480AF0F8FC0346002B01D0FFF7BCFB43
:101D700004480AF079FC0346002B01D0FFF7B4FBBE
:101D800000BF80BD743900200044004080B5BCB065
:101D900000AF786007F1DC0300221A605A609A6095
:101DA000DA601A6107F11803C022002118460CF00E
:101DB00011F87B681B684D4A934247D14FF00102EE
:101DC0004FF00003C7E906230023C7F8943007F15A
:101DD0001803184606F0CAF80346002B01D0FFF797
:101DE00083FB434BD3F8F030414A43F01003C2F871
:101DF000F0303F4BD3F8F03003F010037B617B6988
:101E00003B4BD3F8E0303A4A43F00103C2F8E030EC
:101E1000374BD3F8E03003F001033B613B694FF4EB
:101E2000C063C7F8DC300223C7F8E0300023C7F8EE
:101E3000E4300023C7F8E8300723C7F8EC3007F197
:101E4000DC0319462B4804F07FFD4AE07B681B68E1
:101E5000294A934245D14FF002024FF00003C7E9EF
:101E600006230023C7F8903007F11803184606F040
:101E70007DF80346002B01D0FFF736FB1C4BD3F84F
:101E8000E8301B4A43F40033C2F8E830184BD3F86B
:101E9000E83003F40033FB60FB68154BD3F8E03007
:101EA000134A43F00103C2F8E030114BD3F8E0309D
:101EB00003F00103BB60BB680C23C7F8DC300223CE
:101EC000C7F8E0300023C7F8E4300023C7F8E83053
:101ED0000723C7F8EC3007F1DC031946054804F086
:101EE00033FD00BFF037BD4680BD00BF001001408C
:101EF00000440258000002580044004080B582B0FF
:101F000000AF032002F0EAF805F05AFE0246154B36
:101F10009B691B0A03F00F031349CB5C03F01F03FB
:101F200022FA03F37B600F4B9B6903F00F030E4A09
:101F3000D35C03F01F037A6822FA03F30B4A1360A1
:101F40000B4A7B6813600F2000F014F80346002B47
:101F500001D0012302E0FFF753FD002318460837A4
:101F6000BD4680BD0044025858F800080400002017
:101F70000000002080B582B000AF7860154B1B7860
:101F8000002B01D1012321E0134B1A68114B1B7860
:101F900019464FF47A73B3FBF1F3B2FBF3F318462F
:101FA00002F0CFF80346002B01D001230EE07B683E
:101FB0000F2B0AD8002279684FF0FF3002F099F811
:101FC000064A7B681360002300E0012318460837A7
:101FD000BD4680BD0C00002000000020080000204D
:101FE00080B400AF064B1B781A46064B1B6813449F
:101FF000044A136000BFBD465DF8047B704700BF14
:102000000C000020083A002080B400AF034B1B688E
:102010001846BD465DF8047B704700BF083A0020B3
:1020200080B584B000AF7860FFF7EEFFB8607B68E2
:10203000FB60FB68B3F1FF3F05D00A4B1B781A46E3
:10204000FB681344FB6000BFFFF7DEFF0246BB687E
:10205000D31AFA689A42F7D800BF00BF1037BD46BE
:1020600080BD00BF0C00002080B400AF034B1B6894
:102070001B0C1846BD465DF8047B70470010005CE1
:1020800080B483B000AF786039607B689B6823F4CC
:102090007C123B681A437B689A6000BF0C37BD46D0
:1020A0005DF8047B704780B483B000AF786039601E
:1020B0007B689B6823F0E0723B681A437B689A60F8
:1020C00000BF0C37BD465DF8047B704780B483B019
:1020D00000AF78607B689B6803F0E07318460C37AC
:1020E000BD465DF8047B704780B487B000AFF860F0
:1020F000B9607A603B60FB6860331A46BB689B003E
:1021000013447B617B691B6803F000427B6803F02A
:10211000F8413B680B431A437B691A6000BF1C37C8
:10212000BD465DF8047B704780B485B000AFF860B1
:10213000B9607A60FB681B6923F4F042BB6803F066
:102140001F03796801FA03F31A43FB681A6100BFA1
:102150001437BD465DF8047B704780B487B000AF8C
:10216000F860B9607A60FB6860331A46BB689B0010
:1021700013447B617B691B6823F000427B681A4330
:102180007B691A6000BF1C37BD465DF8047B704751
:1021900080B483B000AF78607B68DB6803F4406391
:1021A000002B01D1012300E0002318460C37BD4667
:1021B0005DF8047B704780B487B000AFF860B96009
:1021C0007A60FB6830331A46BB681B0A9B0003F039
:1021D0000C0313447B617B691A68BB6803F01F031F
:1021E0001F2101FA03F3DB431A407B689B0E03F0C7
:1021F0001F01BB6803F01F0301FA03F31A437B6955
:102200001A6000BF1C37BD465DF8047B704780B480
:1022100083B000AF786039607B68DB6823F003022D
:102220003B681A437B68DA6000BF0C37BD465DF837
:10223000047B704780B487B000AFF860B9607A6003
:10224000FB6814331A46BB685B0E9B0003F0040363
:1022500013447B617B691A68BB681B0D03F01F0385
:10226000072101FA03F3DB431A40BB681B0D03F09F
:102270001F03796801FA03F31A437B691A6000BFF0
:102280001C37BD465DF8047B7047000080B485B004
:1022900000AFF860B9607A60FB68D3F8C020BB6813
:1022A000C3F31303DB431A407B6803F018030849A8
:1022B000D940BB680B40C3F313031A43FB68C3F850
:1022C000C02000BF1437BD465DF8047B704700BFD7
:1022D000FFFF0F0080B483B000AF78607B689B681D
:1022E00003F01F0318460C37BD465DF8047B7047AA
:1022F00080B483B000AF78607B689B6803F4404390
:1023000018460C37BD465DF8047B704780B483B037
:1023100000AF78607B689A68044B13407A689360DA
:1023200000BF0C37BD465DF8047B7047C0FFFF5F00
:1023300080B483B000AF78607B689B6803F0005383
:10234000B3F1005F01D1012300E0002318460C37F0
:10235000BD465DF8047B704780B483B000AF786001
:102360007B689A68054B134043F080527B689A6003
:1023700000BF0C37BD465DF8047B7047C0FFFF6FA0
:1023800080B483B000AF78607B689B6803F08053B3
:10239000B3F1805F01D1012300E0002318460C3720
:1023A000BD465DF8047B704780B483B000AF7860B1
:1023B0007B689A68054B134043F001027B689A6082
:1023C00000BF0C37BD465DF8047B7047C0FFFF7F40
:1023D00080B483B000AF78607B689A68054B134087
:1023E00043F002027B689A6000BF0C37BD465DF87F
:1023F000047B7047C0FFFF7F80B483B000AF78607C
:102400007B689B6803F00103012B01D1012300E0ED
:10241000002318460C37BD465DF8047B704780B436
:1024200083B000AF78607B689B6803F00203022BE7
:1024300001D1012300E0002318460C37BD465DF8AA
:10244000047B704780B483B000AF78607B689A6883
:10245000054B134043F004027B689A6000BF0C37C1
:10246000BD465DF8047B7047C0FFFF7F80B483B03A
:1024700000AF78607B689A68054B134043F0100208
:102480007B689A6000BF0C37BD465DF8047B7047DF
:10249000C0FFFF7F80B483B000AF78607B689B682B
:1024A00003F00403042B01D1012300E000231846AC
:1024B0000C37BD465DF8047B7047000080B483B0E4
:1024C00000AF78607B689A68054B134043F02002A8
:1024D0007B689A6000BF0C37BD465DF8047B70478F
:1024E000C0FFFF7F80B483B000AF78607B689B68DB
:1024F00003F00803082B01D1012300E00023184654
:102500000C37BD465DF8047B7047000090B589B07C
:1025100000AF78600023FB770023BB607B68002B53
:1025200001D101238FE17B68DB68002B7B685B6D49
:10253000002B09D17868FEF78DF97B6800229A6537
:102540007B68002283F850207B681B681846FFF7E1
:10255000EFFE0346002B04D07B681B681846FFF78C
:10256000D5FE7B681B681846FFF70AFF0346002B61
:1025700014D17B681B681846FFF7EEFE874B1B687B
:102580009B09874AA2FB03239B090133BB6002E03E
:10259000BB68013BBB60BB68002BF9D17B681B6843
:1025A0001846FFF7EDFE0346002B0DD17B685B6DEF
:1025B00043F010027B685A657B689B6D43F0010213
:1025C0007B689A650123FB777B681B681846FFF7D9
:1025D00061FF78617B685B6D03F01003002B40F0B6
:1025E00029817B69002B40F025817B685B6D23F49A
:1025F000817343F002027B685A657B681B6818464A
:10260000FFF7FAFE0346002B36D17B681B68654A4C
:10261000934204D07B681B68634A93420ED16148A1
:10262000FFF7EAFE04466048FFF7E6FE0346234351
:10263000002B0CBF01230023DBB208E05B48FFF74F
:10264000DBFE0346002B0CBF01230023DBB2002B73
:1026500012D07B681B68534A934204D07B681B6886
:10266000514A934201D1524A00E0524A7B685B686A
:1026700019461046FFF704FDFFF7F6FC034641F24A
:102680000302934214D97B689B68102B10D17B689E
:102690005B7D5A037B681B6B1A437B689B681A43FC
:1026A0007B681B7F1B04134343F00C03BB610DE0ED
:1026B0007B685B7D5A037B681B6B1A437B689B6856
:1026C0001A437B681B7F1B041343BB617B681B7F22
:1026D000012B06D17B681B6A013B5B04BA6913437B
:1026E000BB617B685B6A002B09D07B685B6A03F483
:1026F00078727B689B6A1343BA691343BB617B683A
:102700001B68DA682C4B13407A681268B9690B436E
:10271000D3607B681B681846FFF7BCFE38617B6896
:102720001B681846FFF7DEFEF8603B69002B5FD19F
:10273000FB68002B5CD17B681B7D9A037B68DB6A9E
:102740001343BB617B681B68DA681C4B13407A68D3
:102750001268B9690B43D3607B6893F83830012B5A
:1027600030D17B685B6A002B7B681B681A69144B4D
:1027700013407A68D26B013A11047A68126C1143E3
:102780007A68526C11437A68926C0A431A437B68E8
:102790001B6842F001021A611CE000BF000000202B
:1027A000632D3E05002002400021024000600258D7
:1027B000002302400063025803C0F0FFFCBFFFFF8C
:1027C0001EF800FC7B681B681A697B681B6822F096
:1027D00001021A617B681B681B6923F070417B68EA
:1027E0005A6B7B681B680A431A61786801F0FEF82F
:1027F0007B68DB68012B0CD17B681B681B6B23F0AB
:102800000F017B689B695A1E7B681B680A431A6329
:1028100007E07B681B681A6B7B681B6822F00F025D
:102820001A637B685B6D23F0030343F001027B684E
:102830005A6507E07B685B6D43F010027B685A6560
:102840000123FB77FB7F18462437BD4690BD00BFB0
:1028500080B586B000AF78607B681B685C4A9342A5
:1028600004D07B681B685B4A934201D15A4B00E05D
:102870005A4B1846FFF72EFD38617B681B681846D7
:10288000FFF708FE0346002B40F09A807B6893F820
:102890005030012B01D1022395E07B68012283F89F
:1028A0005020786800F024FF0346FB75FB7D002B69
:1028B00040F081807B685A6D494B134043F480722D
:1028C0007B685A657B681B68424A934202D07B68EA
:1028D0001B6800E03E4B7A681268934202D03B6965
:1028E000002B05D17B685B6D23F480127B685A65F1
:1028F0007B685B6D03F48053B3F5805F06D17B6822
:102900009B6D23F006027B689A6502E07B680022DB
:102910009A657B681B681C221A607B68002283F81A
:1029200050207B681B682B4A934202D07B681B684F
:1029300000E0274B7A681268934208D03B69002B6D
:1029400005D03B69052B02D03B69092B14D17B686C
:102950001B68DB6803F00073002B07D07B685B6D9E
:1029600023F4405343F480527B685A657B681B68AC
:102970001846FFF767FD25E07B685B6D43F4801226
:102980007B685A657B681B68124A934202D07B6859
:102990001B6800E00E4BFB60FB68DB6803F0007314
:1029A000002B0FD07B685B6D23F4405343F48052BF
:1029B0007B685A6506E07B68002283F8502001E0BE
:1029C0000223FB75FB7D18461837BD4680BD00BF4E
:1029D0000020024000210240002302400063025810
:1029E000FEF0FFFF80B584B000AF78607B6893F89D
:1029F0005030012B01D1022321E07B68012283F8B2
:102A000050200321786800F0B7FD0346FB73FB7B81
:102A1000002B0FD1786800F0F5FE0346FB73FB7BBB
:102A2000002B07D17B685A6D074B134043F001021E
:102A30007B685A657B68002283F85020FB7B184630
:102A40001037BD4680BD00BFFEEEFFFF80B588B0E9
:102A500000AF786039607B681B68724A934204D08B
:102A60007B681B68704A934201D1704B00E0704B49
:102A70001846FFF72FFC78617B681B69082B02D191
:102A80000823FB6137E07B69002B05D07B69052BB0
:102A900002D07B69092B11D17B681B68DB6803F0CE
:102AA0000103002B07D07B685B6D43F020027B683D
:102AB0005A650123B1E00423FB611CE07B681B68BD
:102AC000584A934204D07B681B68574A934201D10D
:102AD000564B00E0564B1846FFF70AFC0346002B06
:102AE00007D07B685B6D43F020027B685A65012349
:102AF00093E00423FB61FFF787FA386121E03B682C
:102B0000B3F1FF3F1DD0FFF77FFA02463B69D31AAE
:102B10003A689A4202D33B68002B12D17B681B684B
:102B20001A68FB691340002B0BD17B685B6D43F087
:102B300004027B685A657B68002283F850200323D7
:102B40006BE07B681B681A68FB691340002BD6D0CA
:102B50007B685B6D43F400727B685A657B681B6819
:102B60001846FFF715FB0346002B1CD07B685B7DE6
:102B7000002B18D17B681B681B6803F00803082B27
:102B800011D17B685B6D23F480727B685A657B682A
:102B90005B6D03F48053002B05D17B685B6D43F0C4
:102BA00001027B685A657B681B681F4A934202D00A
:102BB0007B681B6800E01B4B7A681268934208D060
:102BC0007B69002B05D07B69052B02D07B69092B23
:102BD00004D17B681B68DB68BB610CE07B681B6809
:102BE000114A934202D07B681B6800E00D4BFB60EA
:102BF000FB68DB68BB61FB69082B04D17B681B6841
:102C000008221A6008E0BB6903F48043002B03D15B
:102C10007B681B680C221A60002318462037BD46CB
:102C200080BD00BF0020024000210240002302407E
:102C30000063025880B586B000AFF860B9607A6072
:102C4000FB681B68554A934204D0FB681B68544AD2
:102C5000934201D1534B00E0534B1846FFF73AFB28
:102C60003861FB681B681846FFF714FC0346002B0D
:102C700040F08C80FB6893F85030012B01D1022387
:102C800087E0FB68012283F850203B69002B05D0C8
:102C90003B69052B02D03B69092B70D1F86800F025
:102CA00027FD0346FB75FB7D002B63D1FB685A6D46
:102CB0003E4B134043F48072FB685A65FB681B6807
:102CC000374A934202D0FB681B6800E0334BFA6836
:102CD0001268934202D03B69002B05D1FB685B6D03
:102CE00023F48012FB685A65FB685B6D03F4805324
:102CF000002B06D0FB689B6D23F00602FB689A65EB
:102D000002E0FB6800229A65FB68DB6C284ADA6304
:102D1000FB68DB6C274A1A64FB68DB6C264ADA64C2
:102D2000FB681B681C221A60FB68002283F8502095
:102D3000FB681B685A68FB681B6842F010025A6007
:102D4000FB681A68FB68DB6A19461046FFF75FFAF2
:102D5000FB68D86CFB681B6840331946BA687B680F
:102D600001F058FD0346FB75FB681B681846FFF72A
:102D700069FB0DE0FB68002283F8502008E0012386
:102D8000FB75FB68002283F8502001E00223FB75ED
:102D9000FB7D18461837BD4680BD00BF00200240AD
:102DA000002102400023024000630258FEF0FFFFB2
:102DB000C33800089B390008B739000880B584B0D3
:102DC00000AF78607B6893F85030012B01D102236B
:102DD0004FE07B68012283F850200321786800F0DF
:102DE000CBFB0346FB73FB7B002B3DD17B681B6851
:102DF000DA687B681B6822F00302DA607B68DB6CB0
:102E000093F83530DBB2022B0FD17B68DB6C1846B0
:102E100001F06AFF0346FB73FB7B002B05D07B6848
:102E20005B6D43F040027B685A657B681B685A689B
:102E30007B681B6822F010025A60FB7B002B05D1D7
:102E4000786800F0DFFC0346FB7302E0786800F06E
:102E5000D9FCFB7B002B07D17B685A6D074B1340D5
:102E600043F001027B685A657B68002283F850209A
:102E7000FB7B18461037BD4680BD00BFFEEEFFFF4E
:102E800080B483B000AF78607B681B681B6C184609
:102E90000C37BD465DF8047B704780B483B000AF4B
:102EA000786000BF0C37BD465DF8047B704780B486
:102EB00083B000AF786000BF0C37BD465DF8047B7F
:102EC000704780B483B000AF786000BF0C37BD4658
:102ED0005DF8047B7047000090B5A1B000AF78604A
:102EE0003960002387F87F300023BB603B68DB68D4
:102EF0009D4A93427B6893F85030012B01D1022305
:102F000021E37B68012283F850207B681B68184608
:102F1000FFF7C0FA0346002B40F006833B681B68AE
:102F2000C3F31303002B08D13B681B689B0E03F00F
:102F30001F03012202FA03F316E03B681B687B665D
:102F40007B6E93FAA3F33B663B6EBB66BB6E002BB6
:102F500001D1202303E0BB6EB3FA83F3DBB203F0AD
:102F60001F03012202FA03F37A681268D1697A68B2
:102F700012680B43D3617B6818683B6859683B68EB
:102F80001B681A46FFF717F97B681B681846FFF79E
:102F900081FAB8677B681B681846FFF7A3FA786761
:102FA000BB6F002B40F0B3807B6F002B40F0AF80F5
:102FB0007B6818683B6819683B689B681A46FFF78E
:102FC00039F96A4B1B6803F07043B3F1805F0BD192
:102FD0003B685A697B681B68DB689B0803F0070342
:102FE0005B0002FA03F31DE07B681B68DB6803F0FB
:102FF0001003002B0BD13B685A697B681B68DB68A8
:103000009B0803F007035B0002FA03F30AE03B6846
:103010005A697B681B68DB689B0803F004035B004C
:1030200002FA03F33B673B681B69042B27D07B68DC
:1030300018683B6819693B681A683B6FFFF754F8DA
:103040007B6818683B6819693B685B7E012B02D17D
:103050004FF0004300E000231A46FFF77EF87B683C
:1030600018683B6819693B681B7E012B02D14FF43D
:10307000006300E000231A46FFF756F847E07B683C
:103080001B681B6E03F0F8423B681B689B069A4264
:1030900007D17B681B681A6E7B681B6822F00042B0
:1030A0001A667B681B685B6E03F0F8423B681B681E
:1030B0009B069A4207D17B681B685A6E7B681B6827
:1030C00022F000425A667B681B689B6E03F0F84250
:1030D0003B681B689B069A4207D17B681B689A6E07
:1030E0007B681B6822F000429A667B681B68DB6E77
:1030F00003F0F8423B681B689B069A4207D17B6845
:103100001B68DA6E7B681B6822F00042DA667B6817
:103110001B681846FFF770F90346002B40F00D823C
:103120007B6818683B6819683B68DB681A46FFF7DC
:10313000ADF83B68DB680C4A934240F033817B6812
:1031400018683B681B68C3F31303002B10D13B685E
:103150001B689B0E013303F01F03092B94BF01234F
:103160000023DBB21EE000BF0000FF470010005C40
:103170003B681B68BB65BB6D93FAA3F37B657B6DF6
:10318000FB65FB6D002B01D1202303E0FB6DB3FA3F
:1031900083F3DBB2013303F01F03092B94BF012338
:1031A0000023DBB2002B79D03B681B68C3F3130309
:1031B000002B07D13B681B689B0E01339B0603F075
:1031C000F84215E03B681B68FB64FB6C93FAA3F3C1
:1031D000BB64BB6C3B653B6D002B01D1202303E03E
:1031E0003B6DB3FA83F3DBB201339B0603F0F84285
:1031F0003B681B68C3F31303002B09D13B681B68B2
:103200009B0E013303F01F03012101FA03F317E0C2
:103210003B681B683B643B6C93FAA3F3FB63FB6B5B
:103220007B647B6C002B01D1202303E07B6CB3FA21
:1032300083F3DBB2013303F01F03012101FA03F32F
:1032400042EA03013B681B68C3F31303002B0AD156
:103250003B681B689B0E013303F01F0213465B00A3
:1032600013441B0518E03B681B687B637B6B93FA78
:10327000A3F33B633B6BBB63BB6B002B01D12023F0
:1032800003E0BB6BB3FA83F3DBB2013303F01F023D
:1032900013465B0013441B050B437EE03B681B6831
:1032A000C3F31303002B07D13B681B689B0E01334C
:1032B0009B0603F0F84215E03B681B68BB62BB6AE3
:1032C00093FAA3F37B627B6AFB62FB6A002B01D15A
:1032D000202303E0FB6AB3FA83F3DBB201339B06DE
:1032E00003F0F8423B681B68C3F31303002B09D1BA
:1032F0003B681B689B0E013303F01F03012101FA99
:1033000003F317E03B681B68FB61FB6993FAA3F3C7
:10331000BB61BB693B623B6A002B01D1202303E008
:103320003B6AB3FA83F3DBB2013303F01F030121DD
:1033300001FA03F342EA03013B681B68C3F313037A
:10334000002B0DD13B681B689B0E013303F01F025D
:1033500013465B0013441E3B1B0543F000731BE048
:103360003B681B683B613B6993FAA3F3FB60FB6816
:103370007B617B69002B01D1202303E07B69B3FAD9
:1033800083F3DBB2013303F01F0213465B001344E7
:103390001E3B1B0543F000730B433A6892681946C5
:1033A000FEF748FF3B681B68002B80F2C6807B68F5
:1033B0001B68674A934204D07B681B68654A934246
:1033C00001D1654B00E0654B1846FEF77FFEF866BD
:1033D0007B681B685E4A934204D07B681B685D4A29
:1033E00093420ED15A48FFF707F804465948FFF7B1
:1033F00003F803462343002B0CBF01230023DBB259
:1034000008E05748FEF7F8FF0346002B0CBF0123E6
:103410000023DBB2002B7DD03B681B68514A9342EE
:1034200030D1FB6E03F40003002B2BD17B681B68AB
:103430004B4A934240F081807B681B68444A934228
:1034400004D07B681B68434A934201D1424A00E0A2
:10345000424AFB6E43F4000319461046FEF723FE72
:10346000414B1B689B09414AA2FB03239B09013383
:103470005B00BB6002E0BB68013BBB60BB68002B2C
:10348000F9D15AE03B681B68394A93421ED1FB6E62
:1034900003F08073002B19D17B681B68304A93427C
:1034A0004BD17B681B682A4A934204D07B681B6817
:1034B000284A934201D1284A00E0284AFB6E43F093
:1034C000807319461046FEF7EEFD36E03B681B6838
:1034D000284A934231D1FB6E03F48003002B2CD198
:1034E0007B681B681E4A934227D17B681B68184A79
:1034F000934204D07B681B68164A934201D1164A56
:1035000000E0164AFB6E43F4800319461046FEF7AE
:10351000CAFD12E07B685B6D43F020027B685A6550
:10352000012387F87F3008E07B685B6D43F0200261
:103530007B685A65012387F87F307B68002283F817
:10354000502097F87F3018468437BD4690BD00BFA5
:103550000020024000210240002302400063025884
:1035600000600258000084CB00000020632D3E055F
:10357000000052C70000B8CF80B588B000AF7860B7
:1035800039600023FB613B68BB617B681B681846A0
:10359000FEF780FF38617B681B681846FEF7A2FFC4
:1035A000F8603B69002B03D1FB68002B00F098808A
:1035B0007B681B68DB6803F00073002B2AD07B68F4
:1035C0005B7D012B26D17B681B7D012B22D1012342
:1035D000BB6114E0FB69454A93420DD97B685B6D82
:1035E00043F010027B685A657B689B6D43F00102D3
:1035F0007B689A65012374E0FB690133FB617B689A
:103600001B681B6803F04003402BE3D17B681B68F9
:1036100040221A60BB69022B14D07B681B681846D5
:10362000FEF738FF0346002B0CD07B681B6818465A
:10363000FEF7F5FE0346002B04D17B681B68184695
:10364000FEF714FFBB69012B14D07B681B6818467A
:10365000FEF748FF0346002B0CD07B681B6818461A
:10366000FEF7DDFE0346002B04D17B681B6818467D
:10367000FEF724FFBB69022B05D0BB69032B05D1E4
:103680000C237B6105E008237B6102E004237B615E
:1036900000BFFEF7B9FCB8601BE0FEF7B5FC0246C0
:1036A000BB68D31A052B14D97B681B689A687B69A1
:1036B0001340002B0DD07B685B6D43F010027B68DC
:1036C0005A657B689B6D43F001027B689A65012314
:1036D00007E07B681B689A687B691340002BDCD18C
:1036E000002318462037BD4680BD00BFFFDB0C001D
:1036F00080B584B000AF78607B681B681846FEF721
:103700007BFE0346002B6ED17B681B689A68384BA2
:103710001340002B0DD07B685B6D43F010027B687B
:103720005A657B689B6D43F001027B689A650123B3
:103730005AE07B681B681846FEF736FEFEF764FC0D
:10374000F8607B681B682B4A934204D07B681B6837
:10375000294A934201D1294B00E0294B1846FEF734
:10376000B9FDB8607B681B68234A934202D07B682E
:103770001B6800E01F4B7A68126893422CD0BB682C
:10378000002B30D128E07B681B681846FEF734FE1A
:103790000346002B04D17B681B681846FEF704FE25
:1037A000FEF732FC0246FB68D31A022B14D97B6861
:1037B0001B681B6803F00103012B0DD07B685B6D58
:1037C00043F010027B685A657B689B6D43F00102F1
:1037D0007B689A65012307E07B681B681B6803F020
:1037E0000103012BCFD1002318461037BD4680BD01
:1037F0003F000080002002400021024000230240E0
:103800000063025880B584B000AF78607B681B68A5
:103810001846FEF704FEF8607B681B681846FEF742
:10382000EBFD0346002B47D0FB68002B44D17B689F
:103830001B689B6803F00D03012B0CD17B681B6890
:103840001846FEF7C5FD7B681B6803221A60FEF769
:10385000DBFBB86029E07B685B6D43F010027B689E
:103860005A657B689B6D43F001027B689A65012372
:1038700023E0FEF7C9FB0246BB68D31A022B14D91A
:103880007B681B689B6803F00103002B0DD07B68ED
:103890005B6D43F010027B685A657B689B6D43F05B
:1038A00001027B689A65012307E07B681B689B68BF
:1038B00003F00103002BDCD1002318461037BD466E
:1038C00080BD80B584B000AF78607B689B6BFB6087
:1038D000FB685B6D03F05003002B4BD1FB685B6D05
:1038E00043F40072FB685A65FB681B681B6803F0B1
:1038F0000803002B21D0FB681B681846FEF748FC24
:103900000346002B32D0FB681B68DB6803F40053CE
:10391000002B2BD1FB685B6D23F48072FB685A652A
:10392000FB685B6D03F48053002B1FD1FB685B6D5C
:1039300043F00102FB685A6518E0FB681B68DB680E
:1039400003F00303002B11D1FB685B6D23F480723D
:10395000FB685A65FB685B6D03F48053002B05D14F
:10396000FB685B6D43F00102FB685A65F868FFF77E
:1039700094FA0EE0FB685B6D03F01003002B03D09C
:10398000F868FFF79EFA04E0FB68DB6CDB6C786894
:10399000984700BF1037BD4680BD80B584B000AFEA
:1039A00078607B689B6BFB60F868FFF780FA00BF6C
:1039B0001037BD4680BD80B584B000AF78607B68AD
:1039C0009B6BFB60FB685B6D43F04002FB685A65D4
:1039D000FB689B6D43F00402FB689A65F868FFF78B
:1039E00070FA00BF1037BD4680BD000080B584B0BE
:1039F00000AF78607B681B687A4A934204D07B688A
:103A00001B68794A934209D1784B9B6803F4403391
:103A1000002B14BF01230023DBB208E0744B9B682A
:103A200003F44033002B14BF01230023DBB2002B2F
:103A30001CD004F03FFAF8607B685B68B3F5403F48
:103A400010D0B3F5403F73D8B3F5803F02D0B3F543
:103A5000003F6DD17B685B681B0CFA68B2FBF3F327
:103A6000FB6068E0FB689B08FB6064E04FF40020AB
:103A70004FF0000105F084FCF8607B685B68B3F5EB
:103A8000301F51D0B3F5301F54D8B3F5201F47D0A5
:103A9000B3F5201F4ED8B3F5101F3DD0B3F5101F5E
:103AA00048D8B3F5001F33D0B3F5001F42D8B3F5A3
:103AB000E01F29D0B3F5E01F3CD8B3F5C01F1AD0E2
:103AC000B3F5C01F36D8B3F5A01F14D0B3F5A01FAF
:103AD00030D8B3F5801F0ED0B3F5801F2AD8B3F5C8
:103AE000402F08D0B3F5402F24D8B3F5802F02D053
:103AF000B3F5002F1ED17B685B689B0C5B00FA68F6
:103B0000B2FBF3F3FB6016E0FB681B09FB6012E0FD
:103B1000FB685B09FB600EE0FB689B09FB600AE049
:103B2000FB68DB09FB6006E0FB681B0AFB6002E048
:103B300000BF00E000BFFEF797FA034641F2030220
:103B4000934215D8FB682B4A934208D97B681B68BF
:103B50009A687B681B6842F480729A603EE07B68DA
:103B60001B689A687B681B6822F480729A6035E053
:103B7000FB685B08FB60FB681F4A934208D87B68C0
:103B80001B689A687B681B6822F440729A6025E083
:103B9000FB681A4A93420AD87B681B689B6823F427
:103BA00040727B681B6842F480729A6016E0FB6882
:103BB000134A93420AD87B681B689B6823F44072BF
:103BC0007B681B6842F400729A6007E07B681B68A0
:103BD0009A687B681B6842F440729A6000BF103795
:103BE000BD4680BD0020024000210240002302406B
:103BF00000630258002D3101105E5F0020BCBE0042
:103C000040787D0180B483B000AF78607B689B68AA
:103C100003F00103012B01D1012300E0002318462A
:103C20000C37BD465DF8047B7047000080B485B05A
:103C300000AFF860B9607A60FB689A68094B13407E
:103C4000BA6802F480317A6802F080420A43134372
:103C500043F00042FB689A6000BF1437BD465DF830
:103C6000047B7047C0FFFE3F80B483B000AF786034
:103C70007B689B6803F00043B3F1004F01D101233F
:103C800000E0002318460C37BD465DF8047B704702
:103C900080B483B000AF78607B689B6803F0040356
:103CA000042B01D1012300E0002318460C37BD4648
:103CB0005DF8047B7047000080B586B000AFF86007
:103CC000B9607A6000233B61FB6893F85030012BA8
:103CD00001D102234CE0FB68012283F85020F868F0
:103CE000FFF790FD0346FB75FB7D002B35D1FB688C
:103CF0005A6D214B134043F00202FB685A65FB6882
:103D00001B687A68B9681846FFF790FF14E03B69B2
:103D100001333B613B69194A93420DD3FB685B6DEC
:103D200023F0120343F01002FB685A65FB6800227F
:103D300083F8502001231BE0FB681B681846FFF73F
:103D400093FF0346002BE2D1FB685B6D23F0030376
:103D500043F00102FB685A6505E0FB685B6D43F0C8
:103D60001002FB685A65FB68002283F85020FB7D37
:103D700018461837BD4680BDFDEEFFFF00F8C3258D
:103D800090B59FB000AF78603960002387F8773036
:103D90007B6893F85030012B01D10223BEE07B6891
:103DA000012283F850200023FB6500233B667B68DB
:103DB0001B685C4A934202D15B4BBB6001E000236D
:103DC000BB60BB68002B0BD17B685B6D43F02002AE
:103DD0007B685A657B68002283F8502001239DE0B0
:103DE000BB681846FFF754FF38677B681B681846A6
:103DF000FFF74EFF0346002B7FD13B6F002B7CD19A
:103E00007B681B68474A934204D07B681B68464A1C
:103E1000934201D1454B00E0454BFB663B681B6874
:103E2000002B39D0FB6E9B6823F440423B685B68F3
:103E30001A43FB6E9A607B681B683A4A934204D02F
:103E40007B681B68384A93420ED13648FFF7DAFE8A
:103E500004463548FFF7D6FE03462343002B0CBF2C
:103E600001230023DBB208E03248FFF7CBFE034614
:103E7000002B0CBF01230023DBB2002B47D0FB6ECD
:103E80009A682D4B13403A6811683A6892680A4361
:103E90001A43FB6E9A603AE0FB6E9B6823F4404243
:103EA000FB6E9A607B681B681E4A934204D07B6855
:103EB0001B681D4A93420ED11A48FFF7A3FE044621
:103EC0001948FFF79FFE03462343002B0CBF012335
:103ED0000023DBB208E01748FFF794FE0346002BEF
:103EE0000CBF01230023DBB2002B10D0FB6E9A68BD
:103EF000114B1340FA6E936009E07B685B6D43F0F1
:103F000020027B685A65012387F8773000E000BF04
:103F10007B68002283F8502097F8773018467C376A
:103F2000BD4690BD00200240002102400023024017
:103F30000063025800600258E0F0FFFF80B485B0D3
:103F400000AF78607B6803F00703FB600B4BDB6816
:103F5000BB60BA684FF6FF031340BB60FB681A02F0
:103F6000BB681A43064B1343BB60044ABB68D3606B
:103F700000BF1437BD465DF8047B704700ED00E0DC
:103F80000000FA0580B400AF044BDB681B0A03F0A5
:103F900007031846BD465DF8047B704700ED00E05E
:103FA00080B483B000AF0346FB80B7F90630002B26
:103FB0000BDBFB8803F01F020749B7F906305B09EA
:103FC000012000FA02F241F8232000BF0C37BD4661
:103FD0005DF8047B704700BF00E100E080B483B06F
:103FE00000AF03463960FB80B7F90630002B0ADBCF
:103FF0003B68DAB20C49B7F906301201D2B20B4471
:1040000083F800230AE03B68DAB20849FB8803F032
:104010000F03043B1201D2B20B441A7600BF0C37D7
:10402000BD465DF8047B704700E100E000ED00E074
:1040300080B489B000AFF860B9607A60FB6803F0C3
:104040000703FB61FB69C3F10703042B28BF0423AB
:10405000BB61FB690433062B02D9FB69033B00E01B
:1040600000237B614FF0FF32BB6902FA03F3DA43AE
:10407000BB681A407B699A404FF0FF317B6901FAB7
:1040800003F3D9437B680B40134318462437BD46DE
:104090005DF8047B7047000080B582B000AF7860A7
:1040A0007B68013BB3F1807F01D301230FE00A4A13
:1040B0007B68013B53600F214FF0FF30FFF78EFF0D
:1040C000054B00229A60044B07221A600023184611
:1040D0000837BD4680BD00BF10E000E080B582B06B
:1040E00000AF78607868FFF729FF00BF0837BD464A
:1040F00080BD80B586B000AF0346B9607A60FB81B1
:10410000FFF740FF78617A68B9687869FFF790FF38
:104110000246B7F90E3011461846FFF75FFF00BFA1
:104120001837BD4680BD80B582B000AF0346FB8026
:10413000B7F906301846FFF733FF00BF0837BD4612
:1041400080BD80B582B000AF78607868FFF7A4FFCB
:10415000034618460837BD4680BD000080B586B0CE
:1041600000AF7860FDF750FF38617B68002B01D10C
:10417000012316E37B681B68664A93424AD07B683A
:104180001B68654A934245D07B681B68634A93422B
:1041900040D07B681B68624A93423BD07B681B68B7
:1041A000604A934236D07B681B685F4A934231D0A5
:1041B0007B681B685D4A93422CD07B681B685C4A15
:1041C000934227D07B681B685A4A934222D07B686F
:1041D0001B68594A93421DD07B681B68574A93421B
:1041E00018D07B681B68564A934213D07B681B68C3
:1041F000544A93420ED07B681B68534A934209D0BD
:104200007B681B68514A934204D07B681B68504A04
:10421000934201D1012300E00023002B00F03B81F9
:104220007B68022283F835207B68002283F83420E3
:104230007B681B68374A93424AD07B681B68364AC2
:10424000934245D07B681B68344A934240D07B68D8
:104250001B68334A93423BD07B681B68314A9342C8
:1042600036D07B681B68304A934231D07B681B682C
:104270002E4A93422CD07B681B682D4A934227D04C
:104280007B681B682B4A934222D07B681B682A4AB2
:1042900093421DD07B681B68284A934218D07B68E4
:1042A0001B68274A934213D07B681B68254A9342B8
:1042B0000ED07B681B68244A934209D07B681B6838
:1042C000224A934204D07B681B68214A934208D15A
:1042D0007B681B681A687B681B6822F001021A6001
:1042E00007E07B681B681A687B681B6822F0010284
:1042F0001A602FE0FDF788FE02463B69D31A052BB2
:1043000028D97B6820225A657B68032283F83520F0
:10431000012346E210000240280002404000024013
:10432000580002407000024088000240A000024095
:10433000B800024010040240280402404004024039
:10434000580402407004024088040240A004024065
:10435000B80402407B681B681B6803F00103002B54
:10436000C8D17B681B681B687B617A69834B1340EB
:104370007B617B689A687B68DB681A437B681B6992
:104380001A437B685B691A437B689B691A437B68A5
:10439000DB691A437B681B6A13437A6913437B61A9
:1043A0007B685B6A042B07D17B68DA6A7B681B6BCE
:1043B00013437A6913437B61714B1A68714B134045
:1043C000B3F1005F28D37B685B68282B03D97B6837
:1043D0005B682E2B17D97B685B683E2B03D97B6803
:1043E0005B68422B0FD97B685B68462B03D97B68DF
:1043F0005B68482B07D97B685B684E2B05D97B68C7
:104400005B68522B01D8012300E00023002B03D06E
:104410007B6943F480137B617B681B687A691A604F
:104420007B681B685B697B617B6923F007037B61A9
:104430007B685B6A7A6913437B617B685B6A042BE8
:1044400017D17B689B6A7A6913437B617B68DB6A5F
:10445000002B0ED0786802F0EDF80346002B08D050
:104460007B6840225A657B68012283F8352001234E
:1044700097E17B681B687A695A61786802F028F8CE
:104480000346BB607B68DB6D03F01F033F229A404D
:10449000BB689A60CDE07B681B683B4A934222D0A0
:1044A0007B681B68394A93421DD07B681B68384A79
:1044B000934218D07B681B68364A934213D07B68BE
:1044C0001B68354A93420ED07B681B68334A93427F
:1044D00009D07B681B68324A934204D07B681B6812
:1044E000304A934201D1012300E00023002B00F069
:1044F00097807B681B68244A934221D07B681B68A5
:10450000224A93421CD07B681B68214A934217D0F1
:104510007B681B681F4A934212D07B681B681E4A47
:1045200093420DD07B681B681C4A934208D07B687D
:104530001B681B4A934203D07B681B68194A93424D
:1045400000BF7B68022283F835207B68002283F855
:1045500034207B681B681B687B617A69124B1340AF
:104560007B617B689B68402B20D07B689B68802B9D
:1045700002D14FF480431AE0002318E03F8010FE80
:104580000010005C0000FFFF085402581C54025841
:104590003054025844540258585402586C5402582B
:1045A00080540258945402580F00FEFF10237A687A
:1045B000D268D2081A437B681B69DB081A437B6800
:1045C0005B69DB081A437B689B69DB081A437B68DD
:1045D000DB69DB081A437B681B6A1B0913437A6992
:1045E00013437B617B681B687A691A607B681B6870
:1045F0001A466E4B13446E4AA2FB03231B099A0012
:104600007B68DA65786801F063FF0346FB607B68CE
:10461000DB6D03F01F0301229A40FB685A6008E03B
:104620007B6840225A657B68032283F8352001238A
:10463000B7E07B681B685F4A934272D07B681B6857
:104640005D4A93426DD07B681B685C4A934268D098
:104650007B681B685A4A934263D07B681B68594A3F
:1046600093425ED07B681B68574A934259D07B685F
:104670001B68564A934254D07B681B68544A934245
:104680004FD07B681B68534A93424AD07B681B68B3
:10469000514A934245D07B681B68504A934240D0B0
:1046A0007B681B684E4A93423BD07B681B684D4A2F
:1046B000934236D07B681B684B4A934231D07B686B
:1046C0001B684A4A93422CD07B681B68484A934235
:1046D00027D07B681B68474A934222D07B681B68BF
:1046E000454A93421DD07B681B68444A934218D0C8
:1046F0007B681B68424A934213D07B681B68414A1F
:1047000093420ED07B681B683F4A934209D07B6876
:104710001B683E4A934204D07B681B683C4A934224
:1047200001D1012300E00023002B32D0786801F092
:10473000FDFF7B689B68802B02D17B6800225A605A
:104740007B685A687B681B6ED2B21A607B685B6EAE
:104750007A68926E5A607B685B68002B10D07B6829
:104760005B68082B0CD8786802F07AF87B68DB6EFF
:1047700000221A607B681B6F7A68526F5A6008E0EB
:104780007B680022DA667B6800221A677B68002259
:104790005A677B6800225A657B68012283F83520BE
:1047A000002318461837BD4680BD00BFF8ABFDA7F3
:1047B000CDCCCCCC1000024028000240400002408A
:1047C000580002407000024088000240A0000240F1
:1047D000B800024010040240280402404004024095
:1047E000580402407004024088040240A0040240C1
:1047F000B8040240085402581C540258305402585D
:1048000044540258585402586C5402588054025868
:104810009454025880B586B000AFF860B9607A60F1
:104820003B600023FB75FB68002B01D1012326E2CE
:10483000FB6893F83430012B01D102231FE2FB689F
:10484000012283F83420FB6893F83530DBB2012B6A
:1048500040F00A82FB68022283F83520FB680022C0
:104860005A65FB681B68684A93424AD0FB681B681C
:10487000664A934245D0FB681B68654A934240D024
:10488000FB681B68634A93423BD0FB681B68624A23
:10489000934236D0FB681B68604A934231D0FB6874
:1048A0001B685F4A93422CD0FB681B685D4A9342A9
:1048B00027D0FB681B685C4A934222D0FB681B68C8
:1048C0005A4A93421DD0FB681B68594A934218D03C
:1048D000FB681B68574A934213D0FB681B68564A13
:1048E00093420ED0FB681B68544A934209D0FB6880
:1048F0001B68534A934204D0FB681B68514A934299
:1049000008D1FB681B681A68FB681B6822F001026B
:104910001A6007E0FB681B681A68FB681B6822F0D6
:1049200001021A603B687A68B968F86801F024FCF3
:10493000FB681B68344A93424AD0FB681B68334AC1
:10494000934245D0FB681B68314A934240D0FB68D4
:104950001B68304A93423BD0FB681B682E4A934247
:1049600036D0FB681B682D4A934231D0FB681B6828
:104970002B4A93422CD0FB681B682A4A934227D0CB
:10498000FB681B68284A934222D0FB681B68274AB1
:1049900093421DD0FB681B68254A934218D0FB68E0
:1049A0001B68244A934213D0FB681B68224A934237
:1049B0000ED0FB681B68214A934209D0FB681B6834
:1049C0001F4A934204D0FB681B681E4A934201D1E0
:1049D000012300E00023002B36D0FB681B681B6816
:1049E00023F01E02FB681B6842F016021A60FB6887
:1049F0001B6C002B3ED0FB681B681A68FB681B68A9
:104A000042F008021A6035E010000240280002401F
:104A100040000240580002407000024088000240FE
:104A2000A0000240B80002401004024028040240E6
:104A300040040240580402407004024088040240CE
:104A4000A0040240B8040240FB681B681B6823F006
:104A50000E02FB681B6842F00A021A60FB681B6CBE
:104A6000002B07D0FB681B681A68FB681B6842F0C4
:104A700004021A60FB681B68834A934272D0FB6889
:104A80001B68824A93426DD0FB681B68804A934240
:104A900068D0FB681B687F4A934263D0FB681B6841
:104AA0007D4A93425ED0FB681B687C4A934259D092
:104AB000FB681B687A4A934254D0FB681B68794AAA
:104AC00093424FD0FB681B68774A93424AD0FB68F9
:104AD0001B68764A934245D0FB681B68744A934230
:104AE00040D0FB681B68734A93423BD0FB681B684D
:104AF000714A934236D0FB681B68704A934231D0AA
:104B0000FB681B686E4A93422CD0FB681B686D4A99
:104B1000934227D0FB681B686B4A934222D0FB6804
:104B20001B686A4A93421DD0FB681B68684A93421F
:104B300018D0FB681B68674A934213D0FB681B6858
:104B4000654A93420ED0FB681B68644A934209D0C1
:104B5000FB681B68624A934204D0FB681B68614A89
:104B6000934201D1012300E00023002B1AD0FB68FF
:104B70001B6E1B6803F48033002B07D0FB681B6E91
:104B80001A68FB681B6E42F480721A60FB68DB6E69
:104B9000002B07D0FB68DB6E1A68FB68DB6E42F403
:104BA00080721A60FB681B68374A93424AD0FB68E0
:104BB0001B68364A934245D0FB681B68344A9342CF
:104BC00040D0FB681B68334A93423BD0FB681B68AC
:104BD000314A934236D0FB681B68304A934231D049
:104BE000FB681B682E4A93422CD0FB681B682D4A39
:104BF000934227D0FB681B682B4A934222D0FB6864
:104C00001B682A4A93421DD0FB681B68284A9342BE
:104C100018D0FB681B68274A934213D0FB681B68B7
:104C2000254A93420ED0FB681B68244A934209D060
:104C3000FB681B68224A934204D0FB681B68214A28
:104C4000934208D1FB681B681A68FB681B6842F036
:104C500001021A6012E0FB681B681A68FB681B6897
:104C600042F001021A6009E0FB684FF400625A65E5
:104C7000FB68002283F834200123FB75FB7D184676
:104C80001837BD4680BD00BF10000240280002401A
:104C9000400002405800024070000240880002407C
:104CA000A0000240B8000240100402402804024064
:104CB000400402405804024070040240880402404C
:104CC000A0040240B8040240085402581C54025880
:104CD0003054025844540258585402586C540258E4
:104CE000805402589454025880B586B000AF786062
:104CF000FDF78AF938617B68002B01D10123DCE2E2
:104D00007B6893F83530DBB2022B08D07B688022B9
:104D10005A657B68002283F834200123CDE27B684A
:104D20001B68764A93424AD07B681B68744A934258
:104D300045D07B681B68734A934240D07B681B68F0
:104D4000714A93423BD07B681B68704A934236D0CD
:104D50007B681B686E4A934231D07B681B686D4A42
:104D600093422CD07B681B686B4A934227D07B68A8
:104D70001B686A4A934222D07B681B68684A934248
:104D80001DD07B681B68674A934218D07B681B68FC
:104D9000654A934213D07B681B68644A93420ED0E5
:104DA0007B681B68624A934209D07B681B68614A32
:104DB000934204D07B681B685F4A934201D1012370
:104DC00000E00023002B13D07B681B681A687B6807
:104DD0001B6822F01E021A607B681B685A697B6898
:104DE0001B6822F080025A617B681B687B610AE0C5
:104DF0007B681B681A687B681B6822F00E021A60C9
:104E00007B681B687B617B681B683C4A934272D05D
:104E10007B681B683A4A93426DD07B681B68394AAD
:104E2000934268D07B681B68374A934263D07B68A3
:104E30001B68364A93425ED07B681B68344A9342B3
:104E400059D07B681B68334A934254D07B681B68F7
:104E5000314A93424FD07B681B68304A93424AD014
:104E60007B681B682E4A934245D07B681B682D4A9D
:104E7000934240D07B681B682B4A93423BD07B68AF
:104E80001B682A4A934236D07B681B68284A9342A3
:104E900031D07B681B68274A93422CD07B681B6803
:104EA000254A934227D07B681B68244A934222D02C
:104EB0007B681B68224A93421DD07B681B68214A8D
:104EC000934218D07B681B681F4A934213D07B68BB
:104ED0001B681E4A93420ED07B681B681C4A934293
:104EE00009D07B681B681B4A934204D07B681B680F
:104EF000194A934232D1012331E000BF1000024031
:104F00002800024040000240580002407000024069
:104F100088000240A0000240B80002401004024095
:104F20002804024040040240580402407004024039
:104F300088040240A0040240B80402400854025809
:104F40001C540258305402584454025858540258C1
:104F50006C54025880540258945402580023002B79
:104F600007D07B681B6E1A687B681B6E22F4807208
:104F70001A607B681B686D4A93424AD07B681B6845
:104F80006B4A934245D07B681B686A4A934240D083
:104F90007B681B68684A93423BD07B681B68674A02
:104FA000934236D07B681B68654A934231D07B6858
:104FB0001B68644A93422CD07B681B68624A934208
:104FC00027D07B681B68614A934222D07B681B68AC
:104FD0005F4A93421DD07B681B685E4A934218D09B
:104FE0007B681B685C4A934213D07B681B685B4AF2
:104FF00093420ED07B681B68594A934209D07B6864
:105000001B68584A934204D07B681B68564A9342F7
:1050100008D17B681B681A687B681B6822F0010254
:105020001A6007E07B681B681A687B681B6822F0BF
:1050300001021A6013E0FCF7E7FF02463B69D31A4E
:10504000052B0CD97B6820225A657B68032283F8E4
:1050500035207B68002283F8342001232DE17B6911
:105060001B6803F00103002BE5D17B681B682F4A06
:1050700093424AD07B681B682D4A934245D07B6897
:105080001B682C4A934240D07B681B682A4A934293
:105090003BD07B681B68294A934236D07B681B68EB
:1050A000274A934231D07B681B68264A93422CD012
:1050B0007B681B68244A934227D07B681B68234A7D
:1050C000934222D07B681B68214A93421DD07B68A3
:1050D0001B68204A934218D07B681B681E4A934283
:1050E00013D07B681B681D4A93420ED07B681B68F7
:1050F0001B4A934209D07B681B681A4A934204D02A
:105100007B681B68184A934201D1012300E0002309
:10511000002B2BD07B689B6DBB607B68DB6D03F045
:105120001F033F229A40BB689A602AE010000240A9
:105130002800024040000240580002407000024037
:1051400088000240A0000240B80002401004024063
:105150002804024040040240580402407004024007
:1051600088040240A0040240B80402407B689B6DA2
:10517000FB607B68DB6D03F01F0301229A40FB6834
:105180005A607B681B684F4A934272D07B681B68E9
:105190004D4A93426DD07B681B684C4A934268D05D
:1051A0007B681B684A4A934263D07B681B68494A04
:1051B00093425ED07B681B68474A934259D07B6814
:1051C0001B68464A934254D07B681B68444A93420A
:1051D0004FD07B681B68434A93424AD07B681B6868
:1051E000414A934245D07B681B68404A934240D075
:1051F0007B681B683E4A93423BD07B681B683D4AF4
:10520000934236D07B681B683B4A934231D07B681F
:105210001B683A4A93422CD07B681B68384A9342F9
:1052200027D07B681B68374A934222D07B681B6873
:10523000354A93421DD07B681B68344A934218D08C
:105240007B681B68324A934213D07B681B68314AE3
:1052500093420ED07B681B682F4A934209D07B682B
:105260001B682E4A934204D07B681B682C4A9342E9
:1052700001D1012300E00023002B15D07B685B6E79
:105280007A68926E5A607B68DB6E002B0CD07B686C
:10529000DB6E1A687B68DB6E22F480721A607B68B2
:1052A0001B6F7A68526F5A607B68012283F8352041
:1052B0007B68002283F83420002318461837BD4647
:1052C00080BD00BF100002402800024040000240A4
:1052D000580002407000024088000240A0000240D6
:1052E000B80002401004024028040240400402407A
:1052F000580402407004024088040240A0040240A6
:10530000B8040240085402581C5402583054025841
:1053100044540258585402586C540258805402584D
:105320009454025880B58AB000AF78600023FB60C7
:10533000674B1B68674AA2FB03239B0A7B627B685F
:105340009B6D3B627B689B6DFB613B6A1B68BB612D
:10535000FB691B687B617B681B685F4A93424AD08C
:105360007B681B685D4A934245D07B681B685C4A3A
:10537000934240D07B681B685A4A93423BD07B687B
:105380001B68594A934236D07B681B68574A934240
:1053900031D07B681B68564A93422CD07B681B68CF
:1053A000544A934227D07B681B68534A934222D0C9
:1053B0007B681B68514A93421DD07B681B68504A2A
:1053C000934218D07B681B684E4A934213D07B6887
:1053D0001B684D4A93420ED07B681B684B4A934230
:1053E00009D07B681B684A4A934204D07B681B68DB
:1053F000484A934201D1012300E00023002B00F032
:105400002B847B68DB6D03F01F0308229A40BB6985
:105410001340002B00F0A2807B681B682E4A934249
:105420004AD07B681B682D4A934245D07B681B6835
:105430002B4A934240D07B681B682A4A93423BD058
:105440007B681B68284A934236D07B681B68274AD2
:10545000934231D07B681B68254A93422CD07B68ED
:105460001B68244A934227D07B681B68224A9342D8
:1054700022D07B681B68214A93421DD07B681B6841
:105480001F4A934218D07B681B681E4A934213D070
:105490007B681B681C4A93420ED07B681B681B4AC2
:1054A000934209D07B681B68194A934204D07B68F9
:1054B0001B68184A93422FD17B681B681B6803F056
:1054C0000403002B14BF01230023DBB22EE000BF36
:1054D00000000020B5814E1B100002402800024051
:1054E0004000024058000240700002408800024024
:1054F000A0000240B800024010040240280402400C
:1055000040040240580402407004024088040240F3
:10551000A0040240B80402407B681B681B6803F0CB
:105520000803002B14BF01230023DBB2002B15D08E
:105530007B681B681A687B681B6822F004021A608B
:105540007B68DB6D03F01F0308229A403B6A9A6078
:105550007B685B6D43F001027B685A657B68DB6D9D
:1055600003F01F03BA6922FA03F303F00103002BCF
:105570006ED07B681B68694A93424AD07B681B687F
:10558000674A934245D07B681B68664A934240D085
:105590007B681B68644A93423BD07B681B68634A04
:1055A000934236D07B681B68614A934231D07B6856
:1055B0001B68604A93422CD07B681B685E4A93420A
:1055C00027D07B681B685D4A934222D07B681B68AA
:1055D0005B4A93421DD07B681B685A4A934218D09D
:1055E0007B681B68584A934213D07B681B68574AF4
:1055F00093420ED07B681B68554A934209D07B6862
:105600001B68544A934204D07B681B68524A9342F9
:105610000AD17B681B685B6903F08003002B14BF11
:1056200001230023DBB203E07B681B681B680023B7
:10563000002B0DD07B68DB6D03F01F0301229A4025
:105640003B6A9A607B685B6D43F002027B685A6537
:105650007B68DB6D03F01F0304229A40BB69134093
:10566000002B00F08F807B681B682C4A93424AD045
:105670007B681B682A4A934245D07B681B68294A8D
:10568000934240D07B681B68274A93423BD07B689B
:105690001B68264A934236D07B681B68244A934293
:1056A00031D07B681B68234A93422CD07B681B68EF
:1056B000214A934227D07B681B68204A934222D01C
:1056C0007B681B681E4A93421DD07B681B681D4A7D
:1056D000934218D07B681B681B4A934213D07B68A7
:1056E0001B681A4A93420ED07B681B68184A934283
:1056F00009D07B681B68174A934204D07B681B68FB
:10570000154A93422AD17B681B681B6803F0020389
:10571000002B14BF01230023DBB223E01000024062
:105720002800024040000240580002407000024041
:1057300088000240A0000240B8000240100402406D
:105740002804024040040240580402407004024011
:1057500088040240A0040240B80402407B681B6831
:105760001B680023002B0DD07B68DB6D03F01F034B
:1057700004229A403B6A9A607B685B6D43F00402A6
:105780007B685A657B68DB6D03F01F0310229A402B
:10579000BB691340002B00F0A6807B681B68854A1C
:1057A00093424AD07B681B68834A934245D07B680A
:1057B0001B68824A934240D07B681B68804A9342B0
:1057C0003BD07B681B687F4A934236D07B681B685E
:1057D0007D4A934231D07B681B687C4A93422CD02F
:1057E0007B681B687A4A934227D07B681B68794A9A
:1057F000934222D07B681B68774A93421DD07B6816
:105800001B68764A934218D07B681B68744A93429F
:1058100013D07B681B68734A93420ED07B681B6869
:10582000714A934209D07B681B68704A934204D046
:105830007B681B686E4A93420AD17B681B681B68B1
:1058400003F00803002B14BF01230023DBB209E09F
:105850007B681B681B6803F00403002B14BF012343
:105860000023DBB2002B3ED07B68DB6D03F01F030F
:1058700010229A403B6A9A607B681B681B6803F49D
:105880008023002B18D07B681B681B6803F400235F
:10589000002B08D17B681B6C002B24D07B681B6C11
:1058A000786898471FE07B689B6C002B1BD07B6857
:1058B0009B6C7868984716E07B681B681B6803F44C
:1058C0008073002B07D17B681B681A687B681B6894
:1058D00022F008021A607B681B6C002B03D07B68E7
:1058E0001B6C786898477B68DB6D03F01F032022F0
:1058F0009A40BB691340002B00F010817B681B6845
:105900002C4A93424AD07B681B682B4A934245D06D
:105910007B681B68294A934240D07B681B68284AF1
:1059200093423BD07B681B68264A934236D07B6803
:105930001B68254A934231D07B681B68234A9342F7
:105940002CD07B681B68224A934227D07B681B6857
:10595000204A934222D07B681B681F4A93421DD085
:105960007B681B681D4A934218D07B681B681C4AE1
:10597000934213D07B681B681A4A93420ED07B680F
:105980001B68194A934209D07B681B68174A9342E7
:1059900004D07B681B68164A93422BD17B681B6836
:1059A0001B6803F01003002B14BF01230023DBB29C
:1059B0002AE000BF100002402800024040000240E0
:1059C000580002407000024088000240A0000240DF
:1059D000B800024010040240280402404004024083
:1059E000580402407004024088040240A0040240AF
:1059F000B80402407B681B681B6803F00203002B9D
:105A000014BF01230023DBB2002B00F087807B68EA
:105A1000DB6D03F01F0320229A403B6A9A607B688B
:105A200093F83530DBB2042B39D17B681B681A68D8
:105A30007B681B6822F016021A607B681B685A6933
:105A40007B681B6822F080025A617B681B6C002B0C
:105A500003D17B689B6C002B07D07B681B681A689E
:105A60007B681B6822F008021A607B68DB6D03F01C
:105A70001F033F229A403B6A9A607B68012283F8A9
:105A800035207B68002283F834207B681B6D002B57
:105A900000F04A837B681B6D7868984744E37B6815
:105AA0001B681B6803F48023002B18D07B681B68DD
:105AB0001B6803F40023002B08D17B685B6C002B70
:105AC0002CD07B685B6C7868984727E07B68DB6B41
:105AD000002B23D07B68DB6B786898471EE07B68DF
