:020000040800F2
:1000000000000220F9920008210F0008270F0008C5
:100010002D0F0008330F0008390F00080000000002
:100020000000000000000000000000003F0F00087A
:100030004D0F0008000000005B0F0008690F00086A
:100040005193000851930008519300085193000800
:1000500051930008519300085193000851930008F0
:1000600051930008519300085193000851930008E0
:1000700051930008519300085193000851930008D0
:1000800051930008519300085193000851930008C0
:1000900051930008519300085193000851930008B0
:1000A00051930008519300085193000851930008A0
:1000B0005193000851930008519300085193000890
:1000C0005193000851930008519300085193000880
:1000D0005193000851930008750F0008890F00081C
:1000E000519300085193000800000000519300084C
:1000F0005193000851930008519300085193000850
:10010000519300085193000851930008519300083F
:10011000519300085193000851930008519300082F
:10012000519300085193000851930008519300081F
:10013000519300085193000851930008519300080F
:1001400000000000000000000000000000000000AF
:1001500051930008519300085193000851930008EF
:1001600051930008519300085193000851930008DF
:1001700051930008519300085193000851930008CF
:1001800051930008519300085193000851930008BF
:1001900051930008519300085193000851930008AF
:1001A000519300085193000851930008519300089F
:1001B000519300085193000851930008519300088F
:1001C000519300085193000851930008519300087F
:1001D000519300085193000851930008519300086F
:1001E000519300085193000851930008519300085F
:1001F000519300085193000851930008519300084F
:10020000519300085193000851930008519300083E
:10021000519300085193000851930008519300082E
:10022000519300085193000851930008000000000A
:1002300051930008519300080000000051930008FA
:1002400051930008519300085193000851930008FE
:1002500051930008519300085193000851930008EE
:1002600051930008519300085193000851930008DE
:1002700051930008519300085193000800000000BA
:1002800051930008519300085193000800000000AA
:0802900000000000519300087A
:1002A00010B5054C237833B9044B13B10448AFF3B0
:1002B00000800123237010BD80000020000000009A
:1002C000A49C000808B5034B1BB103490348AFF3D6
:1002D000008008BD0000000084000020A49C0008ED
:1002E00001F0FF01102A2BDB10F0070F08D010F8E7
:1002F000013B013A8B422DD010F0070F42B3F6D1EB
:10030000F0B441EA012141EA014122F007047FF003
:1003100000070023F0E80256083C85EA010586EA5A
:10032000010685FA47F5A3FA87F586FA47F6A5FA96
:1003300087F68EB9EED1F0BC01F0FF0102F00702A2
:1003400032B110F8013B013A83EA010313B1F8D14D
:100350000020704701387047002D06BF354603382E
:10036000073815F0010F07D1013015F4807F02BF67
:10037000013015F4C03F0130F0BC0138704700BFB8
:1003800053B94AB9002908BF00281CBF4FF0FF31FC
:100390004FF0FF3000F074B9ADF1080C6DE904CEF8
:1003A00000F006F8DDF804E0DDE9022304B0704750
:1003B0002DE9F047089D04468E46002B4DD18A4218
:1003C000944669D9B2FA82F252B101FA02F3C2F14B
:1003D000200120FA01F10CFA02FC41EA030E9440DC
:1003E0004FEA1C48210CBEFBF8F61FFA8CF708FBFD
:1003F00016E341EA034306FB07F199420AD91CEBD5
:10040000030306F1FF3080F01F81994240F21C8106
:10041000023E63445B1AA4B2B3FBF8F008FB10334E
:1004200044EA034400FB07F7A7420AD91CEB040483
:1004300000F1FF3380F00A81A74240F20781644453
:10044000023840EA0640E41B00261DB1D4400023D8
:10045000C5E900433146BDE8F0878B4209D9002D3C
:1004600000F0EF800026C5E9000130463146BDE8C6
:10047000F087B3FA83F6002E4AD18B4202D3824230
:1004800000F2F980841A61EB030301209E46002DDF
:10049000E0D0C5E9004EDDE702B9FFDEB2FA82F234
:1004A000002A40F09280A1EB0C014FEA1C471FFA92
:1004B0008CFE0126200CB1FBF7F307FB131140EA79
:1004C00001410EFB03F0884208D91CEB010103F146
:1004D000FF3802D2884200F2CB804346091AA4B208
:1004E000B1FBF7F007FB101144EA01440EFB00FEDC
:1004F000A64508D91CEB040400F1FF3102D2A64541
:1005000000F2BB800846A4EB0E0440EA03409CE7DF
:10051000C6F12007B34022FA07FC4CEA030C20FA8C
:1005200007F401FA06F31C43F9404FEA1C4900FAAC
:1005300006F3B1FBF9F8200C1FFA8CFE09FB181129
:1005400040EA014108FB0EF0884202FA06F20BD99C
:100550001CEB010108F1FF3A80F08880884240F2EC
:100560008580A8F102086144091AA4B2B1FBF9F030
:1005700009FB101144EA014100FB0EFE8E4508D92B
:100580001CEB010100F1FF346CD28E456AD90238B0
:10059000614440EA0840A0FB0294A1EB0E01A14295
:1005A000C846A64656D353D05DB1B3EB080261EB03
:1005B0000E0101FA07F722FA06F3F1401F43C5E9DD
:1005C000007100263146BDE8F087C2F12003D84013
:1005D0000CFA02FC21FA03F3914001434FEA1C4755
:1005E0001FFA8CFEB3FBF7F007FB10360B0C43EA47
:1005F000064300FB0EF69E4204FA02F408D91CEBF7
:10060000030300F1FF382FD29E422DD902386344F4
:100610009B1B89B2B3FBF7F607FB163341EA034194
:1006200006FB0EF38B4208D91CEB010106F1FF38E3
:1006300016D28B4214D9023E6144C91A46EA0046DA
:1006400038E72E46284605E70646E3E61846F8E66C
:100650004B45A9D2B9EB020864EB0C0E0138A3E7B5
:100660004646EAE7204694E74046D1E7D0467BE796
:10067000023B614432E7304609E76444023842E70E
:10068000704700BF80B58CB000AF07F11C0300229B
:100690001A605A609A60DA601A61514BD3F8E03000
:1006A0004F4A43F01003C2F8E0304D4BD3F8E0302E
:1006B00003F01003BB61BB69494BD3F8E030484AF3
:1006C00043F08003C2F8E030454BD3F8E03003F04C
:1006D00080037B617B69424BD3F8E030404A43F0B2
:1006E0000103C2F8E0303E4BD3F8E03003F00103E1
:1006F0003B613B693A4BD3F8E030394A43F002039F
:10070000C2F8E030364BD3F8E03003F00203FB6070
:10071000FB68334BD3F8E030314A43F00803C2F8AA
:10072000E0302F4BD3F8E03003F00803BB60BB6828
:100730002B4BD3F8E0302A4A43F00403C2F8E030F0
:10074000274BD3F8E03003F004037B607B68002282
:100750004FF4A651234802F00DF800224FF4007127
:10076000214802F007F81023FB6100233B620123BC
:100770007B6207F11C0319461C4801F04BFE4FF445
:10078000A053FB6111233B6201237B620023BB6208
:1007900007F11C031946134801F03CFE4FF40073A7
:1007A000FB6101233B6200237B620023BB6207F1F4
:1007B0001C0319460C4801F02DFEC023FB610123E8
:1007C0003B6201237B620123BB6207F11C031946D4
:1007D000044801F01FFE00BF3037BD4680BD00BF9A
:1007E0000044025800040258000802580000025851
:1007F00080B500AF00F0D8FE00F034F8FFF742FFFC
:1008000000F0F8FC00F0AAFC00F0ECF800F09AF917
:1008100000F04CFC00F03EF900F03AFD08F040F822
:10082000642306220B490C4805F0E2FB01220B4928
:10083000094805F06BFC0A4B1B681A4605230A2180
:100840000A2008F037FB6FF07F42FA21E62008F01B
:1008500055FAF0E7BC9C0008B8030020A80000206F
:100860009C00002080B59CB000AF07F124034C220F
:100870000021184608F092FD3B1D20220021184659
:1008800008F08CFD022001F08FFF00233B60314B0C
:10089000DB6A304A23F00103D3622E4BDB6A03F09C
:1008A00001033B602C4B9B6923F440432A4A43F4E9
:1008B00080439361284B9B6903F440433B603B6852
:1008C00000BF254B9B6903F40053B3F5005FF8D1DB
:1008D00001237B624FF48033BB620223BB6402239B
:1008E000FB6405233B6530237B650223BB65032343
:1008F000FB6502233B6608237B660023BB6600235F
:10090000FB6607F12403184601F088FF0346002B1D
:1009100001D000F061F83F237B600323BB6000231C
:10092000FB6000233B6100237B615023BB614FF4DC
:10093000A063FB6100233B623B1D0221184602F0CD
:10094000C7FB0346002B01D000F046F800BF70370C
:10095000BD4680BD000400580048025880B582B0F2
:1009600000AF78607B681B68164A934226D17B688B
:100970001B68596A144B1B785A1CD0B2124A10706B
:100980001A46C9B2114B99540F4B1B78042B0BD14B
:100990000D4B00221A7001220C490D4805F0B6FBE0
:1009A0000C4B01221A6009E0074B1B781A46074BD3
:1009B000134401221946064805F0A8FB00BF08377A
:1009C000BD4680BD00480040A4000020A8000020D3
:1009D000B8030020A000002080B400AF72B600BFB2
:1009E000FEE7000080B500AF284B294A1A60274B6C
:1009F0004FF480025A60254B00229A60234B1F223D
:100A0000DA60224B4FF000721A61204B4FF0807277
:100A10005A611E4B4FF000529A611C4B4FF000522E
:100A2000DA611A4B00221A62184B00225A62174BE5
:100A300000229A62154B0022DA62144B00225A639C
:100A4000124B00229A63114B0022DA630F4B0022F3
:100A50001A640E4B00225A640C4B00229A640B4B12
:100A60000022DA64094B00221A65084B00225A65FD
:100A7000064B00229A65054804F0E2FC0346002B71
:100A800001D0FFF7A9FF00BF80BD00BFAC00002070
:100A90000030014080B500AF284B294A1A60274B2F
:100AA0004FF480025A60254B00229A60234B0722A4
:100AB000DA60224B4FF000721A61204B4FF08072C7
:100AC0005A611E4B4FF080629A611C4B4FF00052EE
:100AD000DA611A4B00221A62184B00225A62174B35
:100AE00000229A62154B0022DA62144B4FF08042CA
:100AF0005A63124B00229A63104B0022DA630F4BA9
:100B000000221A640D4B00225A640C4B00229A6496
:100B10000A4B0022DA64094B00221A65074B0022B7
:100B20005A65064B00229A65044804F089FC034686
:100B3000002B01D0FFF750FF00BF80BD3401002023
:100B4000003C004080B500AF274B284A1A60264B76
:100B50004FF480025A60244B00229A60224B0722F5
:100B6000DA60214B00221A611F4B00225A611E4B92
:100B70004FF000529A611C4B0022DA611A4B00229E
:100B80001A62194B00225A62174B00229A62164BC6
:100B90000022DA62144B4FF080425A63124B00225B
:100BA0009A63114B2022DA630F4B00221A640E4B1A
:100BB00000225A640C4B00229A640B4B0022DA6428
:100BC000094B00221A65084B00225A65064B002289
:100BD0009A65054804F034FC0346002B01D0FFF76A
:100BE000FBFE00BF80BD00BFBC01002000340140FF
:100BF00080B5C0B000AF786007F1EC0300221A6046
:100C00005A609A60DA601A6107F12803C022002155
:100C1000184608F0C3FB7B681B68AB4A93426BD154
:100C20004FF480524FF00003C7E90A230023C7F8AE
:100C3000883007F12803184602F0D6FD0346002B42
:100C400001D0FFF7C9FEA14BD3F8F0309F4A43F41F
:100C50008053C2F8F0309D4BD3F8F03003F480534A
:100C60007B627B6A994BD3F8E030984A43F00103EA
:100C7000C2F8E030954BD3F8E03003F001033B625B
:100C80003B6A924BD3F8E030904A43F00203C2F83B
:100C9000E0308E4BD3F8E03003F00203FB61FB69D8
:100CA00048F2A003C7F8EC300223C7F8F030002365
:100CB000C7F8F4300023C7F8F8300523C7F8FC3034
:100CC00007F1EC031946824801F0A4FB1023C7F892
:100CD000EC300223C7F8F0300023C7F8F4300023CB
:100CE000C7F8F8300523C7F8FC3007F1EC031946C4
:100CF000784801F08FFBE2E07B681B68764A9342FC
:100D00006BD14FF480524FF00003C7E90A23002350
:100D1000C7F8883007F12803184602F065FD03463E
:100D2000002B01D0FFF758FE684BD3F8E830674A34
:100D300043F40043C2F8E830644BD3F8E83003F4DE
:100D40000043BB61BB69614BD3F8E0305F4A43F0BD
:100D50000203C2F8E0305D4BD3F8E03003F0020349
:100D60007B617B69594BD3F8E030584A43F0040368
:100D7000C2F8E030554BD3F8E03003F004033B6198
:100D80003B690423C7F8EC300223C7F8F030002396
:100D9000C7F8F4300023C7F8F8300723C7F8FC3051
:100DA00007F1EC0319464B4801F034FB4FF4406364
:100DB000C7F8EC300223C7F8F0300023C7F8F4304E
:100DC0000023C7F8F8300623C7F8FC3007F1EC031E
:100DD0001946424801F01EFB71E07B681B68404ADF
:100DE00093426CD14FF400524FF00003C7E90A233D
:100DF0000023C7F88C3007F12803184602F0F4FCF2
:100E00000346002B01D0FFF7E7FD304BD3F8F0305D
:100E10002E4A43F40053C2F8F0302C4BD3F8F03094
:100E200003F40053FB60FB68284BD3F8E030274AFB
:100E300043F01003C2F8E030244BD3F8E03003F065
:100E40001003BB60BB6845F62003C7F8EC300223F3
:100E5000C7F8F0300023C7F8F4300023C7F8F830A3
:100E60000523C7F8FC3007F1EC0319461D4801F0D3
:100E7000D1FA4FF40043C7F8EC300123C7F8F03043
:100E80000023C7F8F4300023C7F8F83007F1EC036B
:100E90001946154801F0BEFA4FF40043C7F8EC308C
:100EA0000123C7F8F0300023C7F8F4300023C7F857
:100EB000F83007F1EC0319460A4801F0ABFA00BF1D
:100EC00007F58077BD4680BD0030014000440258E0
:100ED0000000025800040258003C0040000802587C
:100EE0000034014000100258000C025880B483B056
:100EF00000AF0A4BD3F8F430084A43F00203C2F8BB
:100F0000F430064BD3F8F43003F002037B607B68C7
:100F100000BF0C37BD465DF8047B704700440258A3
:100F200080B400AFFEE780B400AFFEE780B400AF4E
:100F3000FEE780B400AFFEE780B400AFFEE780B408
:100F400000AF00BFBD465DF8047B704780B400AFC2
:100F500000BFBD465DF8047B704780B400AF00BFA2
:100F6000BD465DF8047B704780B500AF00F08EFB96
:100F700000BF80BD80B500AF024805F013F900BF87
:100F800080BD00BF2403002080B500AF024805F0FB
:100F900009F900BF80BD00BFB803002080B400AFD6
:100FA000374BD3F88830364A43F47003C2F88830A0
:100FB000344B1B6803F00F03062B07D8314B1B681B
:100FC00023F00F032F4A43F0070313602E4B1B68D7
:100FD0002D4A43F0010313602B4B00221A612A4B68
:100FE0001A682949294B13400B60264B1B6803F0F4
:100FF0000803002B07D0234B1B6823F00F03214A63
:1010000043F007031360204B00229A611E4B00221D
:10101000DA611D4B00221A621B4B1D4A9A621A4B61
:101020001C4ADA62184B1C4A1A63174B00225A6397
:10103000154B194A9A63144B0022DA63124B164A75
:101040001A64114B00225A640F4B1B680E4A23F49A
:10105000802313600C4B00221A66104B1A68104B49
:101060001340B3F1005F02D20E4B01221A600E4B07
:1010700043F2D2021A6000BFBD465DF8047B7047A0
:1010800000ED00E000200052004402587FEDF6EA37
:10109000000202020000FF01800201010010005C5A
:1010A0000000FFFF088100510040005280B584B06D
:1010B00000AF3B1D00221A605A609A60144B154A1B
:1010C0001A60134B00225A60114B00229A60104B99
:1010D0003B22DA600E4B00229A610D4804F0B9FD04
:1010E0000346002B01D0FFF777FC20237B60002311
:1010F000FB603B1D1946064804F09CFE0346002B8E
:1011000001D0FFF769FC00BF1037BD4680BD00BFAE
:10111000440200200010004080B485B000AF786029
:101120007B681B680B4A93420ED10B4BD3F8E83017
:10113000094A43F01003C2F8E830074BD3F8E8300F
:1011400003F01003FB60FB6800BF1437BD465DF879
:10115000047B7047001000400044025880B500AF87
:10116000224B234A1A60214B4FF4E1325A601F4B45
:1011700000229A601D4B0022DA601C4B00221A618B
:101180001A4B0C225A61194B00229A61174B00220C
:10119000DA61164B00221A62144B00225A62134B7A
:1011A00000229A62114804F0D3FE0346002B01D0BE
:1011B000FFF712FC00210D4807F027FA0346002B29
:1011C00001D0FFF709FC0021084807F05CFA03464C
:1011D000002B01D0FFF700FC044807F0DDF90346BF
:1011E000002B01D0FFF7F8FB00BF80BD900200206C
:1011F0000010014080B500AF224B234A1A60214BFA
:10120000224A5A601F4B00229A601E4B0022DA606D
:101210001C4B00221A611B4B0C225A61194B0022F5
:101220009A61184B0022DA61164B00221A62154BA4
:1012300000225A62134B00229A62124804F088FE80
:101240000346002B01D0FFF7C7FB00210D4807F034
:10125000DCF90346002B01D0FFF7BEFB0021094853
:1012600007F011FA0346002B01D0FFF7B5FB054844
:1012700007F092F90346002B01D0FFF7ADFB00BF4A
:1012800080BD00BF2403002000440040F04902005C
:1012900080B500AF224B234A1A60214B4FF41652FF
:1012A0005A601F4B00229A601D4B0022DA601C4BD3
:1012B00000221A611A4B0C225A61194B00229A61C2
:1012C000174B0022DA61164B00221A62144B0022DF
:1012D0005A62134B00229A62114804F039FE034609
:1012E000002B01D0FFF778FB00210D4807F08DF9A6
:1012F0000346002B01D0FFF76FFB0021084807F0E1
:10130000C2F90346002B01D0FFF766FB044807F043
:1013100043F90346002B01D0FFF75EFB00BF80BD01
:10132000B80300200048004080B5C0B000AF78602E
:1013300007F1EC0300221A605A609A60DA601A61C1
:1013400007F12803C0220021184608F027F87B681F
:101350001B688E4A934247D14FF001024FF00003C1
:10136000C7E90A230023C7F8A43007F12803184669
:1013700002F03AFA0346002B01D0FFF72DFB844B15
:10138000D3F8F030824A43F01003C2F8F030804BBB
:10139000D3F8F03003F010037B627B6A7C4BD3F808
:1013A000E0307B4A43F00103C2F8E030784BD3F8D9
:1013B000E03003F001033B623B6A4FF4C063C7F8BF
:1013C000EC300223C7F8F0300023C7F8F4300023D4
:1013D000C7F8F8300723C7F8FC3007F1EC031946CB
:1013E0006C4801F017F8CCE07B681B686A4A9342AE
:1013F0004ED14FF002024FF00003C7E90A23002349
:10140000C7F8A03007F12803184602F0EDF90346AB
:10141000002B01D0FFF7E0FA5D4BD3F8E8305C4ACF
:1014200043F40033C2F8E830594BD3F8E83003F402
:101430000033FB61FB69564BD3F8E030544A43F06C
:101440000103C2F8E030524BD3F8E03003F001035F
:10145000BB61BB690C23C7F8EC300223C7F8F0303E
:101460000023C7F8F4300023C7F8F8300723C7F883
:10147000FC3007F1EC031946464800F0CBFF002290
:101480000021262000F02DFA262000F044FA78E012
:101490007B681B68414A934273D14FF002024FF0C0
:1014A0000003C7E90A230023C7F8A03007F1280387
:1014B000184602F099F90346002B01D0FFF78CFA89
:1014C000334BD3F8E830324A43F48023C2F8E83093
:1014D0002F4BD3F8E83003F480237B617B692C4BDE
:1014E000D3F8E0302A4A43F00203C2F8E030284B38
:1014F000D3F8E03003F002033B613B69244BD3F89F
:10150000E030234A43F00803C2F8E030204BD3F820
:10151000E03003F00803FB60FB684FF40063C7F89A
:10152000EC300223C7F8F0300023C7F8F430002372
:10153000C7F8F8300723C7F8FC3007F1EC03194669
:10154000174800F067FF4FF48073C7F8EC300223B0
:10155000C7F8F0300023C7F8F4300023C7F8F8309C
:101560000723C7F8FC3007F1EC0319460D4800F0DB
:1015700051FF00220021272000F0B3F9272000F0BE
:10158000CAF900BF07F58077BD4680BD0010014055
:101590000044025800000258004400400048004047
:1015A00000040258000C025880B582B000AF03203E
:1015B00000F08CF901F042FF0246154B9B691B0AB3
:1015C00003F00F031349CB5C03F01F0322FA03F36C
:1015D0007B600F4B9B6903F00F030E4AD35C03F053
:1015E0001F037A6822FA03F30B4A13600B4A7B68E5
:1015F00013600F2000F014F80346002B01D00123E4
:1016000002E0FFF773FC002318460837BD4680BD93
:1016100000440258E09C0008040000200000002064
:1016200080B582B000AF7860154B1B78002B01D1DC
:10163000012321E0134B1A68114B1B7819464FF414
:101640007A73B3FBF1F3B2FBF3F3184600F071F9D0
:101650000346002B01D001230EE07B680F2B0AD834
:10166000002279684FF0FF3000F03BF9064A7B68B2
:101670001360002300E0012318460837BD4680BDF3
:101680000C000020000000200800002080B400AF03
:10169000064B1B781A46064B1B681344044A13601A
:1016A00000BFBD465DF8047B704700BF0C00002002
:1016B0004C04002080B400AF034B1B681846BD46A5
:1016C0005DF8047B704700BF4C04002080B584B0F7
:1016D00000AF7860FFF7EEFFB8607B68FB60FB68E7
:1016E000B3F1FF3F05D00A4B1B781A46FB68134441
:1016F000FB6000BFFFF7DEFF0246BB68D31AFA6843
:101700009A42F7D800BF00BF1037BD4680BD00BF6A
:101710000C00002080B400AF034B1B681B0C184664
:10172000BD465DF8047B70470010005C80B485B056
:1017300000AF78607B6803F00703FB600B4BDB684E
:10174000BB60BA684FF6FF031340BB60FB681A0228
:10175000BB681A43064B1343BB60044ABB68D360A3
:1017600000BF1437BD465DF8047B704700ED00E014
:101770000000FA0580B400AF044BDB681B0A03F0DD
:1017800007031846BD465DF8047B704700ED00E096
:1017900080B483B000AF0346FB80B7F90630002B5E
:1017A0000BDBFB8803F01F020749B7F906305B0922
:1017B000012000FA02F241F8232000BF0C37BD4699
:1017C0005DF8047B704700BF00E100E080B483B0A7
:1017D00000AF03463960FB80B7F90630002B0ADB07
:1017E0003B68DAB20C49B7F906301201D2B20B44A9
:1017F00083F800230AE03B68DAB20849FB8803F06B
:101800000F03043B1201D2B20B441A7600BF0C370F
:10181000BD465DF8047B704700E100E000ED00E0AC
:1018200080B489B000AFF860B9607A60FB6803F0FB
:101830000703FB61FB69C3F10703042B28BF0423E3
:10184000BB61FB690433062B02D9FB69033B00E053
:1018500000237B614FF0FF32BB6902FA03F3DA43E6
:10186000BB681A407B699A404FF0FF317B6901FAEF
:1018700003F3D9437B680B40134318462437BD4616
:101880005DF8047B7047000080B582B000AF7860DF
:101890007B68013BB3F1807F01D301230FE00A4A4B
:1018A0007B68013B53600F214FF0FF30FFF78EFF45
:1018B000054B00229A60044B07221A600023184649
:1018C0000837BD4680BD00BF10E000E080B582B0A3
:1018D00000AF78607868FFF729FF00BF0837BD4682
:1018E00080BD80B586B000AF0346B9607A60FB81E9
:1018F000FFF740FF78617A68B9687869FFF790FF71
:101900000246B7F90E3011461846FFF75FFF00BFD9
:101910001837BD4680BD80B582B000AF0346FB805E
:10192000B7F906301846FFF733FF00BF0837BD464A
:1019300080BD80B582B000AF78607868FFF7A4FF03
:10194000034618460837BD4680BD000080B586B006
:1019500000AF7860FFF7AEFE38617B68002B01D1E5
:101960000123DCE27B6893F83530DBB2022B08D030
:101970007B6880225A657B68002283F8342001232B
:10198000CDE27B681B68764A93424AD07B681B682D
:10199000744A934245D07B681B68734A934240D097
:1019A0007B681B68714A93423BD07B681B68704A16
:1019B000934236D07B681B686E4A934231D07B6875
:1019C0001B686D4A93422CD07B681B686B4A93421C
:1019D00027D07B681B686A4A934222D07B681B68C9
:1019E000684A93421DD07B681B68674A934218D0AF
:1019F0007B681B68654A934213D07B681B68644A06
:101A000093420ED07B681B68624A934209D07B6880
:101A10001B68614A934204D07B681B685F4A93420B
:101A200001D1012300E00023002B13D07B681B6849
:101A30001A687B681B6822F01E021A607B681B68AC
:101A40005A697B681B6822F080025A617B681B68B8
:101A50007B610AE07B681B681A687B681B6822F060
:101A60000E021A607B681B687B617B681B683C4ABE
:101A7000934272D07B681B683A4A93426DD07B6870
:101A80001B68394A934268D07B681B68374A934287
:101A900063D07B681B68364A93425ED07B681B68C4
:101AA000344A934259D07B681B68334A934254D0DE
:101AB0007B681B68314A93424FD07B681B68304A71
:101AC00093424AD07B681B682E4A934245D07B687C
:101AD0001B682D4A934240D07B681B682B4A934277
:101AE0003BD07B681B682A4A934236D07B681B68D0
:101AF000284A934231D07B681B68274A93422CD0F6
:101B00007B681B68254A934227D07B681B68244A60
:101B1000934222D07B681B68224A93421DD07B6887
:101B20001B68214A934218D07B681B681F4A934266
:101B300013D07B681B681E4A93420ED07B681B68DB
:101B40001C4A934209D07B681B681B4A934204D00D
:101B50007B681B68194A934232D1012331E000BFF0
:101B6000100002402800024040000240580002409D
:101B70007000024088000240A0000240B80002400D
:101B8000100402402804024040040240580402406D
:101B90007004024088040240A0040240B8040240DD
:101BA000085402581C5402583054025844540258E5
:101BB000585402586C540258805402589454025895
:101BC0000023002B07D07B681B6E1A687B681B6E96
:101BD00022F480721A607B681B686D4A93424AD077
:101BE0007B681B686B4A934245D07B681B686A4AD6
:101BF000934240D07B681B68684A93423BD07B6825
:101C00001B68674A934236D07B681B68654A9342DB
:101C100031D07B681B68644A93422CD07B681B6878
:101C2000624A934227D07B681B68614A934222D064
:101C30007B681B685F4A93421DD07B681B685E4AC5
:101C4000934218D07B681B685C4A934213D07B6830
:101C50001B685B4A93420ED07B681B68594A9342CB
:101C600009D07B681B68584A934204D07B681B6884
:101C7000564A934208D17B681B681A687B681B68C8
:101C800022F001021A6007E07B681B681A687B6813
:101C90001B6822F001021A6013E0FFF70BFD0246F9
:101CA0003B69D31A052B0CD97B6820225A657B68C7
:101CB000032283F835207B68002283F83420012337
:101CC0002DE17B691B6803F00103002BE5D17B68E4
:101CD0001B682F4A93424AD07B681B682D4A934267
:101CE00045D07B681B682C4A934240D07B681B68B8
:101CF0002A4A93423BD07B681B68294A934236D0DC
:101D00007B681B68274A934231D07B681B68264A50
:101D100093422CD07B681B68244A934227D07B686F
:101D20001B68234A934222D07B681B68214A934256
:101D30001DD07B681B68204A934218D07B681B68C3
:101D40001E4A934213D07B681B681D4A93420ED0F3
:101D50007B681B681B4A934209D07B681B681A4A40
:101D6000934204D07B681B68184A934201D1012337
:101D700000E00023002B2BD07B689B6DBB607B6851
:101D8000DB6D03F01F033F229A40BB689A602AE094
:101D9000100002402800024040000240580002406B
:101DA0007000024088000240A0000240B8000240DB
:101DB000100402402804024040040240580402403B
:101DC0007004024088040240A0040240B8040240AB
:101DD0007B689B6DFB607B68DB6D03F01F0301225A
:101DE0009A40FB685A607B681B684F4A934272D0E6
:101DF0007B681B684D4A93426DD07B681B684C4AD8
:101E0000934268D07B681B684A4A934263D07B68E0
:101E10001B68494A93425ED07B681B68474A9342DD
:101E200059D07B681B68464A934254D07B681B6834
:101E3000444A93424FD07B681B68434A93424AD03E
:101E40007B681B68414A934245D07B681B68404AC7
:101E5000934240D07B681B683E4A93423BD07B68EC
:101E60001B683D4A934236D07B681B683B4A9342CD
:101E700031D07B681B683A4A93422CD07B681B6840
:101E8000384A934227D07B681B68374A934222D056
:101E90007B681B68354A93421DD07B681B68344AB7
:101EA000934218D07B681B68324A934213D07B68F8
:101EB0001B68314A93420ED07B681B682F4A9342BD
:101EC00009D07B681B682E4A934204D07B681B684C
:101ED0002C4A934201D1012300E00023002B15D0AE
:101EE0007B685B6E7A68926E5A607B68DB6E002B53
:101EF0000CD07B68DB6E1A687B68DB6E22F4807224
:101F00001A607B681B6F7A68526F5A607B68012287
:101F100083F835207B68002283F83420002318469C
:101F20001837BD4680BD00BF1000024028000240A7
:101F30004000024058000240700002408800024009
:101F4000A0000240B80002401004024028040240F1
:101F500040040240580402407004024088040240D9
:101F6000A0040240B8040240085402581C5402580D
:101F70003054025844540258585402586C54025871
:101F8000805402589454025880B584B000AF7860F1
:101F90007B68002B01D1012337E27B6893F8353051
:101FA000DBB2022B04D07B6880225A6501232CE22D
:101FB0007B681B685C4A93424AD07B681B685B4A1B
:101FC000934245D07B681B68594A934240D07B6856
:101FD0001B68584A93423BD07B681B68564A934221
:101FE00036D07B681B68554A934231D07B681B68AA
:101FF000534A93422CD07B681B68524A934227D0A5
:102000007B681B68504A934222D07B681B684F4A0A
:1020100093421DD07B681B684D4A934218D07B6861
:102020001B684C4A934213D07B681B684A4A934210
:102030000ED07B681B68494A934209D07B681B68B5
:10204000474A934204D07B681B68464A934201D1B9
:10205000012300E00023002B00F086807B6804222F
:1020600083F835207B681B682F4A93424AD07B68EF
:102070001B682E4A934245D07B681B682C4A9342CA
:1020800040D07B681B682B4A93423BD07B681B681F
:10209000294A934236D07B681B68284A934231D044
:1020A0007B681B68264A93422CD07B681B68254AB4
:1020B000934227D07B681B68234A934222D07B68D7
:1020C0001B68224A93421DD07B681B68204A9342BA
:1020D00018D07B681B681F4A934213D07B681B682B
:1020E0001D4A93420ED07B681B681C4A934209D05C
:1020F0007B681B681A4A934204D07B681B68194AA4
:10210000934208D17B681B681A687B681B6822F0C1
:1021100001021A6078E17B681B681A687B681B689B
:1021200022F001021A606FE1100002402800024014
:102130004000024058000240700002408800024007
:10214000A0000240B80002401004024028040240EF
:1021500040040240580402407004024088040240D7
:10216000A0040240B80402407B681B681A687B68C0
:102170001B6822F00E021A607B681B686C4A93424F
:102180004AD07B681B686B4A934245D07B681B68CA
:10219000694A934240D07B681B68684A93423BD0AF
:1021A0007B681B68664A934236D07B681B68654A29
:1021B000934231D07B681B68634A93422CD07B6882
:1021C0001B68624A934227D07B681B68604A93422F
:1021D00022D07B681B685F4A93421DD07B681B68D6
:1021E0005D4A934218D07B681B685C4A934213D0C7
:1021F0007B681B685A4A93420ED07B681B68594A19
:10220000934209D07B681B68574A934204D07B688D
:102210001B68564A934208D17B681B681A687B6822
:102220001B6822F001021A6007E07B681B681A68CD
:102230007B681B6822F001021A607B681B683C4ABD
:10224000934272D07B681B683A4A93426DD07B6898
:102250001B68394A934268D07B681B68374A9342AF
:1022600063D07B681B68364A93425ED07B681B68EC
:10227000344A934259D07B681B68334A934254D006
:102280007B681B68314A93424FD07B681B68304A99
:1022900093424AD07B681B682E4A934245D07B68A4
:1022A0001B682D4A934240D07B681B682B4A93429F
:1022B0003BD07B681B682A4A934236D07B681B68F8
:1022C000284A934231D07B681B68274A93422CD01E
:1022D0007B681B68254A934227D07B681B68244A89
:1022E000934222D07B681B68224A93421DD07B68B0
:1022F0001B68214A934218D07B681B681F4A93428F
:1023000013D07B681B681E4A93420ED07B681B6803
:102310001C4A934209D07B681B681B4A934204D035
:102320007B681B68194A934232D1012331E000BF18
:1023300010000240280002404000024058000240C5
:102340007000024088000240A0000240B800024035
:102350001004024028040240400402405804024095
:102360007004024088040240A0040240B804024005
:10237000085402581C54025830540258445402580D
:10238000585402586C5402588054025894540258BD
:102390000023002B28D07B681B6E1A687B681B6E9D
:1023A00022F480721A607B689B6DFB607B68DB6D3A
:1023B00003F01F0301229A40FB685A607B685B6E42
:1023C0007A68926E5A607B68DB6E002B0CD07B685B
:1023D000DB6E1A687B68DB6E22F480721A607B68A1
:1023E0001B6F7A68526F5A607B68012283F8352030
:1023F0007B68002283F834207B681B6D002B03D0A0
:102400007B681B6D78689847002318461037BD46D7
:1024100080BD00BF80B489B000AF78603960002310
:10242000FB61894B7B6194E13B681A680121FB6980
:1024300001FA03F313403B613B69002B00F08681F6
:102440003B685B6803F00303012B05D03B685B68C6
:1024500003F00303022B30D17B689B68BB61FB69EF
:102460005B00032202FA03F3DB43BA691340BB614A
:102470003B68DA68FB695B0002FA03F3BA6913434D
:10248000BB617B68BA699A607B685B68BB6101224B
:10249000FB6902FA03F3DB43BA691340BB613B6893
:1024A0005B681B0903F00102FB6902FA03F3BA69D6
:1024B0001343BB617B68BA695A603B685B6803F091
:1024C0000303032B17D07B68DB68BB61FB695B00F0
:1024D000032202FA03F3DB43BA691340BB613B6892
:1024E0009A68FB695B0002FA03F3BA691343BB61A4
:1024F0007B68BA69DA603B685B6803F00303022B10
:1025000023D1FB69DA087B68083253F82230BB61BB
:10251000FB6903F007039B000F2202FA03F3DB437E
:10252000BA691340BB613B681A69FB6903F0070392
:102530009B0002FA03F3BA691343BB61FB69DA0833
:102540007B680832B96943F822107B681B68BB615D
:10255000FB695B00032202FA03F3DB43BA69134011
:10256000BB613B685B6803F00302FB695B0002FA36
:1025700003F3BA691343BB617B68BA691A603B68AD
:102580005B6803F44033002B00F0E0802F4BD3F85E
:10259000F4302E4A43F00203C2F8F4302B4BD3F848
:1025A000F43003F00203FB60FB68294AFB699B08D7
:1025B000023352F82330BB61FB6903F003039B0035
:1025C0000F2202FA03F3DB43BA691340BB617B6855
:1025D000204A934252D07B681F4A934231D07B6895
:1025E0001E4A93422BD07B681D4A934225D07B68BC
:1025F0001C4A93421FD07B681B4A934219D07B68C8
:102600001A4A934213D07B68194A93420DD07B68D3
:10261000184A934207D07B68174A934201D1092395
:102620002DE00A232BE0082329E0072327E00623D7
:1026300025E0052323E0042321E003231FE00223F8
:102640001DE001231BE000BF800000580044025839
:102650000004005800000258000402580008025804
:10266000000C0258001002580014025800180258BA
:10267000001C025800200258002402580023FA6966
:1026800002F0030292009340BA691343BB613849D8
:10269000FB699B080233BA6941F823204FF0B0432D
:1026A0001B68BB613B69DB43BA691340BB613B6894
:1026B0005B6803F48013002B03D0BA693B691343B2
:1026C000BB614FF0B042BB6913604FF0B0435B6831
:1026D000BB613B69DB43BA691340BB613B685B6824
:1026E00003F40013002B03D0BA693B691343BB61A9
:1026F0004FF0B042BB6953607B695B68BB613B696B
:10270000DB43BA691340BB613B685B6803F4003389
:10271000002B03D0BA693B691343BB617B69BA697B
:102720005A607B691B68BB613B69DB43BA69134034
:10273000BB613B685B6803F48033002B03D0BA694C
:102740003B691343BB617B69BA691A60FB6901335A
:10275000FB613B681A68FB6922FA03F3002B7FF4E4
:1027600063AE00BF00BF2437BD465DF8047B7047F1
:102770000004005880B483B000AF78600B467B80C3
:1027800013467B707B78002B03D07A887B689A6134
:1027900003E07B881A047B689A6100BF0C37BD4652
:1027A0005DF8047B7047000080B584B000AF7860AE
:1027B000194BDB6803F00403042B0AD0164BDB68CB
:1027C00003F007037A689A4201D001231FE0002337
:1027D0001DE0114BDB6823F007020F497B681343B0
:1027E000CB60FEF767FFF86009E0FEF763FF024683
:1027F000FB68D31AB3F57A7F01D9012307E0064BB2
:102800005B6803F40053B3F5005FEED10023184674
:102810001037BD4680BD00BF0048025880B58CB05F
:1028200000AF78607B68002B02D1012300F048BC28
:102830007B681B6803F00103002B00F08880994B34
:102840001B6903F03803FB62964B9B6ABB62FB6A11
:10285000102B07D0FB6A182B11D1BB6A03F00303BE
:10286000022B0CD18F4B1B6803F40033002B6DD06F
:102870007B685B68002B69D1012300F021BC7B6879
:102880005B68B3F5803F06D1864B1B68854A43F4ED
:10289000803313602EE07B685B68002B0CD1814B8A
:1028A0001B68804A23F4803313607E4B1B687D4A8B
:1028B00023F4802313601DE07B685B68B3F5A02FD1
:1028C0000CD1784B1B68774A43F480231360754B17
:1028D0001B68744A43F4803313600BE0714B1B6830
:1028E000704A23F4803313606E4B1B686D4A23F4E7
:1028F000802313607B685B68002B13D0FEF7DAFE41
:10290000786208E0FEF7D6FE02467B6AD31A642B93
:1029100001D90323D4E3634B1B6803F40033002B7A
:10292000F0D014E0FEF7C6FE786208E0FEF7C2FEC3
:1029300002467B6AD31A642B01D90323C0E3594BA7
:102940001B6803F40033002BF0D100E000BF7B686C
:102950001B6803F00203002B00F0CA80514B1B6977
:1029600003F038033B624F4B9B6AFB613B6A002BD1
:1029700007D03B6A182B56D1FB6903F00303002BE9
:1029800051D1484B1B6803F00403002B05D07B6832
:10299000DB68002B01D1012392E3424B1B6823F03B
:1029A00019027B68DB683F4913430B60FEF782FE28
:1029B000786208E0FEF77EFE02467B6AD31A022B9D
:1029C00001D903237CE3374B1B6803F00403002B7E
:1029D000F0D0FEF79FFE034641F20302934217D860
:1029E0007B681B69402B08D12E4B5B6823F47C333A
:1029F0002C4A43F4003353607AE02A4B5B6823F49B
:102A00007C327B681B691B03264913434B606FE0D4
:102A1000244B5B6823F0FE427B681B691B0621493F
:102A200013434B6064E07B68DB68002B47D01D4B91
:102A30001B6823F019027B68DB681A4913430B609B
:102A4000FEF738FE786208E0FEF734FE02467B6A45
:102A5000D31A022B01D9032332E3124B1B6803F074
:102A60000403002BF0D0FEF755FE034641F20302AB
:102A7000934219D87B681B69402B08D1094B5B68CE
:102A800023F47C33074A43F40033536030E0054BB2
:102A90005B6823F47C327B681B691B030149134389
:102AA0004B6025E0004402589A4B5B6823F0FE42DD
:102AB0007B681B691B06974913434B6018E0954BD5
:102AC0001B68944A23F001031360FEF7F3FD78625C
:102AD00008E0FEF7EFFD02467B6AD31A022B01D90C
:102AE0000323EDE28B4B1B6803F00403002BF0D1B2
:102AF0007B681B6803F01003002B00F0A980854B56
:102B00001B6903F03803BB61824B9B6A7B61BB6925
:102B1000082B07D0BB69182B3AD17B6903F003035C
:102B2000012B35D17B4B1B6803F48073002B05D040
:102B30007B68DB69802B01D00123C1E2FEF7EAFD4F
:102B4000034641F20302934217D87B681B6A202B8D
:102B500008D1704B5B6823F0F8436E4A43F0804322
:102B6000536075E06B4B5B6823F0F8427B681B6A2F
:102B70009B06684913434B606AE0664BDB6823F0B1
:102B80007C527B681B6A1B0662491343CB605FE083
:102B90007B68DB69002B42D05E4B1B685D4A43F0CB
:102BA00080031360FEF786FD786208E0FEF782FD81
:102BB00002467B6AD31A022B01D9032380E2554BCC
:102BC0001B6803F48073002BF0D0FEF7A3FD0346CF
:102BD00041F20302934217D87B681B6A202B08D16D
:102BE0004C4B5B6823F0F8434A4A43F08043536000
:102BF0002EE0484B5B6823F0F8427B681B6A9B061B
:102C0000444913434B6023E0424BDB6823F07C5282
:102C10007B681B6A1B063F491343CB6018E03D4BA2
:102C20001B683C4A23F080031360FEF743FD786283
:102C300008E0FEF73FFD02467B6AD31A022B01D95A
:102C400003233DE2334B1B6803F48073002BF0D168
:102C50007B681B6803F00803002B36D07B685B6938
:102C6000002B19D02B4B5B6F2A4A43F001035367AB
:102C7000FEF720FD786208E0FEF71CFD02467B6A45
:102C8000D31A022B01D903231AE2224B5B6F03F004
:102C90000203002BF0D018E01E4B5B6F1D4A23F09F
:102CA00001035367FEF706FD786208E0FEF702FDB8
:102CB00002467B6AD31A022B01D9032300E2154B8B
:102CC0005B6F03F00203002BF0D17B681B6803F0FD
:102CD0002003002B39D07B689B69002B1CD00D4B47
:102CE0001B680C4A43F480531360FEF7E3FC7862E0
:102CF00008E0FEF7DFFC02467B6AD31A022B01D9FB
:102D00000323DDE1034B1B6803F40053002BF0D0D9
:102D10001BE000BF004402589B4B1B689A4A23F4F7
:102D200080531360FEF7C6FC786208E0FEF7C2FC31
:102D300002467B6AD31A022B01D90323C0E1924BCE
:102D40001B6803F40053002BF0D17B681B6803F071
:102D50000403002B00F081808C4B1B688B4A43F4EA
:102D600080731360FEF7A6FC786208E0FEF7A2FC11
:102D700002467B6AD31A642B01D90323A0E1834B5B
:102D80001B6803F48073002BF0D07B689B68012BD9
:102D900006D17D4B1B6F7C4A43F0010313672DE086
:102DA0007B689B68002B0CD1774B1B6F764A23F016
:102DB00001031367744B1B6F734A23F004031367FB
:102DC0001CE07B689B68052B0CD16F4B1B6F6E4A18
:102DD00043F0040313676C4B1B6F6B4A43F0010312
:102DE00013670BE0684B1B6F674A23F001031367FF
:102DF000654B1B6F644A23F0040313677B689B6871
:102E0000002B15D0FEF756FC78620AE0FEF752FC64
:102E100002467B6AD31A41F28832934201D90323D6
:102E20004EE1594B1B6F03F00203002BEED014E070
:102E3000FEF740FC78620AE0FEF73CFC02467B6A43
:102E4000D31A41F28832934201D9032338E14E4B21
:102E50001B6F03F00203002BEED17B685B6A002B33
:102E600000F02D81484B1B6903F03803182B00F04C
:102E7000BD807B685B6A022B40F09E80424B1B68E2
:102E8000414A23F080731360FEF714FC786208E077
:102E9000FEF710FC02467B6AD31A022B01D90323EA
:102EA0000EE1394B1B6803F00073002BF0D1364B59
:102EB0009A6A374B13407A68916A7A68D26A12012B
:102EC0000A43314913438B627B681B6B013BC3F39D
:102ED00008027B685B6B013B5B029BB21A437B6819
:102EE0009B6B013B1B0403F4FE031A437B68DB6B03
:102EF000013B1B0603F0FE43234913430B63224BA4
:102F0000DB6A214A23F00103D3621F4B5A6B214B2A
:102F100013407A68926CD2001B4913434B631A4BDF
:102F2000DB6A23F00C027B681B6C17491343CB62EE
:102F3000154BDB6A23F002027B685B6C124913437A
:102F4000CB62114BDB6A104A43F48033D3620E4BE1
:102F5000DB6A0D4A43F40033D3620B4BDB6A0A4A47
:102F600043F48023D362084BDB6A074A43F0010332
:102F7000D362054B1B68044A43F080731360FEF76D
:102F800099FB786211E000BF0044025800480258E3
:102F90000CFCFFFF0700FFFFFEF78CFB02467B6A7D
:102FA000D31A022B01D903238AE0474B1B6803F095
:102FB0000073002BF0D082E0434B1B68424A23F0A1
:102FC00080731360FEF776FB786208E0FEF772FB11
:102FD00002467B6AD31A022B01D9032370E03A4BD5
:102FE0001B6803F00073002BF0D168E0364B9B6A3E
:102FF0003B61354B1B6BFB607B685B6A012B31D0FF
:103000003B6903F003027B689B6A9A422AD13B69C1
:103010001B0903F03F027B68DB6A9A4222D1FB68FE
:10302000C3F308027B681B6B013B9A421AD1FB6811
:103030005B0A03F07F027B685B6B013B9A4211D114
:10304000FB681B0C03F07F027B689B6B013B9A4281
:1030500008D1FB681B0E03F07F027B68DB6B013B32
:103060009A4201D001232BE0174B5B6BDB08C3F3C3
:103070000C033B617B689B6C3A699A421FD0124BF0
:10308000DB6A114A23F00103D362FEF713FB786277
:1030900000BFFEF70FFB02467B6A9342F9D00A4B52
:1030A0005A6B0A4B13407A68926CD200064913435C
:1030B0004B63054BDB6A044A43F00103D3620023F0
:1030C00018463037BD4680BD004402580700FFFF58
:1030D00080B586B000AF786039607B68002B01D185
:1030E00001239CE18A4B1B6803F00F033A689A4264
:1030F00010D9874B1B6823F00F0285493B681343A7
:103100000B60834B1B6803F00F033A689A4201D0AF
:10311000012384E17B681B6803F00403002B10D0BB
:103120007B681A697B4B9B6903F070039A4208D94C
:10313000784B9B6923F070027B681B6975491343C8
:103140008B617B681B6803F00803002B10D07B6841
:103150005A69704BDB6903F070039A4208D96D4BD2
:10316000DB6923F070027B685B696A491343CB61BA
:103170007B681B6803F01003002B10D07B689A69F2
:10318000644BDB6903F4E0639A4208D9614BDB6965
:1031900023F4E0627B689B695E491343CB617B68E3
:1031A0001B6803F02003002B10D07B68DA69594BB1
:1031B0001B6A03F070039A4208D9564B1B6A23F02E
:1031C00070027B68DB69534913430B627B681B68A1
:1031D00003F00203002B10D07B68DA684D4B9B692B
:1031E00003F00F039A4208D94A4B9B6923F00F0260
:1031F0007B68DB68474913438B617B681B6803F07E
:103200000103002B55D0434B9B6923F470627B680C
:103210009B68404913438B617B685B68022B07D135
:103220003C4B1B6803F40033002B21D10123F6E053
:103230007B685B68032B07D1364B1B6803F0007378
:10324000002B15D10123EAE07B685B68012B07D1D5
:10325000304B1B6803F48073002B09D10123DEE09F
:103260002C4B1B6803F00403002B01D10123D6E093
:10327000284B1B6923F007027B685B6825491343D1
:103280000B61FEF717FA78610AE0FEF713FA0246BF
:103290007B69D31A41F28832934201D90323BEE0FD
:1032A0001C4B1B6903F038027B685B68DB009A42A9
:1032B000EBD17B681B6803F00203002B10D07B6806
:1032C000DA68144B9B6903F00F039A4208D2114B42
:1032D0009B6923F00F027B68DB680E4913438B6107
:1032E0000B4B1B6803F00F033A689A4214D2084B49
:1032F0001B6823F00F0206493B6813430B60044B25
:103300001B6803F00F033A689A4205D0012386E058
:1033100000200052004402587B681B6803F004033D
:10332000002B10D07B681A693F4B9B6903F0700338
:103330009A4208D23C4B9B6923F070027B681B6960
:10334000394913438B617B681B6803F00803002B2A
:1033500010D07B685A69344BDB6903F070039A42E2
:1033600008D2314BDB6923F070027B685B692E4920
:103370001343CB617B681B6803F01003002B10D054
:103380007B689A69284BDB6903F4E0639A4208D2B0
:10339000254BDB6923F4E0627B689B692249134378
:1033A000CB617B681B6803F02003002B10D07B6887
:1033B000DA691D4B1B6A03F070039A4208D21A4B5C
:1033C0001B6A23F070027B68DB69174913430B62A9
:1033D00000F034F80246144B9B691B0A03F00F03FC
:1033E0001249CB5C03F01F0322FA03F33B610E4B3F
:1033F0009B6903F00F030D4AD35C03F01F033A6986
:1034000022FA03F30A4A13600A4A3B6913600A4B23
:103410001B681846FEF704F90346FB73FB7B18464E
:103420001837BD4680BD00BF00440258E09C00082C
:1034300004000020000000200800002080B489B0B3
:1034400000AFB34B1B6903F03803182B00F2558112
:1034500001A252F823F000BFBD340008FB3600087B
:10346000FB360008FB360008FB360008FB36000878
:10347000FB360008FB360008E3340008FB36000882
:10348000FB360008FB360008FB360008FB36000858
:10349000FB360008FB360008E9340008FB3600085C
:1034A000FB360008FB360008FB360008FB36000838
:1034B000FB360008FB360008EF340008944B1B680D
:1034C00003F02003002B09D0914B1B68DB0803F0AD
:1034D0000303904A22FA03F3BB6111E18D4BBB61F8
:1034E0000EE18D4BBB610BE18C4BBB6108E1884B5E
:1034F0009B6A03F003037B61854B9B6A1B0903F006
:103500003F033B61824BDB6A03F00103FB60804BAE
:103510005B6BDB08C3F30C03FA6802FB03F307EEF3
:10352000903AF8EE677AC7ED027A3B69002B00F01B
:10353000E1807B69022B00F083807B69022B00F223
:10354000A1807B69002B03D07B69012B56D099E0C9
:103550006F4B1B6803F02003002B2DD06C4B1B68B6
:10356000DB0803F003036B4A22FA03F37B607B68FA
:1035700007EE903AF8EE676A3B6907EE903AF8EE8C
:10358000677A86EEA77A624B1B6BC3F3080307EEDC
:10359000903AF8EE676A97ED026ADFED615AC6EE7F
:1035A000257A76EEA77AF7EE006A77EEA67A67EECE
:1035B000277AC7ED077A87E03B6907EE903AF8EE85
:1035C000677ADFED586A86EEA77A514B1B6BC3F31F
:1035D000080307EE903AF8EE676A97ED026ADFEDAE
:1035E000505AC6EE257A76EEA77AF7EE006A77EEA5
:1035F000A67A67EE277AC7ED077A65E03B6907EEA2
:10360000903AF8EE677ADFED486A86EEA77A404B8B
:103610001B6BC3F3080307EE903AF8EE676A97ED69
:10362000026ADFED3F5AC6EE257A76EEA77AF7EE0C
:10363000006A77EEA67A67EE277AC7ED077A43E04D
:103640003B6907EE903AF8EE677ADFED386A86EE6E
:10365000A77A2F4B1B6BC3F3080307EE903AF8EEE3
:10366000676A97ED026ADFED2E5AC6EE257A76EE8E
:10367000A77AF7EE006A77EEA67A67EE277AC7EDAB
:10368000077A21E03B6907EE903AF8EE677ADFEDC2
:10369000266A86EEA77A1E4B1B6BC3F3080307EE60
:1036A000903AF8EE676A97ED026ADFED1D5AC6EEB2
:1036B000257A76EEA77AF7EE006A77EEA67A67EEBD
:1036C000277AC7ED077A00BF114B1B6B5B0A03F02B
:1036D0007F0301333B603B6807EE903AB8EE677AB0
:1036E000D7ED076AC6EE877AFCEEE77A17EE903AD6
:1036F000BB6105E00023BB6102E0074BBB6100BF7B
:10370000BB6918462437BD465DF8047B704700BF8F
:10371000004402580090D00300093D0040787D012C
:10372000000000460024744C0024744A20BCBE4BA8
:1037300080B582B000AFFFF781FE0246104B9B6957
:103740001B0A03F00F030F49CB5C03F01F0322FA9F
:1037500003F37B600A4B9B6903F00F03094AD35CB8
:1037600003F01F037A6822FA03F3074A1360074A3B
:103770007B681360044B1B6818460837BD4680BD44
:1037800000440258E09C00080400002000000020D3
:1037900080B500AFFFF7CCFF0246064BDB691B0983
:1037A00003F007030449CB5C03F01F0322FA03F381
:1037B000184680BD00440258E09C000880B500AF68
:1037C000FFF7B6FF0246064BDB691B0A03F007034F
:1037D0000449CB5C03F01F0322FA03F3184680BDB3
:1037E00000440258E09C00082DE9B04FCAB000AF79
:1037F000C7F81401002387F82731002387F8263102
:10380000D7F81431D3E9002302F00064002554EA0C
:10381000050349D0D7F814319B6EB3F5401F2FD064
:10382000B3F5401F28D8B3F5001F1AD0B3F5001F19
:1038300022D8002B03D0B3F5801F07D01CE0B84B73
:10384000DB6AB74A43F40033D3621AE0D7F8143185
:1038500008330221184601F08FFC034687F8273110
:103860000FE0D7F8143128330221184601F036FD55
:10387000034687F8273104E0012387F8273100E069
:1038800000BF97F82731002B0AD1A54B1B6D23F4FD
:103890004011D7F814319B6EA14A0B43136503E026
:1038A00097F8273187F82631D7F81431D3E9002368
:1038B00002F480784FF0000958EA090347D0D7F89E
:1038C00014319B6D042B2AD801A252F823F000BFBB
:1038D000E5380008F33800080939000827390008DE
:1038E000273900088E4BDB6A8D4A43F40033D362DC
:1038F0001AE0D7F8143108330021184601F03CFCD7
:10390000034687F827310FE0D7F814312833002118
:10391000184601F0E3FC034687F8273104E0012351
:1039200087F8273100E000BF97F82731002B0AD134
:103930007B4B1B6D23F00701D7F814319B6D784A40
:103940000B43136503E097F8273187F82631D7F842
:103950001431D3E9002302F4007A4FF0000B5AEA45
:103960000B034CD0D7F81431DB6DB3F5807F30D02A
:10397000B3F5807F29D8C02B2DD0C02B25D8802B24
:1039800018D0802B21D8002B02D0402B07D01CE070
:10399000634BDB6A624A43F40033D3621CE0D7F81E
:1039A000143108330021184601F0E6FB034687F87E
:1039B000273111E0D7F8143128330021184601F0DF
:1039C0008DFC034687F8273106E0012387F827316D
:1039D00002E000BF00E000BF97F82731002B0AD1BA
:1039E0004F4B1B6D23F4E071D7F81431DB6D4C4A5B
:1039F0000B43136503E097F8273187F82631D7F892
:103A00001431D3E9002302F48063C7F8083100239E
:103A1000C7F80C31D7E942120B46134353D0D7F8FD
:103A20001431D3F8A830B3F5000F35D0B3F5000F3B
:103A30002ED8B3F5C00F31D0B3F5C00F28D8B3F5E9
:103A4000800F1AD0B3F5800F22D8002B03D0B3F526
:103A5000001F07D01CE0324BDB6A314A43F40033CD
:103A6000D3621CE0D7F8143108330021184601F066
:103A700083FB034687F8273111E0D7F81431283348
:103A80000021184601F02AFC034687F8273106E09A
:103A9000012387F8273102E000BF00E000BF97F85C
:103AA0002731002B0BD11E4B9B6D23F46001D7F8FF
:103AB0001431D3F8A8301A4A0B43936503E097F802
:103AC000273187F82631D7F81431D3E9002302F4DF
:103AD0000063C7F800310023C7F80431D7E940126A
:103AE0000B46134356D0D7F81431D3F8AC30B3F1AA
:103AF000806F38D0B3F1806F31D8B3F1407F34D0CC
:103B0000B3F1407F2BD8B3F1007F1DD0B3F1007F1C
:103B100025D8002B06D0B3F1807F0AD01FE000BF6C
:103B200000440258A24BDB6AA14A43F40033D3623B
:103B30001CE0D7F8143108330021184601F01CFBB3
:103B4000034687F8273111E0D7F8143128330021D4
:103B5000184601F0C3FB034687F8273106E001232E
:103B600087F8273102E000BF00E000BF97F8273157
:103B7000002B0BD18E4B9B6D23F0E061D7F81431F5
:103B8000D3F8AC308A4A0B43936503E097F82731AA
:103B900087F82631D7F81431D3E9002302F00073F7
:103BA000C7F8F8300023C7F8FC30D7E93E120B46BF
:103BB00013433AD0D7F81431DB6C302B1FD0302BA5
:103BC00019D8202B0CD0202B15D8002B19D0102B56
:103BD00011D1774BDB6A764A43F40033D36211E0AC
:103BE000D7F8143108330221184601F0C5FA03460C
:103BF00087F8273106E0012387F8273102E000BF6C
:103C000000E000BF97F82731002B0AD1684BDB6C2E
:103C100023F03001D7F81431DB6C654A0B43D364D1
:103C200003E097F8273187F82631D7F81431D3E924
:103C3000002302F48053C7F8F0300023C7F8F430B3
:103C4000D7E93C120B46134351D0D7F814311B6E01
:103C5000B3F5804F35D0B3F5804F2ED8B3F5405F24
:103C600031D0B3F5405F28D8B3F5005F1AD0B3F573
:103C7000005F22D8002B03D0B3F5805F07D01CE093
:103C80004B4BDB6A4A4A43F40033D3621CE0D7F85B
:103C9000143108330021184601F06EFA034687F804
:103CA000273111E0D7F8143128330021184601F0EC
:103CB00015FB034687F8273106E0012387F82731F3
:103CC00002E000BF00E000BF97F82731002B0AD1C7
:103CD000374B1B6D23F4E041D7F814311B6E344A87
:103CE0000B43136503E097F8273187F82631D7F89F
:103CF0001431D3E9002302F40053C7F8E83000235D
:103D0000C7F8EC30D7E93A120B46134356D0D7F830
:103D100014315B6EB3F5A02F33D0B3F5A02F2CD8A0
:103D2000B3F5802F2FD0B3F5802F26D8B3F5403FC1
:103D30002BD0B3F5403F20D8B3F5003F12D0B3F5F8
:103D4000003F1AD8002B22D0B3F5803F15D1D7F809
:103D5000143108330121184601F00EFA034687F8A2
:103D6000273115E0D7F8143128330121184601F026
:103D7000B5FA034687F827310AE0012387F827318F
:103D800006E000BF04E000BF02E000BF00E000BFAB
:103D900097F82731002B0DD1054B1B6D23F4E02143
:103DA000D7F814315B6E024A0B43136506E000BF7F
:103DB0000044025897F8273187F82631D7F8143194
:103DC000D3E9002302F48043C7F8E0300023C7F8AA
:103DD000E430D7E938120B46134355D0D7F81431E5
:103DE000D3F8B030B3F1A04F33D0B3F1A04F2CD8FB
:103DF000B3F1804F2FD0B3F1804F26D8B3F1405F9D
:103E00002BD0B3F1405F20D8B3F1005F12D0B3F1F3
:103E1000005F1AD8002B22D0B3F1805F15D1D7F8FC
:103E2000143108330121184601F0A6F9034687F83A
:103E3000273115E0D7F8143128330121184601F055
:103E40004DFA034687F827310AE0012387F8273126
:103E500006E000BF04E000BF02E000BF00E000BFDA
:103E600097F82731002B0BD1A34B9B6D23F0E0413A
:103E7000D7F81431D3F8B0309F4A0B43936503E071
:103E800097F8273187F82631D7F81431D3E9002382
:103E900002F40043C7F8D8300023C7F8DC30D7E974
:103EA00036120B46134337D0D7F814311B6FB3F1DA
:103EB000005F0ED0B3F1005F16D8002B18D0B3F11D
:103EC000805F11D18C4BDB6A8B4A43F40033D362A1
:103ED0000FE0D7F8143108330121184601F04CF9EE
:103EE000034687F8273104E0012387F8273100E0F3
:103EF00000BF97F82731002B0AD17F4B1B6D23F0B1
:103F00004051D7F814311B6F7B4A0B43136503E014
:103F100097F8273187F82631D7F81431D3E90023F1
:103F200002F08073C7F8D0300023C7F8D430D7E947
:103F300034120B46134339D0D7F814319B6C032B42
:103F40001CD801A252F823F0853F0008593F000811
:103F5000673F0008853F0008674BDB6A664A43F409
:103F60000033D3620FE0D7F814310833022118462A
:103F700001F002F9034687F8273104E0012387F8AE
:103F8000273100E000BF97F82731002B0AD15A4BA8
:103F9000DB6C23F00301D7F814319B6C564A0B43BA
:103FA000D36403E097F8273187F82631D7F8143126
:103FB000D3E9002302F48003C7F8C8300023C7F810
:103FC000CC30D7E932120B46134300F09F804B4BA5
:103FD0001B684A4A43F480731360FDF76BFBC7F814
:103FE00020010BE0FDF766FB0246D7F82031D31A1B
:103FF000642B03D9032387F8273105E03F4B1B6867
:1040000003F48073002BEDD097F82731002B79D182
:10401000394B1A6FD7F81431D3F8B430534003F446
:104020004073002B15D0344B1B6F23F44073C7F83B
:104030001C31314B1B6F304A43F4803313672E4BD6
:104040001B6F2D4A23F4803313672B4AD7F81C319A
:104050001367D7F81431D3F8B430B3F5807F18D193
:10406000FDF728FBC7F820010DE0FDF723FB024612
:10407000D7F82031D21A41F288339A4203D9032368
:1040800087F8273105E01C4B1B6F03F00203002B60
:10409000EBD097F82731002B29D1D7F81431D3F87A
:1040A000B43003F44073B3F5407F0ED1124B1B695B
:1040B00023F47C51D7F81431D3F8B4301A09104BDB
:1040C00013400D4A0B43136105E00B4B1B690A4A71
:1040D00023F47C531361084B196FD7F81431D3F8CC
:1040E000B430C3F30B03044A0B4313670EE097F895
:1040F000273187F8263109E0004402580048025869
:10410000CFFFFF0097F8273187F82631D7F8143111
:10411000D3E9002302F00103C7F8C0300023C7F839
:10412000C430D7E930120B46134300F08980D7F82A
:104130001431DB6F282B6BD801A252F823F000BF9B
:1041400019420008114200081142000811420008FB
:1041500011420008114200081142000811420008F3
:10416000E541000811420008114200081142000810
:1041700011420008114200081142000811420008D3
:10418000FB410008114200081142000811420008DA
:1041900011420008114200081142000811420008B3
:1041A000194200081142000811420008114200089B
:1041B0001142000811420008114200081142000893
:1041C000194200081142000811420008114200087B
:1041D0001142000811420008114200081142000873
:1041E00019420008D7F8143108330121184600F0AD
:1041F000C3FF034687F827310FE0D7F8143128337F
:104200000121184601F06AF8034687F8273104E0D7
:10421000012387F8273100E000BF97F82731002BF2
:104220000AD1BF4B5B6D23F03801D7F81431DB6F37
:10423000BB4A0B43536503E097F8273187F82631D3
:10424000D7F81431D3E9002302F00203C7F8B830DD
:104250000023C7F8BC30D7E92E120B46134341D0D8
:10426000D7F814319B6F052B24D801A252F823F004
:10427000BD420008894200089F420008BD42000874
:10428000BD420008BD420008D7F8143108330121AF
:10429000184600F071FF034687F827310FE0D7F882
:1042A000143128330121184601F018F8034687F825
:1042B000273104E0012387F8273100E000BF97F899
:1042C0002731002B0AD1964B5B6D23F00701D7F8FD
:1042D00014319B6F924A0B43536503E097F82731E3
:1042E00087F82631D7F81431D3E9002302F004030C
:1042F000C7F8B0300023C7F8B430D7E92C120B460A
:10430000134344D0D7F81431D3F89430052B25D873
:1043100001A252F823F000BF6543000831430008B2
:1043200047430008654300086543000865430008EB
:10433000D7F8143108330121184600F01DFF034659
:1043400087F827310FE0D7F81431283301211846B8
:1043500000F0C4FF034687F8273104E0012387F803
:10436000273100E000BF97F82731002B0BD16C4BB1
:104370009B6D23F00701D7F81431D3F89430684AC5
:104380000B43936503E097F8273187F82631D7F878
:104390001431D3E9002302F02003C7F8A83000232A
:1043A000C7F8AC30D7E92A120B46134355D0D7F8DB
:1043B0001431D3F89030B3F1A04F33D0B3F1A04F04
:1043C0002CD8B3F1804F2FD0B3F1804F26D8B3F162
:1043D000405F2BD0B3F1405F20D8B3F1005F12D023
:1043E000B3F1005F1AD8002B22D0B3F1805F15D152
:1043F000D7F8143108330021184600F0BDFE0346FB
:1044000087F8273115E0D7F81431283302211846F0
:1044100000F064FF034687F827310AE0012387F89C
:10442000273106E000BF04E000BF02E000BF00E06B
:1044300000BF97F82731002B0BD1394B5B6D23F070
:10444000E041D7F81431D3F89030354A0B43536527
:1044500003E097F8273187F82631D7F81431D3E9EC
:10446000002302F04003C7F8A0300023C7F8A430AF
:10447000D7E928120B46134358D0D7F81431D3F894
:104480009C30B3F5A05F33D0B3F5A05F2CD8B3F563
:10449000805F2FD0B3F5805F26D8B3F5406F2BD067
:1044A000B3F5406F20D8B3F5006F12D0B3F5006FAD
:1044B0001AD8002B22D0B3F5806F15D1D7F814315C
:1044C00008330021184600F057FE034687F82731CD
:1044D00015E0D7F8143128330221184600F0FEFE0B
:1044E000034687F827310AE0012387F8273106E0E1
:1044F00000BF04E000BF02E000BF00E000BF97F88B
:104500002731002B0ED1064B9B6D23F4E051D7F8D9
:104510001431D3F89C30024A0B43936506E000BF88
:104520000044025897F8273187F82631D7F814311C
:10453000D3E9002302F08003C7F898300023C7F8BE
:104540009C30D7E926120B46134355D0D7F81431C7
:10455000D3F8A030B3F5204F33D0B3F5204F2CD88B
:10456000B3F5004F2FD0B3F5004F26D8B3F5C04FA9
:104570002BD0B3F5C04F20D8B3F5804F12D0B3F590
:10458000804F1AD8002B22D0B3F5005F15D1D7F891
:10459000143108330021184600F0EEFD034687F879
:1045A000273115E0D7F8143128330221184600F0DE
:1045B00095FE034687F827310AE0012387F8273163
:1045C00006E000BF04E000BF02E000BF00E000BF63
:1045D00097F82731002B0BD1A14B9B6D23F4604141
:1045E000D7F81431D3F8A0309D4A0B43936503E00C
:1045F00097F8273187F82631D7F81431D3E900230B
:1046000002F00803C7F890300023C7F89430D7E9C8
:1046100024120B4613431ED0D7F81431D3F884303C
:10462000B3F5805F0CD1D7F8143128330221184636
:1046300000F054FE0346002B02D0012387F82631F8
:10464000874B5B6D23F44051D7F81431D3F8843095
:10465000834A0B435365D7F81431D3E9002302F0A2
:104660001003C7F888300023C7F88C30D7E922122E
:104670000B4613431ED0D7F81431D3F89830B3F556
:10468000807F0CD1D7F8143128330221184600F06E
:1046900025FE0346002B02D0012387F82631704BFC
:1046A0009B6D23F44071D7F81431D3F898306C4ADD
:1046B0000B439365D7F81431D3E9002302F40023A8
:1046C000C7F880300023C7F88430D7E920120B46A2
:1046D00013433ED0D7F81431D3F8A430B3F5003FDC
:1046E00022D0B3F5003F1BD8002B03D0B3F5803F99
:1046F0000BD015E0D7F8143108330021184600F02C
:104700003BFD034687F827310FE0D7F814312833F3
:104710000221184600F0E2FD034687F8273104E045
:10472000012387F8273100E000BF97F82731002BDD
:104730000BD14B4B9B6D23F44031D7F81431D3F898
:10474000A430474A0B43936503E097F8273187F875
:104750002631D7F81431D3E9002302F48023BB6754
:104760000023FB67D7E91E120B4613433BD0D7F853
:104770001431D3F88830B3F5401F1FD0B3F5401F74
:1047800018D8B3F5801F03D0B3F5001F07D011E090
:10479000334BDB6A324A43F40033D3620FE0D7F87D
:1047A000143128330121184600F098FD034687F89C
:1047B000273104E0012387F8273100E000BF97F894
:1047C0002731002B0BD1264B5B6D23F44011D7F81A
:1047D0001431D3F88830224A0B43536503E097F82D
:1047E000273187F82631D7F81431D3E9002302F4B2
:1047F00080333B6700237B67D7E91C120B461343CA
:1048000034D0D7F814311B6D002B03D0B3F5803FA3
:1048100007D011E0124BDB6A114A43F40033D36234
:104820000EE0D7F8143108330221184600F0A4FC3A
:10483000034687F8273103E0012387F8273100BFBB
:1048400097F82731002B0DD1054BDB6C23F4803119
:10485000D7F814311B6D024A0B43D36406E000BF46
:104860000044025897F8273187F82631D7F81431D9
:10487000D3E9002302F00053BB660023FB66D7E9AF
:104880001A120B4613430CD0D7F8143128330221E7
:10489000184600F023FD0346002B02D0012387F8C1
:1048A0002631D7F81431D3E9002302F400333B66F4
:1048B00000237B66D7E918120B46134338D0D7F88C
:1048C0001431D3F88030B3F5407F18D0B3F5407F72
:1048D00011D8B3F5007F14D0B3F5007F0BD8002BAF
:1048E00011D0B3F5807F06D1C34BDB6AC24A43F4D3
:1048F0000033D36208E0012387F8273104E000BFCA
:1049000002E000BF00E000BF97F82731002B0BD179
:10491000B94B5B6D23F44071D7F81431D3F8803074
:10492000B54A0B43536503E097F8273187F82631E2
:10493000D7F81431D3E9002302F48013BB650023B8
:10494000FB65D7E916120B46134309D0AA4B1B6D22
:1049500023F00041D7F814315B6FA74A0B4313656E
:10496000D7F81431D3E9002302F080533B650023CC
:104970007B65D7E914120B4613430AD09E4B1B6983
:1049800023F48041D7F81431D3F8B8309A4A0B4356
:104990001361D7F81431D3E9002302F40013BB6488
:1049A0000023FB64D7E912120B46134309D0924B44
:1049B0001B6D23F08071D7F81431DB6E8E4A0B43E8
:1049C0001365D7F81431D3E9002302F080433B6428
:1049D00000237B64D7E910120B4613430ED0864B9D
:1049E0001B69854A23F400431361834B1969D7F887
:1049F0001431D3F8BC30804A0B431361D7F814311B
:104A0000D3E9002302F00043BB630023FB63D7E933
:104A10000E120B46134309D0774BDB6C23F0405149
:104A2000D7F814315B6D744A0B43D364D7F8143153
:104A3000D3E9002302F400033B6300237B63D7E93F
:104A40000C120B4613430AD06B4B5B6D23F44001F1
:104A5000D7F81431D3F88C30674A0B435365D7F835
:104A60001431D3E900230021B96203F00103FB6292
:104A7000D7E90A120B46134311D0D7F81431083383
:104A80000021184600F078FB034687F8273197F895
:104A90002731002B03D097F8273187F82631D7F834
:104AA0001431D3E900230021396203F002037B6251
:104AB000D7E908120B46134311D0D7F81431083345
:104AC0000121184600F058FB034687F8273197F874
:104AD0002731002B03D097F8273187F82631D7F8F4
:104AE0001431D3E900230021B96103F00403FB6111
:104AF000D7E906120B46134311D0D7F81431083307
:104B00000221184600F038FB034687F8273197F852
:104B10002731002B03D097F8273187F82631D7F8B3
:104B20001431D3E900230021396103F008037B61CC
:104B3000D7E904120B46134311D0D7F814312833A8
:104B40000021184600F0CAFB034687F8273197F882
:104B50002731002B03D097F8273187F82631D7F873
:104B60001431D3E900230021B96003F01003FB6086
:104B7000D7E902120B46134311D0D7F8143128336A
:104B80000121184600F0AAFB034687F8273197F861
:104B90002731002B03D097F8273187F82631D7F833
:104BA0001431D3E900230021396003F020037B6036
:104BB000D7E900120B46134311D0D7F8143128332C
:104BC0000221184600F08AFB034687F8273197F840
:104BD0002731002B03D097F8273187F8263197F833
:104BE0002631002B01D1002300E00123184607F5F0
:104BF0009477BD46BDE8B08F0044025880B500AF41
:104C0000FEF796FD0246064B1B6A1B0903F00703DD
:104C10000449CB5C03F01F0322FA03F3184680BD5E
:104C200000440258E09C000880B489B000AF78606E
:104C3000A14B9B6A03F00303BB619F4B9B6A1B0B59
:104C400003F03F037B619C4BDB6A1B0903F001030C
:104C50003B61994BDB6BDB08C3F30C033A6902FB46
:104C600003F307EE903AF8EE677AC7ED037A7B69B3
:104C7000002B00F01181BB69022B00F08380BB691F
:104C8000022B00F2A180BB69002B03D0BB69012B72
:104C900056D099E0884B1B6803F02003002B2DD0E1
:104CA000854B1B68DB0803F00303844A22FA03F3F5
:104CB000BB60BB6807EE903AF8EE676A7B6907EE67
:104CC000903AF8EE677A86EEA77A7B4B9B6BC3F33C
:104CD000080307EE903AF8EE676A97ED036ADFED96
:104CE000785AC6EE257A76EEA77AF7EE006A77EE66
:104CF000A67A67EE277AC7ED077A87E07B6907EE29
:104D0000903AF8EE677ADFED6F6A86EEA77A6A4B23
:104D10009B6BC3F3080307EE903AF8EE676A97EDD2
:104D2000036ADFED675AC6EE257A76EEA77AF7EECC
:104D3000006A77EEA67A67EE277AC7ED077A65E014
:104D40007B6907EE903AF8EE677ADFED5F6A86EEF0
:104D5000A77A594B9B6BC3F3080307EE903AF8EE22
:104D6000676A97ED036ADFED565AC6EE257A76EE4E
:104D7000A77AF7EE006A77EEA67A67EE277AC7ED94
:104D8000077A43E07B6907EE903AF8EE677ADFED49
:104D90004F6A86EEA77A484B9B6BC3F3080307EE76
:104DA000903AF8EE676A97ED036ADFED455AC6EE72
:104DB000257A76EEA77AF7EE006A77EEA67A67EEA6
:104DC000277AC7ED077A21E07B6907EE903AF8EE83
:104DD000677ADFED3D6A86EEA77A374B9B6BC3F3AC
:104DE000080307EE903AF8EE676A97ED036ADFED85
:104DF000345AC6EE257A76EEA77AF7EE006A77EE99
:104E0000A67A67EE277AC7ED077A00BF2A4B9B6B1D
:104E10005B0A03F07F0307EE903AF8EE677AB7EE8D
:104E2000007A37EE877AD7ED076AC6EE877AFCEE0E
:104E3000E77A17EE902A7B681A601F4B9B6B1B0C5E
:104E400003F07F0307EE903AF8EE677AB7EE007A48
:104E500037EE877AD7ED076AC6EE877AFCEEE77AF7
:104E600017EE902A7B685A60134B9B6B1B0E03F066
:104E70007F0307EE903AF8EE677AB7EE007A37EEE6
:104E8000877AD7ED076AC6EE877AFCEEE77A17EEE7
:104E9000902A7B689A6008E07B6800221A607B6831
:104EA00000225A607B6800229A6000BF2437BD460A
:104EB0005DF8047B704700BF004402580090D003A7
:104EC000000000460024744C0024744A20BCBE4BF1
:104ED00080B489B000AF7860A14B9B6A03F00303F4
:104EE000BB619F4B9B6A1B0D03F03F037B619C4B97
:104EF000DB6A1B0A03F001033B61994B5B6CDB0827
:104F0000C3F30C033A6902FB03F307EE903AF8EEA1
:104F1000677AC7ED037A7B69002B00F01181BB69CA
:104F2000022B00F08380BB69022B00F2A180BB69D9
:104F3000002B03D0BB69012B56D099E0884B1B682E
:104F400003F02003002B2DD0854B1B68DB0803F0FA
:104F50000303844A22FA03F3BB60BB6807EE903A6E
:104F6000F8EE676A7B6907EE903AF8EE677A86EEAC
:104F7000A77A7B4B1B6CC3F3080307EE903AF8EE5D
:104F8000676A97ED036ADFED785AC6EE257A76EE0A
:104F9000A77AF7EE006A77EEA67A67EE277AC7ED72
:104FA000077A87E07B6907EE903AF8EE677ADFEDE3
:104FB0006F6A86EEA77A6A4B1B6CC3F3080307EE91
:104FC000903AF8EE676A97ED036ADFED675AC6EE2E
:104FD000257A76EEA77AF7EE006A77EEA67A67EE84
:104FE000277AC7ED077A65E07B6907EE903AF8EE1D
:104FF000677ADFED5F6A86EEA77A594B1B6CC3F3C5
:10500000080307EE903AF8EE676A97ED036ADFED62
:10501000565AC6EE257A76EEA77AF7EE006A77EE54
:10502000A67A67EE277AC7ED077A43E07B6907EE39
:10503000903AF8EE677ADFED4F6A86EEA77A484B32
:105040001B6CC3F3080307EE903AF8EE676A97ED1E
:10505000036ADFED455AC6EE257A76EEA77AF7EEBB
:10506000006A77EEA67A67EE277AC7ED077A21E025
:105070007B6907EE903AF8EE677ADFED3D6A86EEDF
:10508000A77A374B1B6CC3F3080307EE903AF8EE90
:10509000676A97ED036ADFED345AC6EE257A76EE3D
:1050A000A77AF7EE006A77EEA67A67EE277AC7ED61
:1050B000077A00BF2A4B1B6C5B0A03F07F0307EEE5
:1050C000903AF8EE677AB7EE007A37EE877AD7ED46
:1050D000076AC6EE877AFCEEE77A17EE902A7B68BD
:1050E0001A601F4B1B6C1B0C03F07F0307EE903AFA
:1050F000F8EE677AB7EE007A37EE877AD7ED076A6F
:10510000C6EE877AFCEEE77A17EE902A7B685A6043
:10511000134B1B6C1B0E03F07F0307EE903AF8EE67
:10512000677AB7EE007A37EE877AD7ED076AC6EE70
:10513000877AFCEEE77A17EE902A7B689A6008E09F
:105140007B6800221A607B6800225A607B6800221C
:105150009A6000BF2437BD465DF8047B704700BFEE
:10516000004402580090D003000000460024744C14
:105170000024744A20BCBE4B80B584B000AF786078
:1051800039600023FB73534B9B6A03F00303032B2B
:1051900001D1012399E04F4B1B684E4A23F08063F5
:1051A0001360FCF787FAB86008E0FCF783FA024660
:1051B000BB68D31A022B01D9032386E0454B1B6839
:1051C00003F00063002BF0D1424B9B6A23F47C3246
:1051D0007B681B681B033F4913438B627B685B68DA
:1051E000013BC3F308027B689B68013B5B029BB2F7
:1051F0001A437B68DB68013B1B0403F4FE031A437C
:105200007B681B69013B1B0603F0FE4331491343D6
:105210008B63304BDB6A23F0C0027B685B692D49EE
:105220001343CB622B4BDB6A23F020027B689B6924
:1052300028491343CB62274BDB6A264A23F010032D
:10524000D362244BDA6B244B13407A68D269D200C4
:1052500020491343CB631F4BDB6A1E4A43F0100304
:10526000D3623B68002B06D11A4BDB6A194A43F420
:105270000023D3620FE03B68012B06D1154BDB6A9C
:10528000144A43F48013D36205E0124BDB6A114ADF
:1052900043F40013D3620F4B1B680E4A43F0806344
:1052A0001360FCF707FAB86008E0FCF703FA02465F
:1052B000BB68D31A022B01D9032306E0054B1B68F8
:1052C00003F00063002BF0D0FB7B18461037BD467F
:1052D00080BD00BF004402580700FFFF80B584B0C6
:1052E00000AF786039600023FB73534B9B6A03F077
:1052F0000303032B01D1012399E04F4B1B684E4A56
:1053000023F080531360FCF7D5F9B86008E0FCF790
:10531000D1F90246BB68D31A022B01D9032386E0D8
:10532000454B1B6803F00053002BF0D1424B9B6AA6
:1053300023F07C727B681B681B053F4913438B621B
:105340007B685B68013BC3F308027B689B68013B99
:105350005B029BB21A437B68DB68013B1B0403F4CE
:10536000FE031A437B681B69013B1B0603F0FE43E7
:10537000314913430B64304BDB6A23F440627B6892
:105380005B692D491343CB622B4BDB6A23F400721C
:105390007B689B6928491343CB62274BDB6A264A0B
:1053A00023F48073D362244B5A6C244B13407A68E5
:1053B000D269D200204913434B641F4BDB6A1E4A5B
:1053C00043F48073D3623B68002B06D11A4BDB6A2F
:1053D000194A43F48003D3620FE03B68012B06D1E6
:1053E000154BDB6A144A43F40003D36205E0124B09
:1053F000DB6A114A43F08073D3620F4B1B680E4A7D
:1054000043F080531360FCF755F9B86008E0FCF7EF
:1054100051F90246BB68D31A022B01D9032306E0D7
:10542000054B1B6803F00053002BF0D0FB7B1846A4
:105430001037BD4680BD00BF004402580700FFFF83
:1054400080B584B000AF78607B68002B01D1012368
:105450000FE17B6800229A627B681B68874A93424F
:105460000FD07B681B68864A93420AD07B681B6812
:10547000844A934205D07B68DB680F2B01D9012356
:10548000F7E0786800F0CAFBF8607B681B687B4A2D
:1054900093420CD07B681B68794A934207D07B68A3
:1054A0001B68784A934202D0FB68082B11D87B68AE
:1054B0001B68724A934209D07B681B68704A93420A
:1054C00004D07B681B686F4A934204D1FB68102BA1
:1054D00001D90123CDE07B6893F88130DBB2002B4A
:1054E00006D17B68002283F880207868FBF780FB78
:1054F0007B68022283F881207B681B681A687B68BE
:105500001B6822F001021A607B681B689B6803F429
:10551000F813BB607B689B69B3F1806F19D17B681E
:105520005B68B3F5800F03D17B689B6B002B08D0C1
:105530007B685B68002B0CD17B689B6BB3F1805F51
:1055400007D17B681B681A687B681B6842F480522D
:105550001A607B685B6803F48003002B0FD07B68C4
:10556000DB68062B0BD97B681B681B6823F48071F2
:105570007B681A6D7B681B680A431A6007E07B68CA
:105580001B681A687B681B6822F480721A607B684B
:10559000DA697B689B6A1A43BB681A437B68DB6BDA
:1055A00042EA03017B68DA687B681B680A439A60F9
:1055B0007B685A6B7B685B6A1A437B689B6B1A43F8
:1055C0007B689B691A437B681B691A437B685B692C
:1055D0001A437B681B6A1A437B685B681A437B68C3
:1055E000DB6C1A437B689B681A437B689B6C42EABE
:1055F00003017B689A6D7B681B680A43DA607B68ED
:105600005B68002B13D17B681B689B6823F4C05236
:105610007B681B6842F400629A607B681B689B6829
:1056200023F4C0627B681B6842F480629A607B68E6
:105630001B681A6D7B681B6822F001021A657B6883
:105640005B6803F48003002B0AD07B681B68DB686F
:1056500023F000417B685A6D7B681B680A43DA605F
:105660007B680022C3F884207B68012283F88120B4
:10567000002318461037BD4680BD00BF00300140F2
:1056800000380040003C004080B58AB002AFF860AE
:10569000B9603B601346FB80FB681B682033FB61ED
:1056A0000023FB76FB6893F88030012B01D10223A5
:1056B000E1E1FB68012283F88020FBF7FBFF7861C2
:1056C000FB6893F88130DBB2012B07D00223FB7615
:1056D000FB68002283F88020FB7ECCE1BB68002BB6
:1056E00002D0FB88002B07D10123FB76FB68002248
:1056F00083F88020FB7EBEE1FB68032283F88120D3
:10570000FB680022C3F88420FB68BA68DA65FB688E
:10571000FA88A3F86020FB68FA88A3F86220FB6887
:1057200000225A66FB680022A3F86820FB6800226A
:10573000A3F86A20FB6800225A67FB6800221A67F8
:10574000FB689B68B3F5C02F08D1FB681B681A681B
:10575000FB681B6842F400621A6009E0FB681B6882
:10576000DB6823F4C022FB681B6842F40032DA6075
:10577000FB681B685A68964B1340F988FA681268F0
:105780000B435360FB681B681A68FB681B6842F098
:1057900001021A60FB685B68B3F5800F07D1FB68F4
:1057A0001B681A68FB681B6842F400721A60FB6889
:1057B000DB680F2B47D93FE0FB681B685B6903F090
:1057C0000203022B14D1FB68DA6DFB681B681268B8
:1057D0001A62FB68DB6D1A1DFB68DA65FB68B3F8BB
:1057E00062309BB2013B9AB2FB68A3F8622023E0CF
:1057F000FBF760FF02467B69D31A3A689A4203D8E6
:105800003B68B3F1FF3F02D13B68002B14D1F8682D
:1058100000F036F9FB68002283F88020FB68D3F89B
:10582000843043F48072FB68C3F88420FB68012253
:1058300083F8812003231EE1FB68B3F862309BB23A
:10584000002BB9D1F1E0FB68DB68072B40F2E68062
:105850005DE0FB681B685B6903F00203022B32D139
:10586000FB68B3F862309BB2012B18D9FB68DB6B85
:10587000002B14D0FB68DA6DFB681B6812681A6293
:10588000FB68DB6D1A1DFB68DA65FB68B3F86230F4
:105890009BB2023B9AB2FB68A3F8622037E0FB6838
:1058A000DB6D1A88FB691A80FB68DB6D9A1CFB684C
:1058B000DA65FB68B3F862309BB2013B9AB2FB68D1
:1058C000A3F8622023E0FBF7F5FE02467B69D31ABA
:1058D0003A689A4203D83B68B3F1FF3F02D13B6874
:1058E000002B14D1F86800F0CBF8FB68002283F895
:1058F0008020FB68D3F8843043F48072FB68C3F8DF
:105900008420FB68012283F881200323B3E0FB6835
:10591000B3F862309BB2002B9BD186E0FB681B681A
:105920005B6903F00203022B54D1FB68B3F86230C9
:105930009BB2032B18D9FB68DB6B402B14D9FB6897
:10594000DA6DFB681B6812681A62FB68DB6D1A1D52
:10595000FB68DA65FB68B3F862309BB2043B9AB22D
:10596000FB68A3F8622059E0FB68B3F862309BB291
:10597000012B17D9FB68DB6B002B13D0FB68DB6DA9
:105980001A88FB691A80FB68DB6D9A1CFB68DA6574
:10599000FB68B3F862309BB2023B9AB2FB68A3F893
:1059A00062203BE0FB68DA6DFB681B6820331278ED
:1059B0001A70FB68DB6D5A1CFB68DA65FB68B3F88C
:1059C00062309BB2013B9AB2FB68A3F8622025E0EB
:1059D0000000FFFFFBF76EFE02467B69D31A3A68B0
:1059E0009A4203D83B68B3F1FF3F02D13B68002BDA
:1059F00014D1F86800F044F8FB68002283F8802096
:105A0000FB68D3F8843043F48072FB68C3F88420C9
:105A1000FB68012283F8812003232CE0FB68B3F8A4
:105A200062309BB2002B7FF479AF7B6900933B68B7
:105A300000220821F86800F0C3F80346002B07D0C5
:105A4000FB68D3F8843043F02002FB68C3F884205D
:105A5000F86800F015F8FB68002283F88020FB68E6
:105A6000012283F88120FB68D3F88430002B01D019
:105A7000012300E0FB7E18462037BD4680BD00BFF5
:105A800080B485B000AF78607B681B685B69FB60A1
:105A90007B681B689A697B681B6842F008029A6100
:105AA0007B681B689A697B681B6842F010029A61E8
:105AB0007B681B681A687B681B6822F001021A6009
:105AC0007B681B6819697B681A683C4B0B40136143
:105AD0007B681B689A687B681B6822F440429A6066
