:020000040800F2
:1000000000000220ED800008DD0E0008E10E00086F
:10001000E50E0008E90E0008ED0E000800000000E3
:10002000000000000000000000000000F10E0008C9
:10003000F50E000800000000F90E0008FD0E000893
:100040004581000845810008458100084581000878
:100050004581000845810008458100084581000868
:10006000458100084581000845810008010F00080E
:100070004581000845810008458100084581000848
:100080004581000845810008458100084581000838
:100090004581000845810008458100084581000828
:1000A0004581000845810008458100084581000818
:1000B0004581000845810008458100084581000808
:1000C00045810008458100084581000845810008F8
:1000D00045810008458100084581000845810008E8
:1000E00045810008458100080000000045810008A6
:1000F00045810008458100084581000845810008C8
:1001000045810008458100084581000845810008B7
:1001100045810008458100084581000845810008A7
:100120004581000845810008458100084581000897
:100130004581000845810008458100084581000887
:1001400000000000000000000000000000000000AF
:100150004581000845810008458100084581000867
:100160004581000845810008458100084581000857
:100170004581000845810008458100084581000847
:100180004581000845810008458100084581000837
:100190004581000845810008458100084581000827
:1001A0004581000845810008458100084581000817
:1001B0004581000845810008458100084581000807
:1001C00045810008458100084581000845810008F7
:1001D00045810008458100084581000845810008E7
:1001E00045810008458100084581000845810008D7
:1001F00045810008458100084581000845810008C7
:1002000045810008458100084581000845810008B6
:1002100045810008458100084581000845810008A6
:100220004581000845810008458100080000000064
:100230004581000845810008000000004581000854
:100240004581000845810008458100084581000876
:100250004581000845810008458100084581000866
:100260004581000845810008458100084581000856
:100270004581000845810008458100080000000014
:100280004581000845810008458100080000000004
:08029000000000004581000898
:1002A00010B5054C237833B9044B13B10448AFF3B0
:1002B00000800123237010BD800800200000000092
:1002C000EC9D000808B5034B1BB103490348AFF38D
:1002D000008008BD0000000084080020EC9D00089C
:1002E00001F0FF01102A2BDB10F0070F08D010F8E7
:1002F000013B013A8B422DD010F0070F42B3F6D1EB
:10030000F0B441EA012141EA014122F007047FF003
:1003100000070023F0E80256083C85EA010586EA5A
:10032000010685FA47F5A3FA87F586FA47F6A5FA96
:1003300087F68EB9EED1F0BC01F0FF0102F00702A2
:1003400032B110F8013B013A83EA010313B1F8D14D
:100350000020704701387047002D06BF354603382E
:10036000073815F0010F07D1013015F4807F02BF67
:10037000013015F4C03F0130F0BC0138704700BFB8
:1003800053B94AB9002908BF00281CBF4FF0FF31FC
:100390004FF0FF3000F074B9ADF1080C6DE904CEF8
:1003A00000F006F8DDF804E0DDE9022304B0704750
:1003B0002DE9F047089D04468E46002B4DD18A4218
:1003C000944669D9B2FA82F252B101FA02F3C2F14B
:1003D000200120FA01F10CFA02FC41EA030E9440DC
:1003E0004FEA1C48210CBEFBF8F61FFA8CF708FBFD
:1003F00016E341EA034306FB07F199420AD91CEBD5
:10040000030306F1FF3080F01F81994240F21C8106
:10041000023E63445B1AA4B2B3FBF8F008FB10334E
:1004200044EA034400FB07F7A7420AD91CEB040483
:1004300000F1FF3380F00A81A74240F20781644453
:10044000023840EA0640E41B00261DB1D4400023D8
:10045000C5E900433146BDE8F0878B4209D9002D3C
:1004600000F0EF800026C5E9000130463146BDE8C6
:10047000F087B3FA83F6002E4AD18B4202D3824230
:1004800000F2F980841A61EB030301209E46002DDF
:10049000E0D0C5E9004EDDE702B9FFDEB2FA82F234
:1004A000002A40F09280A1EB0C014FEA1C471FFA92
:1004B0008CFE0126200CB1FBF7F307FB131140EA79
:1004C00001410EFB03F0884208D91CEB010103F146
:1004D000FF3802D2884200F2CB804346091AA4B208
:1004E000B1FBF7F007FB101144EA01440EFB00FEDC
:1004F000A64508D91CEB040400F1FF3102D2A64541
:1005000000F2BB800846A4EB0E0440EA03409CE7DF
:10051000C6F12007B34022FA07FC4CEA030C20FA8C
:1005200007F401FA06F31C43F9404FEA1C4900FAAC
:1005300006F3B1FBF9F8200C1FFA8CFE09FB181129
:1005400040EA014108FB0EF0884202FA06F20BD99C
:100550001CEB010108F1FF3A80F08880884240F2EC
:100560008580A8F102086144091AA4B2B1FBF9F030
:1005700009FB101144EA014100FB0EFE8E4508D92B
:100580001CEB010100F1FF346CD28E456AD90238B0
:10059000614440EA0840A0FB0294A1EB0E01A14295
:1005A000C846A64656D353D05DB1B3EB080261EB03
:1005B0000E0101FA07F722FA06F3F1401F43C5E9DD
:1005C000007100263146BDE8F087C2F12003D84013
:1005D0000CFA02FC21FA03F3914001434FEA1C4755
:1005E0001FFA8CFEB3FBF7F007FB10360B0C43EA47
:1005F000064300FB0EF69E4204FA02F408D91CEBF7
:10060000030300F1FF382FD29E422DD902386344F4
:100610009B1B89B2B3FBF7F607FB163341EA034194
:1006200006FB0EF38B4208D91CEB010106F1FF38E3
:1006300016D28B4214D9023E6144C91A46EA0046DA
:1006400038E72E46284605E70646E3E61846F8E66C
:100650004B45A9D2B9EB020864EB0C0E0138A3E7B5
:100660004646EAE7204694E74046D1E7D0467BE796
:10067000023B614432E7304609E76444023842E70E
:10068000704700BF0000000010B500232A482B4C23
:1006900004218CB0012201614FF4806183820193B7
:1006A000049382610377436380F83830C0E90043E4
:1006B0004FF4A464C0E90233C0E90941C0E90B2347
:1006C000CDE90233CDE90533CDE90733CDE909336F
:1006D00001F0A2FBE8B9002301A91748019301F03A
:1006E000FBFCE8B940F2FF73002204A912489FED19
:1006F0000E7BCDE9062300238DED047B9FED0C7B63
:100700008DF829308DED087B00F0B2FE20B90CB0D9
:1007100010BD00F0CBFADEE700F0C8FA0CB010BD57
:1007200000F0C4FADEE700BF0800900C06000000ED
:1007300004000000000000009C080020002002408F
:1007400070B5B8B000210446C02208A80691CDE9D2
:100750000211CDE9041107F029FD314B22689A42BC
:1007600001D038B070BD4FF40022002308A8CDE9B5
:10077000082302220C23CDE90A2304220223CDE917
:100780000C23C0230222CDE90E232023109304F072
:1007900045F800283DD1234B002602A9224DD3F86D
:1007A000D82042F02002C3F8D820D3F8D82002F095
:1007B00020020092009AD3F8E02042F00102C3F830
:1007C000E0204022D3F8E030049603F001030193C7
:1007D000032301981548CDE9022302F00DFF0923F8
:1007E000134A28466B604FF400632A604FF480621E
:1007F0006B614FF40053AE60EE60EE612A612E62D1
:100800006E62AB6101F02AFE30B9E564AC6338B0CA
:1008100070BD00F04BFABEE700F048FAF5E700BF04
:100820000020024000440258000900200000025845
:10083000100002400C4B00220B20114610B5D3F8DB
:10084000D84082B044F00104C3F8D840D3F8D8307F
:1008500003F001030193019B01F0B8FC0B2002B0EF
:10086000BDE8104001F0F0BC00440258F0B5444B24
:100870008DB00024434D444F03210A942846434E33
:10088000CDE90644CDE90844D3F8E02042F0100257
:10089000C3F8E020D3F8E02002F010020092009AA2
:1008A000D3F8E02042F08002C3F8E020D3F8E02043
:1008B00002F080020192019AD3F8E02042F0040293
:1008C000C3F8E020D3F8E02002F004020292029A7A
:1008D000D3F8E02042F00102C3F8E020D3F8E02092
:1008E00002F001020392039AD3F8E02042F00202E0
:1008F000C3F8E020D3F8E02002F002020492049A48
:10090000D3F8E02042F00802C3F8E0202246D3F8F2
:10091000E03003F008030593059B02F0A7FF224691
:1009200038464FF4A05102F0A1FF22463046FB2189
:1009300002F09CFF0024284603220123002506A97B
:10094000CDE90623CDE9084502F056FE4FF4A0524A
:100950001123384606A9CDE9062301220023CDE95B
:10096000082302F049FEFB22012306A93046CDE907
:100970000845CDE9062302F03FFE0DB0F0BD00BFF3
:10098000004402580008025800040258000C0258A3
:1009900010B51748002317490124174A036280E85D
:1009A0001E00C0E90433C0E9063302F063FF50B90A
:1009B00000210F4802F0B4FF68B900210C4802F092
:1009C000D9FF80B910BD00F071F90021084802F08C
:1009D000A7FF0028F1D000F069F90021044802F0D7
:1009E000C9FF0028EED0BDE8104000F05FB900BF9D
:1009F0007809002000540040AF747000000000002F
:100A000010B5B8B000210446C02208A80691CDE96F
:100A10000211CDE9041107F0C9FB1F4B22689A426D
:100A200001D038B010BD0822002308A8CDE9082362
:100A300003F0F4FE40BB194C042202A91848D4F874
:100A4000E03043F00203C4F8E030D4F8E03006921E
:100A5000012203F002039FED0E7B0093009B002315
:100A60008DED027BCDE9042302F0C6FDD4F8E83019
:100A700043F40013C4F8E830D4F8E83003F400136A
:100A80000193019B38B010BD00F010F9D3E700BF0F
:100A9000C000000012000000005400400044025852
:100AA0000004025810B59EB04C2200210AA807F09D
:100AB0007DFB2022002102A807F078FB022002F033
:100AC00085FF274B0021274A0191D96A21F00101B6
:100AD000D962DB6A03F001030193936923F4404375
:100AE00043F480439361936903F440430193019B72
:100AF00093699B04FCD50522002301204FF480312B
:100B00001592302202241B93169203221C93082371
:100B10001794199418921A93CDE90A010AA8CDE9FD
:100B2000134402F0FBFF08B172B6FEE73F22032335
:100B3000214602A8CDE9022300220023CDE90423A7
:100B400000225023CDE906234FF4A0620023CDE913
:100B5000082303F077FB08B172B6FEE71EB010BDA4
:100B6000000400580048025810B586B000F0D6FBCB
:100B7000FFF798FFFFF77AFEFFF75CFEFFF784FDB3
:100B800000F0CCFA00F086FA00F026FAFFF700FF3A
:100B900000F08EF800F0C0F806F01AFE06F062FAD7
:100BA000394805F091FB4FF480623849384800F02D
:100BB00061FF40F2FF724FF00111354801F03AFA3F
:100BC0004FF47A7000F0ECFB2F4805F0D5FB30486D
:100BD00001F01CF82F4B304A03F50061DFED2F6A5E
:100BE0009FED275B33F8020F07EE100A8B42B8EE39
:100BF000477A27EE267AB7EEC77A27EE057BB7EE5F
:100C0000C77BA2EC017AEDD1254C4FF48061684698
:100C100008F00EF80023204A68461C4908F0EEF858
:100C20004FF480621C48214608F0CEFCD4ED007AD7
:100C3000DFED1C6A234604F580529FED1B7A67EEB8
:100C4000A67AE3EC017AD3ED007A67EE877AE3ECDB
:100C5000017A9A42F7D142F2107200214FF4FA70F1
:100C600006F036FAD4ED007A0A210623FDEEE77A83
:100C7000084617EE902A06F051FCECE7AFF300802F
:100C80006666666666660A40DC2A002080000020F0
:100C90009C0800207E000020CC0900200000803746
:100CA000CC1900200000803A0000003B72B6FEE73D
:100CB00010B517484FF48002164C4FF40031002352
:100CC00081604FF0806103624362C0E90042072205
:100CD0004FF00074C2604FF08072C0E904424FF0E0
:100CE0008052C0E90A33C0E90612C0E90D33C0E9F9
:100CF0000F33C0E91133C0E91333C0E9153304F0F1
:100D0000C3FF00B910BDBDE81040FFF7CFBF00BF63
:100D1000CC290020003001401448002314494FF42E
:100D2000800210B580E80E004FF0005207244FF00B
:100D30008041C362C0E905322022C0E90343C0E913
:100D40000733C0E90933C0E90D13C0E90F23C0E937
:100D50001133C0E91333C0E9153304F095FF00B92E
:100D600010BDBDE81040FFF7A1BF00BF542A00200E
:100D700000340140F0B5BBB000210446C0220AA8EF
:100D80000891CDE90411CDE9061107F00FFA2368A7
:100D9000434A934204D0434A934234D03BB0F0BD1F
:100DA0004FF4805200230AA8CDE90A2303F036FD50
:100DB00000286FD13C4BA02602270524D3F8F02051
:100DC00004A93A4842F48052C3F8F020D3F8F02046
:100DD00002F480520092009AD3F8E02042F001021F
:100DE000C3F8E020D3F8E030089403F00103019346
:100DF000019BCDE9046700260027CDE9066702F0D4
:100E0000FBFB3BB0F0BD4FF4005200230AA8CDE934
:100E10000A2303F003FD00283FD1234B45F62004AD
:100E200002250521D3F8F0204FF400460127204881
:100E300042F40052C3F8F020D3F8F02002F400523C
:100E40000292029AD3F8E02042F01002C3F8E020A8
:100E5000D3F8E030089104A903F01003CDE904456C
:100E6000002400250393039BCDE9064502F0C4FB53
:100E700004A91048CDE90645CDE9046702F0BCFBA2
:100E800004A90B48CDE90467CDE9064502F0B4FB9F
:100E90003BB0F0BDFFF70AFF8CE7FFF707FFBCE7A9
:100EA0000030014000340140004402580000025864
:100EB00000100258000C0258074B82B0D3F8F420FF
:100EC00042F00202C3F8F420D3F8F43003F0020336
:100ED0000193019B02B0704700440258FEE700BF37
:100EE000FEE700BFFEE700BFFEE700BFFEE700BF72
:100EF000704700BF704700BF704700BF00F03EBAA8
:100F0000014802F029B800BF000900202749284AFB
:100F1000D1F8883043F4700310B4C1F888301368F6
:100F200003F00F03062B05D8136823F00F0343F0DB
:100F3000070313601F4B00241F4A19681C4841F027
:100F4000010119601C6119680A401A6003681B07D7
:100F500005D5036823F00F0343F007030360154B27
:100F600000221649164C17489A61DA611A629C628F
:100F7000D86219635A639963DA6319645A6418680A
:100F8000114C20F48020114918601A66236819401A
:100F9000B1F1005F03D20E4B0122C3F808210D4BC3
:100FA00043F2D2025DF8044B1A60704700ED00E096
:100FB00000200052004402587FEDF6EA8002010151
:100FC000000202020000FF010010005C0000FFFFB1
:100FD000008000510040005210B51F4801221F4CF4
:100FE000002388B040F6B731C0E900428022049364
:100FF000009382610793C0E90231C0E90433CDE96F
:101000000533CDE9013305F0A9F8A0B94FF48053B9
:1010100004A91148049305F0C5F998B9002369465D
:101020000D4802939FED0A7B8DED007B05F086FA5B
:1010300020B908B010BDFFF739FEE7E7FFF736FE2D
:1010400008B010BDFFF732FEE8E700BFAFF3008045
:101050002000000000000000DC2A00200000014009
:101060000A4B02689A4200D07047094B82B0D3F80D
:10107000F02042F00102C3F8F020D3F8F03003F082
:1010800001030193019B02B0704700BF00000140C3
:101090000044025810B51F4800231F4C4FF4E131A3
:1010A0000C228360C0E90041C0E90333C0E9052395
:1010B000C0E90733C0E9093305F0BCFE70B900216F
:1010C000144805F009FF88B90021124805F046FFD1
:1010D000A0B9104805F0E2FEB8B910BDFFF7E6FD73
:1010E00000210C4805F0F8FE0028EDD0FFF7DEFDEA
:1010F0000021084805F032FF0028EAD0FFF7D6FDAE
:10110000044805F0CBFE0028E7D0BDE81040FFF70B
:10111000CDBD00BF282B00200010014010B51F4896
:1011200000231F4C4FF4E1310C228360C0E90041E1
:10113000C0E90333C0E90523C0E90733C0E9093337
:1011400005F078FE70B90021144805F0C5FE88B995
:101150000021124805F002FFA0B9104805F09EFEDC
:10116000B8B910BDFFF7A2FD00210C4805F0B4FE90
:101170000028EDD0FFF79AFD0021084805F0EEFEAB
:101180000028EAD0FFF792FD044805F087FE00280A
:10119000E7D0BDE81040FFF789BD00BFBC2B0020A1
:1011A000004400400000000010B5BAB00021044621
:1011B000C0220AA80891CDE90411CDE9061106F074
:1011C000F5FF23683E4A934204D03E4A934233D00F
:1011D0003AB010BD012200230AA8CDE90A2303F08A
:1011E0001DFB002859D1384B072404A93748D3F8F0
:1011F000F02042F01002C3F8F020D3F8F02002F003
:1012000010020092009AD3F8E02042F00102C3F8E5
:10121000E020D3F8E030089403F001039FED227B37
:101220000193019B8DED047B9FED217B8DED067B72
:1012300002F0E2F93AB010BD022200230AA8CDE97B
:101240000A2303F0EBFA58BB1F4B072404A91F48DD
:10125000D3F8E82042F40032C3F8E820D3F8E820BD
:1012600002F400320292029AD3F8E02042F0010226
:10127000C3F8E020D3F8E030089403F001039FEDB9
:101280000E7B0393039B8DED047B9FED097B8DED1E
:10129000067B02F0B1F93AB010BDFFF707FDA2E7F7
:1012A000FFF704FDD0E700BF0006000002000000C9
:1012B00000000000000000000C0000000200000020
:1012C0000010014000440040004402580000025851
:1012D0000F4B1B780BB90120704710B504464FF433
:1012E0007A700C4AB0FBF3F31068B0FBF3F000F037
:1012F000B9FF0F2C00D808B1012010BD00222146F3
:101300004FF0FF3000F062FF034B00201C6010BD67
:1013100008000020000000200C00002010B5032071
:10132000124C00F041FF02F0EDFE114B11499A6999
:101330009B69C2F3032203F00F038A5CCB5C02F0CB
:101340001F020D4903F01F03D04020FA03F3086089
:101350000F202360FFF7BCFF10B10124204610BD11
:101360000446FFF7A9FD204610BD00BF0400002081
:1013700000440258049E000800000020034A044B69
:1013800011681B780B441360704700BF502C00207D
:1013900008000020014B1868704700BF502C002047
:1013A00038B50446FFF7F6FF0546631C02D0044B30
:1013B0001B781C44FFF7EEFF431BA342FAD338BD52
:1013C00008000020014B1868000C70470010005CFA
:1013D000704700BF704700BF806B08B5FFF7FAFF8A
:1013E00008BD00BF704700BF836B5A6D12F0500FED
:1013F0005A6D10B51DD1196842F400725A650A6819
:1014000012F0080FCA681BD012F4406F0DD1CA68E1
:1014100094040AD45A6D22F480725A655A6DD1042C
:1014200003D45A6D42F001025A651846FFF7D0FF07
:1014300010BDD2060AD4DB6CBDE81040DB6C184747
:101440009007E7D01846FFF7C3FFF1E71846FFF70C
:10145000C9FF10BD806B08B5436D43F04003436581
:10146000836D43F004038365FFF7BCFF08BD00BF35
:10147000F0B5002283B0019290F85020012A00F0CC
:101480003B81034601201A6883F850009468640782
:1014900000F199800C68C4F31305002D40F09E8084
:1014A000C4F38464A0404D684FF01F0ED6694FEA24
:1014B000951C30430CF00C0CD06105F01F0002F1BC
:1014C000300584400EFA00FE5CF8050020EA0E00AC
:1014D00004434CF80540906840077DD4956815F0AA
:1014E000080556D10C68072002F11406B74F4FEAE1
:1014F000D45CC4F304540CF0040C00FA04FE8868B5
:1015000000FA04F45CF8060020EA0E0020434CF8D0
:101510000600386800F07040B0F1805F00F0958000
:10152000D068D668C70600F10781C6F3820648690D
:10153000760000FA06F60F69042F00F0E08002F151
:101540006004086854F827C000F0F8400CF0004C24
:1015500040EA0C00304344F82700487E0E69012819
:1015600054F826000CBF4FF00047002720F0004041
:10157000384344F826000C7E0869012C04D100F0A1
:101580001F004FF400658540106920F4F0400543CA
:1015900015619068C40714D4CE680C6806F018076B
:1015A0008B48D2F8C050F840C4F31307204025EA16
:1015B00007052843C2F8C000864886424DD0002C5B
:1015C00015DB002003E05A6D42F020025A6500222C
:1015D00083F8502003B0F0BD9068DAE794FAA4F5E0
:1015E00015B1B5FA85F5A840C4F384645BE77A4980
:1015F0008A4200F0C78001F580718A4200F0C28003
:10160000764D7748A968806801F0E076C04300F025
:101610000100002800F0C5807248844200F00E816D
:101620007148844200F02D8170488442C9D149023A
:10163000C7D46B498A42C4D1AA68002022F0E07264
:10164000324342F48002AA60C1E7D6684869C6F313
:101650008206760000FA06F66DE7002F73D094FA42
:10166000A4F0002800F0C680B0FA80F0013000F04D
:101670001F00092840F2BE8094FAA4F0002800F070
:101680001481B0FA80F00130800600F0F84094FA3E
:10169000A4F5002D00F00781B5FA85F50126013586
:1016A00005F01F0506FA05F5054394FAA4F4002C8D
:1016B00000F0F780B4FA84F46FF01D06601C00F0AF
:1016C0001F04032010FB0460000540F00070284355
:1016D000072402F11405C60DC0F3045006F00406F9
:1016E00004FA00F7745924EA07048F6807FA00F037
:1016F000204370510C6862E7022003B0F0BD106E09
:101700000C6800F0F840A506B0EB846F30D0506E46
:1017100000F0F840854226D0906E00F0F8408542F7
:101720002BD0D06E00F0F84085427FF432AFD06EFF
:1017300020F00040D0662CE77608486906F00806DD
:1017400000FA06F6F7E6A40E013404F01F06092E8F
:101750002DD8A506012005F0F845B040054306EB5D
:1017600046000005B3E7506E20F000405066D3E716
:10177000106E20F000401066C9E7906E20F0004027
:101780009066CEE714481A4D00F58070A96850F8AD
:10179000F86C8068304301F0E076C04300F001004F
:1017A00037E75A6D012042F020025A650FE706EB39
:1017B0004600A50601241E3805F0F84504FA06F691
:1017C0000005354340F0007081E700BF0010005C69
:1017D000FFFF0F000000FF47002002400063025897
:1017E00000600258000084CB000052C70000B8CF50
:1017F0000023024094FAA4F000285ED0B0FA80F0F2
:101800000130800600F0F84094FAA4F5002D52D083
:10181000B5FA85F50126013505F01F0506FA05F52F
:10182000054394FAA4F4002C42D0B4FA84F40134B1
:1018300004F01F0404EB4404200548E708023FF5C8
:10184000C0AE1F498A427FF4BCAE1E4A1E481268D1
:10185000A968920921F0E071A0FB020231439209CC
:1018600041F400010132A96052000192019A002A5C
:101870003FF4A7AE019A013A0192019A002AF9D1E8
:101880009FE611F080707FF49CAE0D498A427FF490
:1018900098AEAA6822F0E072324342F08072AA60E9
:1018A00095E60A4813E70225FEE64FF08060EEE673
:1018B0004FF440100BE70225B2E74FF08060A3E73A
:1018C0000060025800000020632D3E05000050FE1D
:1018D00003689A6812F0040F9A6870B5044603D141
:1018E000120701D4002070BDDA68960104D5A08AE1
:1018F00040F2011290421AD002299A6840D056074D
:1019000008D59A68900705D498682D4A024042F09D
:1019100010029A60012919D09A68120702D59A68B4
:10192000900734D5032914BF04250C250FE01A684D
:10193000500606D4234A01E0013A18D01968490636
:10194000FAD540221A609A68520727D40425FFF777
:1019500021FD236806469B681D42C3D0FFF71AFD90
:10196000831B052B2368F6D99A682A42F3D0636D4E
:10197000012043F010036365A36D0343A36570BDAD
:10198000150702D59A68920713D50825DFE79868EE
:101990000B4A024042F020029A60C3E79A68960719
:1019A000D4D499680425064A0A4042F010029A608D
:1019B000CDE79968024A0A4042F020029A60E4E7C3
:1019C000C0FFFF7F00DC0C0003689A68D10701D5D7
:1019D000002070479968214A114270B504462CD105
:1019E00099681F4A0A4042F001029A60FFF7D2FC50
:1019F00023681C4A0546934228D002F58072934220
:101A000024D0194A92681A68D60714D4144E9A68DA
:101A1000D00704D49A68324042F001029A60FFF77E
:101A2000B9FC431B022B236802D91A68D10704D5DD
:101A30001A68D207EBD5002070BD636D012043F01A
:101A400010036365A36D0343A36570BD074A9268E5
:101A5000D206D8D0064A9342D5D1ECE73F000080A9
:101A6000C0FFFF7F002002400063025800230240B5
:101A7000002102402DE9F0413E4D044600680F462A
:101A80001646A84219D03C4B984216D03B4DAB6845
:101A90008068420716D494F85020012A12D003F02F
:101AA0001F080122B8F1090F84F850200DD9002336
:101AB000012084F85030BDE8F081314DAB6880687A
:101AC0004207E8D50220BDE8F08140F2212323FA45
:101AD00008F3DB4313EA0205E9D12046FFF774FF60
:101AE000002841D1626D274B2168134043F4807375
:101AF0006365B8F1000F02D01F4B994203D0636DAC
:101B000023F480136365636D13F4805330D0A36DA9
:101B100023F00603A365E06C33461B4D3A46E66AA4
:101B20004031C563194D0564194DC5641C2541F844
:101B3000405C002584F8505051F83C5C45F010059D
:101B400041F83C5C51F8345C25F00305354341F81D
:101B5000345C00F0F1FE22680E4B91680B4043F0BC
:101B600004039360BDE8F08184F85050BDE8F08133
:101B7000A365D0E700200240002102400063025824
:101B800000230240FEF0FFFFE9130008D91300080C
:101B900055140008C0FFFF7F38B503689A689507A1
:101BA00002D59B68002038BD9A68D40729D59A6869
:101BB000044602F00D02012A08D0636D012043F0B3
:101BC00010036365A36D0343A36538BD98680321C3
:101BD0000D4A024042F002029A601960FFF7DAFBF8
:101BE000236805469B68D9070BD5FFF7D3FB401B3D
:101BF0002368022802D99A68D207DED49B68DB07E3
:101C0000F3D4002038BD00BFC0FFFF7F38B590F887
:101C10005030012B26D001230321044680F8503098
:101C2000FFF756FE0546C0B92368E06CDA6822F07B
:101C30000302DA6090F83520022A16D05A6822F0A2
:101C400010025A602046FFF7A7FF054628B9626DCB
:101C5000114B134043F0010363650023284684F8C9
:101C6000503038BD0225284638BD00F0FDFF05463E
:101C700060B1636D2046226843F04003636553689A
:101C800023F010035360FFF787FFE6E722685368ED
:101C900023F010035360D5E7FEEEFFFF38B5574A37
:101CA00004460368934226D002F58072934222D004
:101CB000534B9B6813F4403F22D002F0EBFB636868
:101CC0000546B3F5003F00F08880B3F5403F6CD087
:101CD000B3F5803F00F08180FFF774FB41F203030E
:101CE00098424BD8474B9D422AD92268936843F4C7
:101CF0008073936038BD444B9B6813F4403FDCD144
:101D00004FF40020002103F09BFD63680546B3F506
:101D1000101F6CD008D8B3F5E01F50D016D9B3F51A
:101D2000001FD9D14509D7E7B3F5201F45D0B3F53A
:101D3000301FD1D1FFF746FB41F20303984240D850
:101D40002268936823F48073936038BDB3F5801FD5
:101D500006D00AD9B3F5A01F02D0B3F5C01FBBD17E
:101D60009B0C5B00B5FBF3F5B6E7B3F5002FF7D09E
:101D700023F40022B2F5802FF2D0ADE7234B9D4231
:101D800005D82268936823F44073936038BD204BD4
:101D90009D421AD91F4B22689D42936829D823F48B
:101DA000407343F40073936038BD8508FFF70AFB66
:101DB00041F203039842E1D894E7C5098CE705098D
:101DC0008AE7124BB3EB152FDBD22268936823F41A
:101DD000407343F48073936038BD1B0CB5FBF3F57F
:101DE000FFF7F0FA41F203039842C7D87AE7850972
:101DF00072E743F44073936038BD00BF0020024097
:101E000000630258002D31010023024021BCBE00B6
:101E100041787D0181F0FA0270B5002382B0019310
:101E2000002800F0D180456D0446002D00F0BB80F5
:101E3000226893689D0003D59168724B0B409360B4
:101E40009368D80016D4704B70491B6890689B0942
:101E5000A1FB03136E499B090140013341F08051FE
:101E600091600193019B2BB1019B013B0193019B6D
:101E7000002BF9D19368D90024D4636D012543F078
:101E800010036365A36D2B43A365936813F0040FE0
:101E9000636D1DD1DB061BD4636D23F4817343F0A6
:101EA000020363659368DE0728D45A4B9A4217D021
:101EB00003F580739A4213D0574B9B68D9071DD402
:101EC000564A15E09368002513F0040F636DE1D0C6
:101ED000636D012543F010032846636502B070BDB1
:101EE0004C4A4F4B92689B681343D80706D44D4A1F
:101EF0009368616823F47C130B439360FFF762FAE5
:101F000041F20303A1689842237F52D894F815C088
:101F10001A04206B42EA4C3202430A43012B03D1DC
:101F2000236A013B42EA4342636A23B103F47873B4
:101F3000A16A0B431A4323683B49D86801400A430E
:101F4000DA609A6812F0040F9A681CD112071AD44A
:101F5000D868364A217D024042EA8132E16A0A436A
:101F6000DA6094F83820012A3AD01A6922F0010286
:101F70001A611A692046616B22F070420A431A61A5
:101F8000FFF78CFE2368E268012A21D01A6B22F049
:101F90000F021A63636D284623F0030343F0010325
:101FA000636502B070BDFEF7CBFBA56584F85050A9
:101FB0003EE71029AAD1617D1A0442EA4132216B21
:101FC0000A4342F01C02A9E70125284602B070BD71
:101FD000196BA26921F00F01013A0A431A63D9E78C
:101FE000D4E90F12666C01391869324342EA0142A2
:101FF000A16C0A430E4901400A4342F001021A61F2
:10200000B7E700BFC0FFFF5F00000020632D3E0563
:10201000C0FFFF6F002002400060025800630258BA
:10202000002102400023024003C0F0FFFCBFFFFF7D
:102030001EF800FCF0B5002383B0019390F85030F7
:10204000012B40D0012304460E46154680F850303F
:10205000FFF7A2FDE8B9676D05F080421B4B06F45F
:1020600080311B4D3B401B4F43F0020363652368E7
:102070009E68354015430D4345F000459D609A68C4
:10208000002A0FDB636D23F0030343F00103636554
:1020900003E0636D43F010036365002384F8503060
:1020A00003B0F0BD019A01320192019ABA42E6D31F
:1020B000636D0022012023F0120384F8502043F0C6
:1020C00010036365ECE7022003B0F0BDFDEEFFFFF7
:1020D000C0FFFE3F00F8C325F0B490F850209AB03E
:1020E0000E68012A4DD003462B4C002201201D68AA
:1020F0001692A54283F85000179208D0596D83F8C4
:10210000502041F0200159651AB0F0BC7047234CB3
:10211000A26852070BD5AA685A6D012042F020022E
:102120005A65002283F850201AB0F0BC7047A868A6
:1021300010F00400F0D1C6B1DFF868C04F68DCF8D9
:10214000082022F440423A43CCF80820AD68A26847
:102150002A43D40713D48A68DCF808101643104ABF
:102160000A401643CCF80860DBE70E498A6822F47F
:1021700040428A60A868A2680243D00705D50020C3
:10218000CFE702201AB0F0BC70478C683046044A92
:1021900022408A60C5E700BF0020024000210240C3
:1021A000E0F0FFFF0023024006494FF6FF0C00025B
:1021B000054BCA6800F4E06002EA0C0210430343D6
:1021C000CB60704700ED00E00000FA051B4BDB68B8
:1021D000C3F3022300B5C3F1070E03F1040CBEF1F3
:1021E000040F28BF4FF0040EBCF1060F1AD9033BB1
:1021F0004FF0FF3C0CFA03FC22EA0C024FF0FF3CCC
:1022000000280CFA0EFC21EA0C0101FA03F141EA64
:1022100002010ADB09010A4BC9B2034483F8001327
:102220005DF804FB00221346E8E700F00F00090107
:10223000044BC9B2034419765DF804FB00ED00E0DD
:1022400000E100E0FCEC00E0002807DB012300F0E7
:102250001F01034A40098B4042F82030704700BFFD
:1022600000E100E0431EB3F1807F0CD24FF0E0228A
:10227000002006494FF0F00C5361072381F823C07A
:102280009061136170470120704700BF00ED00E0CE
:102290000268344B344930B4344D354CAA4218BF2F
:1022A0009A420CBF012300238A4208BF43F0010376
:1022B0003031A24208BF43F0010330348A4208BFE4
:1022C00043F001033031A24208BF43F00103303430
:1022D0008A4208BF43F0010301F55C71A24208BFC6
:1022E00043F0010304F55C748A4208BF43F0010324
:1022F0003031A24208BF43F0010330348A4208BFA4
:1023000043F001033031A24208BF43F001033034EF
:102310008A4208BF43F001033031A24208BF43F0B4
:1023200001038A4208BF43F0010313B9114B9A42DB
:1023300013D1D3B21049114C103BA1FB03515F2BB9
:102340000F4BC1F3021103EA0203615C88BF04333F
:10235000C1658365184630BC704722F0FF03836572
:10236000F8E700BF10000240400002402800024091
:1023700058000240B8040240ABAAAAAA149E000862
:1023800000FCFFFF0368294A294930B4294D2A4C33
:10239000AB4218BF93420CBF012200228B4208BF00
:1023A00042F001022831A34208BF42F00102283462
:1023B0008B4208BF42F001022831A34208BF42F01D
:1023C00001028B4208BF42F0010212B91B4A93423C
:1023D00013D1DBB21A4C1B4A0121083B1A4DA4FB56
:1023E0000343456602EB1312C3F30413920001FA90
:1023F00003F30266836630BC7047DAB21349144CAB
:102400001944103AA829A4FB02234FEA131300D859
:102410000833104A03F01F0501210F4C1A44A9404C
:102420004466920081660266E5E700BF08540258E0
:10243000305402581C5402584454025894540258C0
:10244000CDCCCCCC0096001680580258F0FBFDBFD6
:10245000ABAAAAAA0082001080080240F8B5044680
:10246000FEF798FF002C00F0778123680546924A1A
:10247000934248D01832934245D030328F498B4234
:1024800018BF934201F130010CBF012200228B42A0
:1024900008BF42F0010218318B4208BF42F001022E
:1024A00018318B4208BF42F0010218318B4208BF3D
:1024B00042F0010201F556718B4208BF42F0010261
:1024C00018318B4208BF42F0010218318B4208BF1D
:1024D00042F0010218318B4208BF42F0010218316C
:1024E0008B4208BF42F0010218318B4208BF42F014
:1024F000010218318B4208BF42F001021AB9704A3A
:10250000934240F098810022022184F8342084F81C
:1025100035101A6822F001021A6006E0FEF73AFF51
:10252000431B052B00F2FF8023681A68D607F5D4F9
:10253000D4E9022520692A43A1691D680243606924
:102540000243E0690A4302435E482840256A2A4361
:102550005D4D0243606A042800F000812E685B4DE7
:102560003540B5F1005F80F0BB801A605A6922F0F7
:10257000070202435A612046FFF78AFEE26D3F23BD
:1025800002F01F029340836022684B4B50484B4936
:10259000824218BF9A4200F130000CBF0123002391
:1025A0008A4208BF43F001033031824208BF43F042
:1025B000010330308A4208BF43F0010330318242C8
:1025C00008BF43F0010330308A4208BF43F00103E3
:1025D00001F55C71824208BF43F0010300F55C70B5
:1025E0008A4208BF43F001033031824208BF43F002
:1025F000010330308A4208BF43F001033031824288
:1026000008BF43F0010330308A4208BF43F00103A2
:102610003031824208BF43F0010330308A4208BFA4
:1026200043F001032B49824208BF43F001032A48CB
:102630008A4208BF43F001032831824208BF43F0B9
:10264000010328308A4208BF43F001032831824247
:1026500008BF43F0010328308A4208BF43F001035A
:102660002831824208BF43F001038A4208BF43F089
:10267000010313B9194B9A4218D12046FFF782FE85
:10268000A368802B5CD06368A06EDAB2013BD4E90A
:102690001851072B2A60486059D8501E07286ED958
:1026A000626FD4E91B31002018604A6000200123CA
:1026B000606584F83530F8BD1000024040000240EB
:1026C000B80402403F8010FE0010005C0000FFFFD5
:1026D00028000240085402581C54025894540258CE
:1026E0006568A5F129061F2E24D94F3D032D01D879
:1026F00042F480121A6004285A6922F0070242EA62
:1027000000027FF437AFE56AA06A0243002D3FF470
:1027100031AF002969D1012800F0888030F0020132
:102720007FF428AF69E0202203230120626584F84A
:102730003530F8BD734D25FA06F6F507DAD5D7E73B
:102740000023A16ED4E91802636003605160002386
:10275000C4E91B336367A9E70120F8BD2F68D4E9FA
:102760000B562E433243684E3E40B6F1005FB7D25F
:102770001A605A6922F0070242F00402C4E7216895
:10278000624B634DA94218BF994205F114050CBF75
:1027900001230023A94208BF43F001031435A942D5
:1027A00008BF43F001031435A94208BF43F00103F9
:1027B0001435A94208BF43F001031435A94208BFEC
:1027C00043F001033BB9534B994204D0524B534958
:1027D00013449B0003E0524B524913449B000122D7
:1027E0008240C4E91B3162675DE7B1F5005F0ED03E
:1027F000022805D903287FF4BDAEE9017FF5BAAE02
:10280000012340221846626584F83530F8BD03285C
:102810003FF6B0AE01A151F820F000BF012800083A
:10282000FB270008012800082D280008B5F1C07F0B
:102830007FF4A0AEE4E7354A35483B49834218BFF0
:10284000934200F128000CBF012200228B4208BFF6
:1028500042F001022831834208BF42F001022830D1
:102860008B4208BF42F001022831834208BF42F088
:1028700001028B4208BF42F0010212B9254A93427D
:1028800038D100220221294D84F8351084F83420F3
:102890001A681540A268402A2AD0802A0CBF4FF43B
:1028A00080400020266AD4E90312D20842EAD1020D
:1028B000616942EAD102A16942EAD102E16942EAD0
:1028C000D1021B4942EA161219442A43024319480D
:1028D000A0FB010120461A600B099B00E365FFF78E
:1028E000D7FCE26D012302F01F02934043604BE6E8
:1028F0001020D7E7402203230120626584F8353099
:10290000F8BD00BF3F00C0C30000FFFF08540258DD
:102910001C540258945402583F820010400902404F
:102920003F96001640590258305402580F00FEFFDF
:10293000F8ABFDA7CDCCCCCC002800F07781844645
:1029400090F83400012800F0738101202DE9F04750
:102950009CF835408CF83400844208D04FF4006273
:102960000023CCF854208CF83430BDE8F0870220E6
:10297000DCF80040534D8CF835000020524ECCF866
:1029800054005248AC4218BF844205F118050CBFF0
:1029900001200020AC4208BF40F001001835AC42D5
:1029A00008BF40F001001835AC4208BF40F00100FC
:1029B0001835AC4208BF40F0010005F55675AC4231
:1029C00008BF40F001001835AC4208BF40F00100DC
:1029D0001835AC4208BF40F001001835AC4208BFC2
:1029E00040F001001835AC4208BF40F00100183536
:1029F000AC4208BF40F001001835AC4208BF40F0BF
:102A000001001835AC4214BF814640F00109A5F51C
:102A10009265AC4218BFB4420CBF0125002502D01C
:102A2000B9F1000F54D02668DCF858A026F0010652
:102A30002660002D78D0DCE919677760DCF86C70CF
:102A400017B1DCE91C607060DCF85C604FF03F0E91
:102A500006F01F080EFA08FECAF808E0266826F4F9
:102A6000802626606360DCF80830402B00F0E280AE
:102A7000A160E2601DB9B9F1000F00F0E1802368A8
:102A800023F01E0343F016032360DCF840301BB133
:102A9000236843F008032360DCF860301A68D2032F
:102AA00003D51A6842F480721A601FB13B6843F480
:102AB00080733B602368002043F001032360BDE87E
:102AC000F08700BF58000240100002404000024062
:102AD000614F624EDCF858A0B44218BFBC4206F108
:102AE00028060CBF01270027B44208BF47F00107A2
:102AF0001436B44208BF47F001071436B44208BF89
:102B000047F001071436B44208BF47F001072668B2
:102B100026F001062660524EB44208BF47F0010776
:102B200017B9504FBC420BD1DCE919677760DCF86C
:102B30006C7017B1DCE91C064660B9F1000F83D157
:102B4000464FDFF814E1744518BFBC420EF1140E75
:102B50000CBF01270027744508BF47F001070EF19D
:102B6000140E744508BF47F001070EF1140E7445AA
:102B700008BF47F001070EF1140E744508BF47F077
:102B800001070EF1140E744508BF47F0010717B98D
:102B9000344FBC4254D1DCF85C00012700F01F0E1A
:102BA00007FA0EF7CAF804706360DCF80830402BAF
:102BB00043D0A160E260236823F00E0343F00A03D0
:102BC0002360DCF84030002B2DD0236843F0040351
:102BD0002360214B214A944218BF9C4202F12802F3
:102BE0000CBF01230023944208BF43F001031432B9
:102BF000944208BF43F001031432944208BF43F0EB
:102C000001031432944208BF43F00103143294428A
:102C100008BF43F001031432944208BF43F001039C
:102C2000002B3FF447AFDCF86C7035E701207047AC
:102C300002207047A260E1601CE7A260E160BAE791
:102C4000236823F00E0343F00A032360DCF84030CE
:102C5000002BBAD1BDE700BF1C54025808540258DB
:102C6000805402589454025870B50546FEF792FB02
:102C7000002D00F0248195F83530022B40F0DD80E6
:102C80002C6806468F4B9048904A844218BF9C425D
:102C900000F130008E490CBF01230023844208BF9D
:102CA00043F001031830844208BF43F00103183099
:102CB000844208BF43F001031830844208BF43F048
:102CC000010300F55670844208BF43F00103183039
:102CD000844208BF43F001031830844208BF43F028
:102CE00001031830844208BF43F0010318308442C6
:102CF00008BF43F001031830844208BF43F00103CA
:102D00001830844208BF43F001031830844208BFE2
:102D100043F001038C4218BF94420CBF01220022F1
:102D200002D0002B00F09080216821F01E0121606C
:102D3000616921F080016161002A00F0B0802A6E93
:102D4000136823F480731360236823F00103236066
:102D500005E0FEF71FFB831B052B00F2A68023680E
:102D6000DB07F6D42A68574B57485A49824218BFA6
:102D70009A4200F148000CBF012300238A4208BF99
:102D800043F001033031824208BF43F00103303089
:102D90008A4208BF43F0010301F55C71824208BF1B
:102DA00043F0010300F55C708A4208BF43F0010361
:102DB0003031824208BF43F0010330308A4208BFFD
:102DC00043F001033031824208BF43F00103303049
:102DD0008A4208BF43F001033031824208BF43F00A
:102DE00001038A4208BF43F0010318318A4208BF39
:102DF00043F0010333B9A1F59561354B9A4218BFF1
:102E00008A426FD1EA6D3F23A96D02F01F02934001
:102E10008B60EB6ED5E91921516033B11A68D5E9A1
:102E20001C1022F480721A604860002301221846A8
:102E300085F8352085F8343070BD802200230120CC
:102E40006A6585F8343070BD2268234922F00E028D
:102E50002260224A8C4218BF944201F128010CBF23
:102E6000012200228C4208BF42F0010214318C4240
:102E700008BF42F0010214318C4208BF42F0010247
:102E800014318C4208BF42F0010214318C4208BF59
:102E900042F001021AB9124A94427FF455AF296EEA
:102EA0000A6822F480720A604EE720210322002380
:102EB0000120696585F8343085F8352070BD012022
:102EC00070BD00BF580002404000024010000240A8
:102ED0002800024070000240085402581C54025856
:102EE00094540258E86D0121164B00F01F00164C57
:102EF0008140A24218BF9A42A86D0CBF0123002353
:102F0000416012481249824208BF43F00103283051
:102F10008A4208BF43F001032831824208BF43F0D0
:102F200001038A4208BF43F0010314318A4208BFFB
:102F300043F00103002B7FF46CAF064B9A423FF441
:102F400068AF72E71C5402580854025830540258B3
:102F500044540258945402582DE9F04300229C4BEB
:102F600083B09C4E1D688146019203689A4A846D25
:102F7000934218BFB342276808BF0126216818BFD3
:102F8000002645D018329548834218BF934200F17D
:102F900018000CBF01220022834208BF42F0010248
:102FA0001830834208BF42F001021830834208BF44
:102FB00042F001021830834208BF42F0010200F5DE
:102FC0005670834208BF42F001021830834208BFA6
:102FD00042F001021830834208BF42F0010218306B
:102FE000834208BF42F001021830834208BF42F01A
:102FF00001021830834208BF42F0010218308342B8
:1030000008BF42F001021AB9754A934240F050825B
:10301000D9F85C10082201F01F0C02FA0CF21742DA
:1030200040F0888127FA0CF2D2070CD55A691006B5
:1030300009D5012202FA0CF2A260D9F8542042F01C
:103040000202C9F854204FF0040E0EFA0CF0384278
:103050005BD0002E4FD1614ADFF88881434518BF0D
:10306000934208F130080CBF01220022434508BFFB
:1030700042F0010208F11808434508BF42F001027E
:1030800008F11808434508BF42F0010208F118088A
:10309000434508BF42F0010208F55678434508BF92
:1030A00042F0010208F11808434508BF42F001024E
:1030B00008F11808434508BF42F0010208F118085A
:1030C000434508BF42F0010208F11808434508BF14
:1030D00042F0010208F11808434508BF42F001021E
:1030E00008F11808434508BF42F001021AB93C4AEA
:1030F000934240F019821A68920706D5A060D9F869
:10310000542042F00402C9F85420102202FA0CFCA8
:103110001CEA070F6CD0002E45D1304A314EB34225
:1031200018BF934206F130060CBF01220022B342C1
:1031300008BF42F001021836B34208BF42F0010254
:103140001836B34208BF42F001021836B34208BF36
:1031500042F0010206F55676B34208BF42F0010282
:103160001836B34208BF42F001021836B34208BF16
:1031700042F001021836B34208BF42F0010218368D
:10318000B34208BF42F001021836B34208BF42F012
:1031900001021836B34208BF42F001021AB9104AC0
:1031A000934240F0C9811A68100721D5C4F808C0BD
:1031B0001A68560300F14C811A68D20503D41A68C4
:1031C00022F008021A60D9F840308BB10CE000BF41
:1031D0000000002010000240280002405800024079
:1031E000B80402404000024048469847D9F85C10B5
:1031F00001F01F0120268E403E4268D0D9F8002001
:10320000A54BA64FBA4218BF9A4207F118070CBF48
:1032100001230023BA4208BF43F001031837BA4222
:1032200008BF43F001031837BA4208BF43F0010357
:103230001837BA4208BF43F001031837BA4208BF33
:1032400043F001031837BA4208BF43F0010307F502
:103250005677BA4208BF43F001031837BA4208BF95
:1032600043F001031837BA4208BF43F0010318378F
:10327000BA4208BF43F001031837BA4208BF43F00F
:1032800001031837BA4208BF43F001031837BA42A6
:1032900008BF43F001031BB9814B9A4240F06281A1
:1032A0001368DB0613D5A66099F83530042B136834
:1032B00000F0AE8013F4802F136800F0D3801C035D
:1032C00040F1DE80D9F83C300BB148469847D9F838
:1032D0005430002B00F0B980D9F85430D8071FD5EE
:1032E000D9F80020042189F83510136823F0010370
:1032F00013606C4BA3FB0535AD0A02E01368D907D8
:1033000004D5019B0133AB420193F7D91368DB0766
:103310004CBF0323012389F83530002389F834306A
:10332000D9F84C30002B00F09080484603B0BDE83F
:10333000F0431847186840070AD5186820F00400C1
:103340001860A260D9F8542042F00102C9F8542054
:1033500027FA0CF2D2077FF576AE534A53488342E0
:1033600018BF934200F130000CBF012200228342BB
:1033700008BF42F001021830834208BF42F0010248
:103380001830834208BF42F001021830834208BF60
:1033900042F0010200F55670834208BF42F001027C
:1033A0001830834208BF42F001021830834208BF40
:1033B00042F001021830834208BF42F00102183087
:1033C000834208BF42F001021830834208BF42F036
:1033D00001021830834208BF42F0010218308342D4
:1033E00008BF42F00102002A7FF420AE002E7FF4D5
:1033F0001DAE1A68042202FA0CF23A4240F09480A0
:10340000102202FA0CFC17EA0C0F3FF4F1AE84E62E
:1034100023F016031360536923F080035361D9F836
:1034200040309BB3136823F0080313603F2301254A
:10343000002203FA01F1D9F85030A16089F8355023
:1034400089F83420002B7FF470AF03B0BDE8F0831F
:103450001B6818037FF5B7AED9F84830002B7FF40E
:10346000C3AEC5E613F480737FF42CAF116821F06E
:1034700010011160012289F8343089F8352021E7E4
:10348000D9F84430002B7FF420AF20E7D9F848303A
:10349000002BC7D1CAE700BF10000240280002403D
:1034A000B8040240B5814E1B580002404000024063
:1034B0004E4A4F4DAB4218BF934205F114050CBF65
:1034C00001220022AB4208BF42F001021435AB4298
:1034D00008BF42F001021435AB4208BF42F00102BE
:1034E0001435AB4208BF42F001021435AB4208BFAD
:1034F00042F0010212B93F4A9342A6D1D9F85C507A
:1035000004261A6805F01F05AE400E4219D0570771
:1035100017D5100466604BD5D1034FD4D9F8483085
:10352000002B7FF402AF90E71A68102202FA0CFC1D
:1035300017EA0C0F3FF45CAE1A6852077FF558AEDD
:1035400034E60226AE400E4211D097070FD56660D2
:10355000140439D5D00343D4D9F84430002B7FF478
:10356000E4AE72E713689F077FF5B1AE9BE60826CD
:10357000AE400E423FF469AF11077FF566AF1A689F
:10358000002122F00E021A600123D9F84C2003FA20
:1035900005F56560C9F8543089F8341089F835307C
:1035A000002A3FF452AF484603B0BDE8F04310474D
:1035B000920603D41A6822F004021A60D9F8403047
:1035C000002B7FF4B2AE40E712F0200208D1196858
:1035D000012421F00A01196089F8354089F8342066
:1035E000D9F83C30002B7FF4A0AE2EE708540258E7
:1035F0001C540258945402582DE9F04F0C6883B0C3
:10360000002C00F0A6804FF0000C8E4F6346012284
:103610009A4012EA040E00F095804D6805F0030907
:1036200009F1FF36012E40F29780B9F1030F40F007
:10363000D18009FA0CF26FEA0208066815F4403FDF
:1036400006EA080842EA080202607BD0D7F8F420B4
:1036500023F0030803F0030942F0020208F1B04826
:103660004FEA8909C7F8F42008F58068D7F8F420F4
:1036700002F002020192019A0F22D8F8086002FAC1
:1036800009F226EA0202704EB04229D006F58066A1
:10369000B04200F0AC806D4EB04200F0AE806C4E97
:1036A000B04200F09E806B4EB04200F0B2806A4E95
:1036B000B04200F0B480694EB04200F0A480684E81
:1036C000B04200F0B280674EB04200F0B480664E67
:1036D000B0420CBF09260A2606FA09F942EA090295
:1036E000C8F808204FF0B042EE026FEA0E081268E8
:1036F0004FF0B04654BF08EA02024EEA02023260BE
:10370000AA0276684FF0B04254BF08EA06064EEAB5
:1037100006065660D2F88460AA034FF0B04254BF48
:1037200008EA06064EEA0606ED034FF0B045C2F879
:103730008460D2F8802054BF08EA02024EEA0202F6
:10374000C5F8802001330CF1020C34FA03F27FF447
:103750005EAF03B0BDE8F08F4FF00308866808FA4B
:103760000CF826EA080ACE686FEA080806FA0CF692
:1037700046EA0A068660C5F30016D0F804A09E400B
:103780002AEA020232434260C268B9F1020F8E682F
:1037900002EA080206FA0CF646EA020609FA0CF2F8
:1037A000C6607FF44AAF03F007064FEAD3094FEA39
:1037B000860B0F2600EB890906FA0BF6D9F820A034
:1037C0002AEA060A0E6906FA0BF646EA0A06C9F85C
:1037D000206032E74FF0030808FA0CF86FEA080897
:1037E000D2E7032606FA09F942EA090278E7012638
:1037F00006FA09F942EA090272E7022606FA09F90D
:1038000042EA09026CE7062606FA09F942EA0902C9
:1038100066E7042606FA09F942EA090260E7052686
:1038200006FA09F942EA09025AE7072606FA09F9EF
:1038300042EA090254E7082606FA09F942EA0902AF
:103840004EE700BF0044025800000258000802582A
:10385000000C0258001002580014025800180258B8
:10386000001C0258002002580024025802B9090422
:103870008161704700284ED010B590F84130044661
:1038800003F0FF02002B41D023682421626884F8F2
:103890004110196822F07062E06821F001010128EE
:1038A00019601A619A6822F400429A60A26829D0CD
:1038B00042F4044202289A6002D14FF400625A6036
:1038C00058684FF0200C1549226901435960D968A6
:1038D00021F40041D960D4E90501024342EA012202
:1038E000D4E90710DA600022014310461960196814
:1038F00041F001011960626484F841C0226384F8D8
:10390000422010BD42F400429A60D9E780F840207E
:10391000FDF776F8B8E70120704700BF008000028D
:1039200090F84120202A23D15FFA82FC90F84020B1
:103930000346012A1CD00268242000B583F8410008
:103940004FF0000E106820F001001060106820F4A5
:10395000805010601068014370461160116841F09A
:103960000101116083F841C083F840E05DF804FB79
:103970000220704790F84120202A22D1034600B54A
:103980005FFA82FE90F84020012A1CD002682420B1
:103990004FF0000C83F84100106820F00100106027
:1039A000106820F4706040EA0121604611601168DF
:1039B00041F00101116083F841E083F840C05DF8F7
:1039C00004FB0220704702205DF804FB38B5104C60
:1039D000E36813F0040FE36805D103F00703181A36
:1039E00018BF012038BD23F007031843E060FDF73E
:1039F000D1FC054605E0FDF7CDFC401BB0F57A7F14
:103A000004D863689B04F6D5002038BD012038BD7A
:103A1000004802583B4B30B49A6A9C6ADD6A14F441
:103A20007C7F596BC4F3051038D0C1F3CC0105F08D
:103A3000010502F0030205FB01F1012A07EE901ACD
:103A4000B8EEE77A02D0022A4ED04AB307EE900AC7
:103A5000DFED2D6AF8EEE77A1B6B86EEA76ADFEDE5
:103A60002B5AC3F3080306EE903AB7EE005AF8EE6D
:103A7000E66A76EE856AE7EE256A66EE266A214BEF
:103A80001B6BC3F34623013307EE903AB8EEE77A97
:103A9000C6EE877AFCEEE77A17EE900A30BC7047E4
:103AA0001A68920627D5196807EE900A184AB7EEE9
:103AB000006A1B6BC1F3C101F8EEE77A9FED135A60
:103AC000C3F30803CA4006EE903A05EE902AF8EEDA
:103AD000E66AF8EEE55A76EE866A85EEA76AE7EEC4
:103AE000056A66EE266ACAE707EE900ADFED096A04
:103AF000F8EEE77AB0E707EE900ADFED076AF8EE36
:103B0000E77AA9E7004402580024744A000000390B
:103B10000090D00320BCBE4B0024744C002800F061
:103B2000E881F8B503680446D9072ED5A4490A6987
:103B3000896A02F03802102A00F00781182A00F082
:103B4000FF806368B3F5803F00F02A81002B00F00E
:103B50006881B3F5A02F9A4B1A6800F0898222F48D
:103B600080321A601A6822F480221A60FDF712FC73
:103B7000934E054605E0FDF70DFC401B642800F25E
:103B80004E8133689B03F6D523689D0700F18A8038
:103B9000D90633D58A4A1369926A03F03803082B91
:103BA00000F0E380182B00F0DB80E369844D002BEC
:103BB00000F06F812B6843F080032B60FDF7EAFB78
:103BC000064605E0FDF7E6FB801B022800F2278190
:103BD0002B68DB05F6D5FDF7F5FB41F203039842B0
:103BE00000F26D82226A6B68202A23F0F8430CBF32
:103BF00043F0804343EA82636B6023681D0716D558
:103C000063696F4D002B00F022816B6F43F001035D
:103C10006B67FDF7BFFB064605E0FDF7BBFB801BAE
:103C2000022800F2FC806B6F9807F6D523689A068D
:103C300016D5A369624D002B00F01A812B6843F45E
:103C400080532B60FDF7A6FB064605E0FDF7A2FBBF
:103C5000801B022800F2E3802B689F04F6D52368BE
:103C6000590700F1A380606AD0B1554D2B6903F06C
:103C70003803182B00F0AE812B68022823F08073E4
:103C80002B6000F04281FDF785FB044605E0FDF75F
:103C900081FB001B022800F2C2802B689B01F6D436
:103CA0000020F8BD464A1369926A13F038032DD1FB
:103CB000434BE2681B68590701D5002A4ED0404D9E
:103CC0002B6823F0190313432B60FDF763FB0646B3
:103CD00005E0FDF75FFB801B022800F2A0802B6847
:103CE0005B07F6D5FDF76EFB41F20303984200F245
:103CF000F78022696B68402A23F47C330CBF43F4BD
:103D0000003343EA02336B60236841E7182B00F06D
:103D1000E3802B4DE2682B68002A00F0CC8023F072
:103D2000190313432B60FDF735FB064604E0FDF74E
:103D300031FB801B022872D82B685F07F7D5D1E7CB
:103D400001F0030102297FF4FCAE1D4A12689203C0
:103D50007FF51BAF6268002A7FF417AF0120F8BD22
:103D600002F00302012A7FF420AF154B1B68DA052D
:103D700002D5E369802BF1D1FDF724FB41F2030367
:103D8000984200F2B880226A202A00F0A7810C49EC
:103D90004B6823F0F84343EA82634B6023682DE7C6
:103DA000074A136843F480331360DFE6054D2B6840
:103DB00043F480732B60FDF7EDFA064609E000BF7F
:103DC0000044025800480258FDF7E4FA801B6428BA
:103DD00025D82B68DA05F7D5A368012B00F0788188
:103DE000002B00F05381052BA54B1A6F00F07F814B
:103DF00022F001021A671A6F22F004021A67FDF717
:103E0000C9FA9F4E41F28837054604E0FDF7C2FA31
:103E1000401BB84203D8336F9B07F7D523E7032035
:103E2000F8BD974D2B6823F480332B602B6823F467
:103E300080232B60FDF7AEFA064604E0FDF7AAFAF0
:103E4000801B6428EBD82B689F03F7D49CE66B6F2C
:103E500023F001036B67FDF79DFA064604E0FDF7CA
:103E600099FA801B0228DAD86B6F9907F7D4DDE640
:103E70002B6823F480532B60FDF78CFA064604E090
:103E8000FDF788FA801B0228C9D82B689804F7D45C
:103E9000E5E62B6823F080032B60FDF77BFA0646EE
:103EA00004E0FDF777FA801B0228B8D82B68DF05FD
:103EB000F7D42368A2E623F001032B60FDF76AFA2A
:103EC000064604E0FDF766FA801B0228A7D82B6897
:103ED0005807F7D423685BE690077FF41AAFE7E64C
:103EE0006B68226923F0FE4343EA02636B60236838
:103EF0004EE601207047624A216AD36823F07C5362
:103F000043EA0163D360236878E6FDF743FA064687
:103F100004E0FDF73FFA801B022880D82B68990146
:103F2000F7D4A96A574BA26A0B405749544E134322
:103F3000E26A43EA0213AB62D4E90D32013B013A73
:103F40005B0212049BB202F4FE021343226B013A9D
:103F5000C2F308021343E26B013A120602F0FE427A
:103F600013432B63EB6A23F00103EB626A6BA36CD0
:103F7000114041EAC3016963EB6A226C23F00C0330
:103F80001343EB62EB6A626C23F002031343EB62B0
:103F9000EB6A43F48033EB62EB6A43F40033EB6289
:103FA000EB6A43F48023EB62EB6A43F00103EB62BC
:103FB0002B6843F080732B60FDF7ECF9044605E0B5
:103FC000FDF7E8F9001B02283FF629AF33689A0194
:103FD000F6D565E60128AA6A2E6B3FF462AE02F0C0
:103FE0000303A16A8B427FF4B9AEC2F30512E36A00
:103FF0009A427FF4B3AE236BC6F30802013B9A42A8
:104000007FF4ACAE636BC6F34622013B9A427FF469
:10401000A5AEA36BC6F30642013B9A427FF49EAE67
:10402000E36BC6F30666013B9E427FF497AE6B6B73
:10403000A26CC3F3CC039A423FF432AE104AD36A67
:1040400023F00103D362FDF7A5F90546FDF7A2F9B8
:10405000A842FBD00A4A0020A16C0B4B546B2340B2
:1040600043EAC1035363D36A43F00103D362F8BD4B
:1040700042F480221A601A6842F480321A6075E5B0
:10408000004402580CFCFFFF0700FFFF1C4D41F2EB
:1040900088372B6F23F001032B672B6F23F004036A
:1040A0002B67FDF777F9064605E0FDF773F9801BEE
:1040B000B8423FF6B4AE2B6F9807F6D4D3E5EB6861
:1040C000226A23F07C5343EA0263EB60236895E5A0
:1040D0000B4A136F43F00103136790E6084A5368D5
:1040E00023F0F84343F080435360236886E542F0B1
:1040F00004021A671A6F42F001021A677FE600BFD6
:1041000000440258474A136903F03803102B04D0C7
:10411000182B0DD01BB144487047444870471368B2
:1041200099064AD513684248C3F3C103D840704783
:10413000936A30B4946AD56A14F47C7F516BC4F3EB
:10414000051038D0C1F3CC0105F0010503F00303DD
:1041500005FB01F1012B07EE901AB8EEE77A02D0C9
:10416000022B2CD093B307EE900ADFED326AF8EE03
:10417000E77A136B86EEA76ADFED2F5AC3F30803C5
:1041800006EE903AB7EE005AF8EEE66A76EE856AE9
:10419000E7EE256A66EE266A224B1B6BC3F34623C5
:1041A000013307EE903AB8EEE77AC6EE877AFCEE76
:1041B000E77A17EE900A30BC70471D48704707EE4B
:1041C000900ADFED1E6AF8EEE77AD2E713689B06E5
:1041D00020D5146807EE900A1549B7EE006A136BF4
:1041E000C4F3C104F8EEE77A9FED135AC3F3080352
:1041F000E14006EE903A05EE901AF8EEE66AF8EE27
:10420000E55A76EE866A85EEA76AE7EE056A66EEFF
:10421000266AC1E707EE900ADFED096AF8EEE77A51
:10422000A7E700BF0044025800093D0040787D0127
:104230000090D0030024744A0000003920BCBE4B1B
:104240000024744C002800F00C818C4A136803F0A1
:104250000F038B422DE9F04104460D460CD2136842
:1042600023F00F030B431360136803F00F038B421B
:1042700002D00120BDE8F08123685F070BD580499B
:1042800020698A6902F07002904204D98A6922F09A
:10429000700202438A611E070BD579496069CA69B9
:1042A00002F07002904204D9CA6922F070020243FF
:1042B000CA61D8060BD57249A069CA6902F4E062E6
:1042C000904204D9CA6922F4E0620243CA619906A5
:1042D0000BD56B49E0690A6A02F07002904204D97A
:1042E0000A6A22F0700202430A629A0740F1AB8028
:1042F0006348E168826902F00F02914204D9826941
:1043000022F00F020A438261D80730D55C4AA168C7
:10431000936923F470630B43936161681368022906
:1043200000F0A180032900F09880012900F0A1800D
:1043300058079ED5524E41F28838336923F007035F
:104340000B433361FDF726F8074605E0FDF722F839
:10435000C01B404500F28B803369626803F038036C
:10436000B3EBC20FF2D12368990706D5E168444840
:10437000826902F00F028A4269D840490A6802F055
:104380000F02AA420AD90A6822F00F022A430A60E1
:104390000A6802F00F02AA427FF46BAF5A070BD5EE
:1043A000374920698A6902F07002904204D28A6912
:1043B00022F0700202438A611F070BD53049606901
:1043C000CA6902F07002904204D2CA6922F07002F7
:1043D0000243CA61DE060BD52949A069CA6902F405
:1043E000E062904204D2CA6922F4E0620243CA61E8
:1043F0009D060BD5224AE169136A03F070039942C6
:1044000004D2136A23F070030B431362FFF77AFEA2
:104410001B4A03461B4891699269C1F303211A4D57
:1044200002F00F02194C415C825C01F01F01184838
:1044300002F01F02CB4000682B60D3402360BDE830
:10444000F041FCF745BFDA073FF560AF95E78269B9
:1044500022F00F02114381618FE79F013FF56AAFA0
:1044600007E7012070479B033FF564AF01E7032096
:1044700000E7DE053FF55EAFFBE600BF002000521F
:1044800000440258049E00080000002004000020A0
:104490000C000020184A38B5136903F03803102BBC
:1044A0001AD0182B23D0CBB11448134B14499A6956
:1044B0009B69C2F30322134C03F00F03124D8A5C75
:1044C000CB5C02F01F0220FA02F203F01F0022FA76
:1044D00000F02A60206038BD0C48E6E713689B06B0
:1044E00008D512680A48C2F3C102D040DDE7FFF7E1
:1044F00091FADAE70648D8E70044025800093D007F
:10450000049E0008040000200000002040787D0187
:104510000090D0031C4A38B5136903F03803102B00
:1045200021D0182B2BD003B31848174A1849936988
:10453000184DC3F30323184CCB5C03F01F0320FA80
:1045400003F3906900F00F002B60085C00F01F007F
:10455000C3402360D269C2F30212885C00F01F00DE
:1045600023FA00F038BD0D48DFE713689B0609D534
:1045700010680B4BC0F3C10023FA00F0D5E7FFF73A
:1045800049FAD2E70648D0E70044025800093D0046
:10459000049E0008000000200400002040787D01F7
:1045A0000090D0031C4A38B5136903F03803102B70
:1045B00021D0182B2BD003B31848174A18499369F8
:1045C000184DC3F30323184CCB5C03F01F0320FAF0
:1045D00003F3906900F00F002B60085C00F01F00EF
:1045E000C3402360D269C2F30222885C00F01F003E
:1045F00023FA00F038BD0D48DFE713689B0609D5A4
:1046000010680B4BC0F3C10023FA00F0D5E7FFF7A9
:1046100001FAD2E70648D0E70044025800093D00FD
:10462000049E0008000000200400002040787D0166
:104630000090D003F8B53A4CA36A03F00303032BB0
:1046400067D0236806460F4623F080632360FCF79B
:10465000A1FE054604E0FCF79DFE431B022B56D845
:1046600023681A01F7D4A36A326823F47C3343EA3F
:104670000233A362D6E90232013B013A5B02120423
:104680009BB202F4FE0213437268013AC2F30802BD
:1046900013433269013A120602F0FE421343A36348
:1046A000E36A726923F0C0031343E362E26AB36909
:1046B00022F020021A431B4BE262E26A22F010024F
:1046C000E262E16BF2690B4043EAC203E363E36A2F
:1046D00043F01003E362E36AEFB1012F0CBF43F430
:1046E000801343F40013E3620D4C236843F08063AE
:1046F0002360FCF74FFE054604E0FCF74BFE401B31
:10470000022804D823681B01F7D50020F8BD032038
:10471000F8BD0120F8BD43F40023E362E4E700BFE5
:10472000004402580700FFFFF8B53A4CA36A03F0B3
:104730000303032B67D0236806460F4623F08053FC
:104740002360FCF727FE054604E0FCF723FE431B2D
:10475000022B56D823689A00F7D4A36A326823F054
:104760007C7343EA0253A362D6E90232013B013A69
:104770005B0212049BB202F4FE0213437268013A18
:10478000C2F3080213433269013A120602F0FE42F4
:1047900013432364E36A726923F440631343E362BF
:1047A000E26AB36922F400721A431B4BE262E26AC6
:1047B00022F48072E262616CF2690B4043EAC20348
:1047C0006364E36A43F48073E362E36AEFB1012F49
:1047D0000CBF43F4000343F08073E3620D4C236885
:1047E00043F080532360FCF7D5FD054604E0FCF759
:1047F000D1FD401B022804D823689B00F7D5002078
:10480000F8BD0320F8BD0120F8BD43F48003E36246
:10481000E4E700BF004402580700FFFF2DE9F8431A
:10482000D0E9003204461D0103F0006623D5816EF5
:10483000B1F5001F00F04F8512D8002900F0A585C2
:10484000B1F5801F40F09E8502210830FFF7F2FE8F
:104850000646002E40F01E85A16ED4E9003203E02A
:10486000B1F5401F40F08E85AE4D0026286D20F436
:10487000401001432965D8050AD5A16D042906D841
:10488000DFE811F032053905160510031003012683
:10489000354699051DD5E16D802900F0128500F29D
:1048A000F980002900F02084402940F0FA8000219E
:1048B00004F10800FFF7BEFE0546D4E90032002DE2
:1048C00040F0EB83974FE06D396D21F4E0710143C7
:1048D00039655F0521D5D4F8A810B1F5800F00F037
:1048E0001D8500F2E180002900F00584B1F5001F6C
:1048F00040F0E280002104F10800FFF79BFE05462E
:10490000D4E90032002D40F0CF83864FD4F8A800C0
:10491000B96D21F460010143B965180521D5D4F8BA
:10492000AC10B1F1007F00F0B98400F2C88000291A
:1049300000F0D483B1F1807F40F0C980002104F100
:104940000800FFF777FE0546D4E90032002D40F05D
:10495000A283744FD4F8AC00B96D21F0E06101433B
:10496000B965990118D5E16C202900F01E8400F288
:10497000B18039B1102940F0B0806A48C16A41F471
:104980000031C162002D40F0D383664FE06CF96CBA
:1049900021F030010143F964DF041FD5216EB1F528
:1049A000005F00F0B18400F29B80002900F090834A
:1049B000B1F5805F40F09C80002104F10800FFF712
:1049C00039FE0546D4E90032002D40F06883554F8A
:1049D000206E396D21F4E0410143396598041DD5FD
:1049E000616EB1F5003F00F00F8400F2848059B190
:1049F000B1F5803F40F08780012104F10800FFF706
:104A000019FE0546D4E90032002D40F09B83454F46
:104A1000606E396D21F4E0210143396559041DD5DB
:104A2000D4F8B010B1F1005F00F0FA836ED851B144
:104A3000B1F1805F72D1012104F10800FFF7FAFDA6
:104A40000546D4E90032002D40F08083354FD4F87C
:104A5000B000B96D21F0E0410143B9651F040DD5E7
:104A6000216FB1F1805F00F0C783B1F1005F00F00A
:104A70002582002900F02A8201263546D8015FD51B
:104A8000A16C032900F2BB84DFE811F05600E103BA
:104A90004E005600C0293FF412AFB1F5807F3FF4BD
:104AA0000EAF0126354614E7B1F5C00F3FF42AAF2B
:104AB000B1F5000F3FF426AF012635462DE7B1F1E1
:104AC000407F3FF443AFB1F1806F3FF43FAF012629
:104AD000354646E730293FF455AF012635465BE7BA
:104AE000B1F5405F3FF470AFB1F5804F3FF46CAF6C
:104AF0000126354672E721F48030B0F5802F83D04F
:104B0000B1F5403F80D00126354687E721F080503F
:104B1000B0F1804F97D0B1F1405F94D00126354677
:104B20009CE700BF00440258022104F10800FFF78F
:104B300081FD0546D4E90032002D00F0FB822E46AF
:104B4000590200F15A82D8072FD5E16F28292AD8B7
:104B5000DFE811F0FA0129002900290029002900C5
:104B6000290029000604290029002900290029001C
:104B700029002900F2012900290029002900290023
:104B800029002900FA01290029002900290029000B
:104B900029002900FA0129002900290029002900FB
:104BA00029002900FA0101263546990717D5A16F7A
:104BB000052900F22084DFE811F00E00BB03060097
:104BC0000E000E000E00012104F12800FFF7ACFDDD
:104BD0000546D4E90032002D00F099822E465F0789
:104BE00018D5D4F89410052900F20D84DFE811F0EF
:104BF0000E00AC0306000E000E000E00012104F1B1
:104C00002800FFF791FD0546D4E90032002D00F0A1
:104C100086822E4698061FD5D4F89010B1F1005F19
:104C200000F0098300F20B8159B1B1F1805F40F0CF
:104C30001081002104F10800FFF7FCFC0546D4E9CF
:104C40000032002D40F05F82A64FD4F89000796DBD
:104C500021F0E0410143796559061FD5D4F89C1035
:104C6000B1F5006F00F0B28200F2F68059B1B1F5F3
:104C7000806F40F0FB80002104F10800FFF7DAFCB0
:104C80000546D4E90032002D40F06282954FD4F8F9
:104C90009C00B96D21F4E0510143B9651F061FD591
:104CA000D4F8A010B1F5804F00F09B8200F2E180B3
:104CB00059B1B1F5005F40F0E680002104F1080031
:104CC000FFF7B8FC0546D4E90032002D40F03C82E5
:104CD000844FD4F8A000B96D21F460410143B96557
:104CE00018070BD5D4F88400B0F5805F00F0B882C7
:104CF0007C4F796D21F4405101437965D9060BD57C
:104D0000D4F89800B0F5807F00F0B782754FB96D88
:104D100021F440710143B9651F030ED5D4F8A410E6
:104D2000B1F5803F00F0F480B1F5003F00F0F8806D
:104D3000002900F02E820126354658030FD5D4F8FD
:104D40008810B1F5001F00F0CF80B1F5401F00F0D2
:104D5000D380B1F5801F00F0148201263546D903B7
:104D600009D5216D002900F00382B1F5803F00F0E4
:104D70009D81012635469F0000F1F18098030CD5F6
:104D8000D4F88010B1F5807F00F0EA817ED921F45B
:104D90008070B0F5007F7BD00126D90206D551483E
:104DA000656F016D21F0004129430165DF0007D5E2
:104DB0004C48D4F8B850016921F48041294301617D
:104DC0009D0206D54748E56E016D21F080712943AB
:104DD0000165580009D54349086920F4004008617D
:104DE0000869D4F8BC5028430861002B06DA3D4816
:104DF000656DC16C21F040512943C164190207D58A
:104E00003849D4F88C004B6D23F4400303434B65C1
:104E1000D30700F1B080970700F1BA80550700F181
:104E2000C480100700F1CE80D10600F1D880920630
:104E300000F12581301E18BF0120BDE8F88321F064
:104E40008050B0F1804F3FF4FCAEB1F1405F3FF4D1
:104E5000F8AE01263546FFE621F48060B0F5805FAC
:104E60003FF411AFB1F5406F3FF40DAF0126354669
:104E700014E721F40050B0F5004F3FF426AFB1F530
:104E8000C04F3FF422AF0126354629E7002983D1E0
:104E9000002D40F06381134D686D20F44070014394
:104EA00069657AE73546002D40F0FB800D4FA06D17
:104EB000396D21F0070101433965EAE4012104F16C
:104EC0000800FFF7B7FB0546D4E90032002D40F09B
:104ED0001C81044F206F396D21F040510143396529
:104EE000CCE500BF00440258012104F12800FFF77F
:104EF0001BFC0546D4E90032002D40F02D81B14F56
:104F0000D4F88800796D21F440110143796526E7D2
:104F1000022104F12800FFF707FC0546D4E900321E
:104F2000002D40F01781A74FD4F8A400B96D21F4EB
:104F300040310143B96500E7012104F12800FFF782
:104F4000F3FB0546D4E90032002D40F0DA809D4F96
:104F5000E06F796D21F038010143796525E6022182
:104F600004F12800FFF7E0FBD4E9003200283FF409
:104F700005AF012602E7002104F10800FFF75AFB04
:104F8000626800283FF447AF970706467FF546AFB3
:104F9000012104F10800FFF74DFB626800283FF48F
:104FA0003DAF550706467FF53CAF022104F10800EE
:104FB000FFF740FB626800283FF433AF0646100756
:104FC0007FF532AF002104F12800FFF7ADFB6268E6
:104FD00000283FF429AFD10606467FF528AF04F13B
:104FE000280501212846FFF79FFB002800F0DB8001
:104FF00063689B064CD5064643E0734F3B6843F419
:1050000080733B60FCF7C6F9804606E0FCF7C2F906
:10501000A0EB0800642800F2AF813B68DA05F5D503
:10502000002D40F0E381674AD4F8B430116F594045
:1050300011F4407F0BD0116F106F21F4407140F4D8
:1050400080301067106F20F4803010671167B3F55F
:10505000807F00F0AD8103F44072B2F5407F00F034
:10506000BB8158490A6922F47C520A615548C3F34E
:105070000B01076F3943D4E90032016763E504F19E
:10508000280502212846FFF74FFB00283FF4D2AE47
:105090000120BDE8F8832E4663E42E4619E42E462F
:1050A0009CE42E46FFF7F5BB2E4636E4022104F1C0
:1050B0000800FFF7BFFA0546D4E90032002D5ED1A3
:1050C000404F206DF96C21F480310143F96452E6C0
:1050D0003C48C16A41F40031C16275E43948C16A93
:1050E00041F40031C16231E43648C16A41F4003113
:1050F000C162FFF7E4BB3348C16A41F40031C162C9
:1051000000E42E4651E52E46A6E52E46B6E42D4F88
:10511000A06F796D21F00701014379655FE5294FA3
:10512000D4F89400B96D21F007010143B96571E528
:105130002E4631E4234FA06CF96C21F003010143AA
:10514000F964FDE42E4669E42E46C9E52E4685E461
:105150002E46A3E52E46F0E52E4600E62E461CE63A
:10516000184FF86A40F40030F862002DF6D192E64C
:105170001448C16A41F40031C162002DA0D02E460E
:10518000F9E51048C16A41F40031C162002DE3D154
:10519000B5E604F10800FFF74DFA0546D4E9003200
:1051A000002DD7D1BFE6626841E6022104F1080074
:1051B000FFF740FA0546D4E90032002DB8D1FFF7D9
:1051C000E4BB00BF0044025800480258022104F129
:1051D0002800FFF7A9FA0546D4E90032002DB7D11F
:1051E00054E5022104F12800FFF79EFA0546D4E9B0
:1051F0000032002DA8D16BE58448C16A41F400312A
:10520000C162002D81D164E6012104F12800FFF77D
:105210008BFA0546D4E90032002D93D1FFF7F7BB96
:10522000012104F12800FFF77FFA0546D4E9003296
:10523000002D8BD10AE4022104F12800FFF774FA53
:105240000546D4E90032002D7FF45DAFFCE46F48E1
:10525000C16A41F40031C162002D7FF470AC69E78E
:10526000022104F12800FFF75FFA002840F0948043
:10527000D4F88400D4E900323AE5022104F1280090
:10528000FFF752FA002840F08D80D4F89800D4E956
:1052900000323BE5D4E90032FFF7EDBA002104F11A
:1052A0002800FFF741FA0546D4E90032FFF74EBB6C
:1052B000002104F12800FFF737FA0546D4E900324F
:1052C000F1E5002104F12800FFF72EFA0546D4E9A4
:1052D0000032FFF7F4BA02212830FFF725FA06461C
:1052E000002E3FF4B9AAD5E748483546C16A41F4D3
:1052F0000031C162D7E5002104F10800FFF79AF9F7
:105300000546D4E90032CEE5002104F12800FFF77C
:105310000BFA0546D4E90032FFF756BB002104F131
:105320002800FFF701FA0546D4E90032FFF7EABA90
:10533000012104F10800FFF77DF90546D4E90032A8
:10534000002D7FF44BACE2E6012104F10800FFF7E9
:1053500071F90546D4E90032002D7FF45AACDEE63F
:10536000012104F10800FFF765F90546D4E9003290
:10537000002D7FF4C6AEEAE50326D4E900323546B7
:10538000FFF7E1BB0126FFF776BA204DE86A40F44B
:105390000030E862FFF768BAD4F884000126D4E947
:1053A0000032A5E4D4F898000126D4E90032ADE437
:1053B000FBF7F0FFDFF85480074641F2883904E03C
:1053C000FBF7E8FFC01B4845D6D8D8F870309B07DC
:1053D000F6D5D4F8B4303EE60C480D4A016902EA2D
:1053E000131221F47C510A4302613FE6D4E90032F2
:1053F0002E46FFF7A8BB01263546FFF7F0BB012676
:105400003546FFF79DBB0126354603E400440258AC
:10541000CFFFFF0008B5FFF73DF8054B054A1B6AB3
:10542000C3F30213D35C03F01F03D84008BD00BFD1
:1054300000440258049E00084F4B70B4996A9D6A5C
:10544000DE6A15F47C3FC5F30532DC6B5CD0C4F337
:10545000CC04C6F3001601F0030106FB04F4012995
:1054600007EE904AB8EEE77A03D0022975D00029FA
:105470004FD007EE902ADFED416AF8EEE77A9B6B9A
:1054800086EEA76ADFED3E5AC3F3080306EE903AB4
:10549000B7EE005AF8EEE66A76EE856AE7EE256A20
:1054A00066EE266A344AB7EE006A936BC3F346236E
:1054B00007EE103AB8EEC77A70BC37EE067AC6EE41
:1054C000877AFCEEE77AC0ED007A936BC3F306436C
:1054D00007EE103AB8EEC77A37EE067AC6EE877A4C
:1054E000FCEEE77AC0ED017A936BC3F3066307EE37
:1054F000903AF8EEE77A77EE867A86EEA77ABCEEF7
:10550000C77A80ED027A704770BCC0E900228260E1
:1055100070471968890627D51C6807EE902A194933
:10552000B7EE006A9B6BC4F3C102F8EEE77A9FED19
:10553000145AC3F30803D14006EE903A05EE901AD0
:10554000F8EEE66AF8EEE55A76EE866A85EEA76A28
:10555000E7EE056A66EE266AA4E707EE902ADFED1D
:105560000A6AF8EEE77A8AE707EE902ADFED076A23
:10557000F8EEE77A83E700BF004402580024744A3B
:10558000000000390090D00320BCBE4B0024744CB6
:105590004F4B70B4996A9D6ADE6A15F07C7FC5F343
:1055A00005525C6C5CD0C4F3CC04C6F3002601F059
:1055B000030106FB04F4012907EE904AB8EEE77AEE
:1055C00003D0022975D000294FD007EE902ADFEDD5
:1055D000416AF8EEE77A1B6C86EEA76ADFED3E5A69
:1055E000C3F3080306EE903AB7EE005AF8EEE66A07
:1055F00076EE856AE7EE256A66EE266A344AB7EEED
:10560000006A136CC3F3462307EE103AB8EEC77A6C
:1056100070BC37EE067AC6EE877AFCEEE77AC0ED0C
:10562000007A136CC3F3064307EE103AB8EEC77A5C
:1056300037EE067AC6EE877AFCEEE77AC0ED017A9D
:10564000136CC3F3066307EE903AF8EEE77A77EE51
:10565000867A86EEA77ABCEEC77A80ED027A70472A
:1056600070BCC0E90022826070471968890627D59E
:105670001C6807EE902A1949B7EE006A1B6CC4F348
:10568000C102F8EEE77A9FED145AC3F30803D14044
:1056900006EE903A05EE901AF8EEE66AF8EEE55A54
:1056A00076EE866A85EEA76AE7EE056A66EE266AFA
:1056B000A4E707EE902ADFED0A6AF8EEE77A8AE7B8
:1056C00007EE902ADFED076AF8EEE77A83E700BF7E
:1056D000004402580024744A000000390090D003AE
:1056E00020BCBE4B0024744C4F4B70B4996A9D6A29
:1056F000DE6A15F47C7FC5F305125C6B5CD0C4F3E5
:10570000CC0406F0010601F0030106FB04F40129B4
:1057100007EE904AB8EEE77A7ED0022975D00029CC
:105720004FD007EE902ADFED416AF8EEE77A1B6B67
:1057300086EEA76ADFED3E5AC3F3080306EE903A01
:10574000B7EE005AF8EEE66A76EE856AE7EE256A6D
:1057500066EE266A344AB7EE006A136BC3F346233B
:1057600007EE103AB8EEC77A70BC37EE067AC6EE8E
:10577000877AFCEEE77AC0ED007A136BC3F3064339
:1057800007EE103AB8EEC77A37EE067AC6EE877A99
:10579000FCEEE77AC0ED017A136BC3F3066307EE04
:1057A000903AF8EEE77A77EE867A86EEA77ABCEE44
:1057B000C77A80ED027A704770BCC0E9002282602F
:1057C000704719688906ACD51C6807EE902A1949FC
:1057D000B7EE006A1B6BC4F3C102F8EEE77A9FEDE7
:1057E000145AC3F30803D14006EE903A05EE901A1E
:1057F000F8EEE66AF8EEE55A76EE866A85EEA76A76
:10580000E7EE056A66EE266AA4E707EE902ADFED6A
:105810000A6AF8EEE77A8AE707EE902ADFED076A70
:10582000F8EEE77A83E700BF004402580024744C86
:10583000000000390090D00320BCBE4B0024744A05
:10584000A0F580730B4300B585B000F08480A0F50F
:1058500000730B4339D0A0F580630B4300F0E68062
:10586000A0F500630B4300F08980A0F580530B4343
:1058700061D0A0F500530B4300F01281A0F5002386
:105880000B4300F0A380A0F580330B4300F0FA80B7
:10589000A0F580430B4300F04381A0F5004050EA9F
:1058A000010337D1994A136D03F04053B3F1805F80
:1058B00000F08380B3F1005F00F0568153BB1068A5
:1058C00010F4003044D0924842E0904A136D03F443
:1058D000E073802B00F0A58020D9C02B37D0B3F522
:1058E000807F17D1D36C116803F04053490702D56C
:1058F000002B00F0C180854A1268D00503D5B3F1B2
:10590000805F00F00181814A1268910302D5B3F1F2
:10591000005FD8D0002005B05DF804FB002B4CD010
:10592000402BF7D1106810F0006011D001A8FFF7EC
:1059300083FD01980CE0754A136D03F4E043B3F561
:10594000005F6ED037D9B3F5405F40F08780714873
:1059500005B05DF804FB6D4B1B6D03F00703042BD2
:10596000D8D801A252F823F00B5A0008E7590008D2
:10597000F75900084F590008F3590008634A936D1E
:1059800003F0E063B3F1007F4BD044D9B3F1407F23
:10599000DDD0B3F1806FBDD1D36C126803F04053FA
:1059A0005207A8D5002BA6D1584B5B481B68C3F300
:1059B000C103D840CCE7002B54D1106810F0007020
:1059C000C6D001A8FFF790FE0298C1E74F4A936D39
:1059D00003F44033B3F5803F00F0D080B3F5003FCF
:1059E000DAD0002B96D1494B186810F00060AFD088
:1059F0009CE7464A76E7454B186810F00050A7D060
:105A000001A8FFF7C5FD0198A2E7404B186810F008
:105A100000709DD0D5E7002BCFD0B3F1807F81D02F
:105A200078E7106810F0005092D0E9E7374A936D9C
:105A300003F46003B3F5800FF3D006D8002BBCD07D
:105A4000B3F5001F3FF46EAF64E7B3F5C00F3FF44A
:105A50007EAFB3F5000F3FF445AF5BE7B3F5804F82
:105A60009AD057E7B3F5805F3FF45CAF52E7106818
:105A700010F004003FF46CAF13682748C3F3C10370
:105A8000D84065E7214BDA6CD203BFD5186810F017
:105A900000603FF45DAF01A8FFF7CEFC039857E725
:105AA0001A4A136D03F4E023B3F5403FDFD010D85A
:105AB000B3F5803F58D0B3F5003F18D1134B1868A9
:105AC00010F000503FF444AF01A8FFF761FD0298C9
:105AD0003EE7B3F5802F12D0B3F5A02F7FF41AAFB5
