:020000040800F2
:100000000000022071DE0008991C00089F1C0008F7
:10001000A51C0008AB1C0008B11C00080000000073
:10002000000000000000000000000000B71C0008F5
:10003000C51C000800000000D31C0008E11C0008DB
:10004000C9DE0008C9DE0008C9DE0008C9DE0008F4
:10005000C9DE0008C9DE0008C9DE0008C9DE0008E4
:10006000C9DE0008C9DE0008C9DE0008ED1C000872
:10007000C9DE0008C9DE0008C9DE0008C9DE0008C4
:10008000C9DE0008C9DE0008C9DE0008C9DE0008B4
:10009000C9DE0008C9DE0008C9DE0008C9DE0008A4
:1000A000C9DE0008C9DE0008C9DE0008C9DE000894
:1000B000C9DE0008C9DE0008C9DE0008C9DE000884
:1000C000C9DE0008C9DE0008C9DE0008C9DE000874
:1000D000C9DE0008C9DE0008011D0008C9DE0008ED
:1000E000C9DE0008C9DE000800000000C9DE000803
:1000F000C9DE0008C9DE0008C9DE0008C9DE000844
:10010000C9DE0008C9DE0008C9DE0008C9DE000833
:10011000C9DE0008C9DE0008C9DE0008C9DE000823
:10012000C9DE0008C9DE0008C9DE0008C9DE000813
:10013000C9DE0008C9DE0008C9DE0008C9DE000803
:1001400000000000000000000000000000000000AF
:10015000C9DE0008C9DE0008C9DE0008C9DE0008E3
:10016000C9DE0008C9DE0008C9DE0008C9DE0008D3
:10017000C9DE0008C9DE0008C9DE0008C9DE0008C3
:10018000C9DE0008C9DE0008C9DE0008C9DE0008B3
:10019000C9DE0008C9DE0008C9DE0008C9DE0008A3
:1001A000C9DE0008C9DE0008C9DE0008C9DE000893
:1001B000C9DE0008C9DE0008C9DE0008C9DE000883
:1001C000C9DE0008C9DE0008C9DE0008C9DE000873
:1001D000C9DE0008C9DE0008C9DE0008C9DE000863
:1001E000C9DE0008C9DE0008C9DE0008C9DE000853
:1001F000C9DE0008C9DE0008C9DE0008C9DE000843
:10020000C9DE0008C9DE0008C9DE0008C9DE000832
:10021000C9DE0008C9DE0008C9DE0008C9DE000822
:10022000C9DE0008C9DE0008C9DE000800000000C1
:10023000C9DE0008C9DE000800000000C9DE0008B1
:10024000C9DE0008C9DE0008C9DE0008C9DE0008F2
:10025000C9DE0008C9DE0008C9DE0008C9DE0008E2
:10026000C9DE0008C9DE0008C9DE0008C9DE0008D2
:10027000C9DE0008C9DE0008C9DE00080000000071
:10028000C9DE0008C9DE0008C9DE00080000000061
:0802900000000000C9DE0008B7
:1002A00010B5054C237833B9044B13B10448AFF3B0
:1002B00000800123237010BD80000020000000009A
:1002C0001CE8000808B5034B1BB103490348AFF312
:1002D000008008BD00000000840000201CE8000829
:1002E00001F0FF01102A2BDB10F0070F08D010F8E7
:1002F000013B013A8B422DD010F0070F42B3F6D1EB
:10030000F0B441EA012141EA014122F007047FF003
:1003100000070023F0E80256083C85EA010586EA5A
:10032000010685FA47F5A3FA87F586FA47F6A5FA96
:1003300087F68EB9EED1F0BC01F0FF0102F00702A2
:1003400032B110F8013B013A83EA010313B1F8D14D
:100350000020704701387047002D06BF354603382E
:10036000073815F0010F07D1013015F4807F02BF67
:10037000013015F4C03F0130F0BC0138704700BFB8
:1003800081F0004102E000BF83F0004330B54FEA46
:1003900041044FEA430594EA050F08BF90EA020FB3
:1003A0001FBF54EA000C55EA020C7FEA645C7FEA46
:1003B000655C00F0E2804FEA5454D4EB5555B8BF69
:1003C0006D420CDD2C4480EA020281EA030382EADA
:1003D000000083EA010180EA020281EA0303362D6C
:1003E00088BF30BD11F0004F4FEA01314FF4801C3F
:1003F0004CEA113102D0404261EB410113F0004F51
:100400004FEA03334CEA133302D0524263EB430307
:1004100094EA050F00F0A780A4F10104D5F1200EA5
:100420000DDB02FA0EFC22FA05F2801841F1000100
:1004300003FA0EF2801843FA05F359410EE0A5F1D4
:1004400020050EF1200E012A03FA0EFC28BF4CF005
:10045000020C43FA05F3C01851EBE37101F00045BB
:1004600007D54FF0000EDCF1000C7EEB00006EEBC8
:100470000101B1F5801F1BD3B1F5001F0CD3490852
:100480005FEA30004FEA3C0C04F101044FEA4452A9
:1004900012F5800F80F09A80BCF1004F08BF5FEA30
:1004A000500C50F1000041EB045141EA050130BD10
:1004B0005FEA4C0C404141EB0101013C28BFB1F522
:1004C000801FE9D291F0000F04BF01460020B1FA6D
:1004D00081F308BF2033A3F10B03B3F120020CDA40
:1004E0000C3208DD02F1140CC2F10C0201FA0CF01E
:1004F00021FA02F10CE002F11402D8BFC2F1200C83
:1005000001FA02F120FA0CFCDCBF41EA0C01904038
:10051000E41AA2BF01EB0451294330BD6FEA040481
:100520001F3C1CDA0C340EDC04F11404C4F120026C
:1005300020FA04F001FA02F340EA030021FA04F37E
:1005400045EA030130BDC4F10C04C4F1200220FAD5
:1005500002F001FA04F340EA0300294630BD21FA13
:1005600004F0294630BD94F0000F83F4801306BFD9
:1005700081F480110134013D4EE77FEA645C18BFCD
:100580007FEA655C29D094EA050F08BF90EA020F64
:1005900005D054EA000C04BF1946104630BD91EA5C
:1005A000030F1EBF0021002030BD5FEA545C05D15F
:1005B0004000494128BF41F0004130BD14F580049E
:1005C0003CBF01F5801130BD01F0004545F0FE4112
:1005D00041F470014FF0000030BD7FEA645C1ABF47
:1005E000194610467FEA655C1CBF0B46024650EA7E
:1005F000013406BF52EA033591EA030F41F40021AA
:1006000030BD00BF90F0000F04BF0021704730B52F
:100610004FF4806404F132044FF000054FF0000104
:1006200050E700BF90F0000F04BF0021704730B5C5
:100630004FF4806404F1320410F0004548BF40429A
:100640004FF000013EE700BF42004FEAE2014FEAEF
:1006500031014FEA02701FBF12F07F4393F07F4FCA
:1006600081F06051704732F07F4208BF704793F0CD
:100670007F4F04BF41F40021704730B54FF46074E0
:1006800001F0004521F000411CE700BF50EA0102E3
:1006900008BF704730B54FF000050AE050EA01028C
:1006A00008BF704730B511F0004502D5404261EBFC
:1006B00041014FF4806404F132045FEA915C3FF43D
:1006C000D8AE4FF003025FEADC0C18BF03325FEADA
:1006D000DC0C18BF033202EBDC02C2F1200300FA8B
:1006E00003FC20FA02F001FA03FE40EA0E0021FAB0
:1006F00002F11444BDE600BF80F0004002E000BFFC
:1007000081F0004142001FBF5FEA410392EA030FFC
:100710007FEA226C7FEA236C6AD04FEA1262D2EB46
:100720001363C1BFD218414048404140B8BF5B424B
:10073000192B88BF704710F0004F40F4000020F0E4
:100740007F4018BF404211F0004F41F4000121F0FA
:100750007F4118BF494292EA030F3FD0A2F1010244
:1007600041FA03FC10EB0C00C3F1200301FA03F182
:1007700000F0004302D5494260EB4000B0F5000FA5
:1007800013D3B0F1807F06D340084FEA310102F164
:100790000102FE2A51D2B1F1004F40EBC25008BF16
:1007A00020F0010040EA03007047490040EB0000E0
:1007B000013A28BFB0F5000FEDD2B0FA80FCACF1E1
:1007C000080CB2EB0C0200FA0CF0AABF00EBC2500E
:1007D00052421843BCBFD0401843704792F0000FFC
:1007E00081F4000106BF80F400000132013BB5E74F
:1007F0004FEA41037FEA226C18BF7FEA236C21D0C5
:1008000092EA030F04D092F0000F08BF0846704729
:1008100090EA010F1CBF0020704712F07F4F04D1F7
:10082000400028BF40F00040704712F100723CBF0A
:1008300000F50000704700F0004343F0FE4040F434
:10084000000070477FEA226216BF08467FEA2363F2
:100850000146420206BF5FEA412390EA010F40F4DD
:10086000800070474FF0000304E000BF10F0004329
:1008700048BF40425FEA000C08BF704743F0964310
:1008800001464FF000001CE050EA010208BF70472B
:100890004FF000030AE000BF50EA010208BF7047B2
:1008A00011F0004302D5404261EB41015FEA010CC7
:1008B00002BF84460146002043F0B64308BFA3F1BF
:1008C0008053A3F50003BCFA8CF2083AA3EBC253A1
:1008D00010DB01FA02FC634400FA02FCC2F12002C0
:1008E000BCF1004F20FA02F243EB020008BF20F0F7
:1008F0000100704702F1200201FA02FCC2F120025D
:1009000050EA4C0021FA02F243EB020008BF20EA51
:10091000DC70704753B94AB9002908BF00281CBFD2
:100920004FF0FF314FF0FF3000F074B9ADF1080C1B
:100930006DE904CE00F006F8DDF804E0DDE90223FD
:1009400004B070472DE9F047089D04468E46002B01
:100950004DD18A42944669D9B2FA82F252B101FA73
:1009600002F3C2F1200120FA01F10CFA02FC41EA83
:10097000030E94404FEA1C48210CBEFBF8F61FFA08
:100980008CF708FB16E341EA034306FB07F19942A3
:100990000AD91CEB030306F1FF3080F01F81994256
:1009A00040F21C81023E63445B1AA4B2B3FBF8F030
:1009B00008FB103344EA034400FB07F7A7420AD9B7
:1009C0001CEB040400F1FF3380F00A81A74240F2DF
:1009D00007816444023840EA0640E41B00261DB14A
:1009E000D4400023C5E900433146BDE8F0878B427F
:1009F00009D9002D00F0EF800026C5E9000130463E
:100A00003146BDE8F087B3FA83F6002E4AD18B4217
:100A100002D3824200F2F980841A61EB03030120C1
:100A20009E46002DE0D0C5E9004EDDE702B9FFDEAD
:100A3000B2FA82F2002A40F09280A1EB0C014FEA58
:100A40001C471FFA8CFE0126200CB1FBF7F307FBB5
:100A5000131140EA01410EFB03F0884208D91CEB58
:100A6000010103F1FF3802D2884200F2CB804346F5
:100A7000091AA4B2B1FBF7F007FB101144EA0144D4
:100A80000EFB00FEA64508D91CEB040400F1FF3163
:100A900002D2A64500F2BB800846A4EB0E0440EA51
:100AA00003409CE7C6F12007B34022FA07FC4CEA5A
:100AB000030C20FA07F401FA06F31C43F9404FEA4D
:100AC0001C4900FA06F3B1FBF9F8200C1FFA8CFE62
:100AD00009FB181140EA014108FB0EF0884202FAB6
:100AE00006F20BD91CEB010108F1FF3A80F0888077
:100AF000884240F28580A8F102086144091AA4B234
:100B0000B1FBF9F009FB101144EA014100FB0EFEB4
:100B10008E4508D91CEB010100F1FF346CD28E45E3
:100B20006AD90238614440EA0840A0FB0294A1EB74
:100B30000E01A142C846A64656D353D05DB1B3EBD1
:100B4000080261EB0E0101FA07F722FA06F3F14001
:100B50001F43C5E9007100263146BDE8F087C2F1A8
:100B60002003D8400CFA02FC21FA03F39140014320
:100B70004FEA1C471FFA8CFEB3FBF7F007FB103659
:100B80000B0C43EA064300FB0EF69E4204FA02F405
:100B900008D91CEB030300F1FF382FD29E422DD958
:100BA000023863449B1B89B2B3FBF7F607FB16338D
:100BB00041EA034106FB0EF38B4208D91CEB01010D
:100BC00006F1FF3816D28B4214D9023E6144C91A8D
:100BD00046EA004638E72E46284605E70646E3E69D
:100BE0001846F8E64B45A9D2B9EB020864EB0C0EA7
:100BF0000138A3E74646EAE7204694E74046D1E7B6
:100C0000D0467BE7023B614432E7304609E7644463
:100C1000023842E7704700BF80B58AB000AF07F1E5
:100C20001C0300221A605A609A603B4600221A6038
:100C30005A609A60DA601A615A619A61304B314A9F
:100C40001A602F4B00225A602D4B00229A602C4BC9
:100C50000022DA602A4B04221A61294B00221A75FD
:100C6000274B00225A75264B01229A61244B002201
:100C70001A77234B4FF4B4625A62214B4FF48062CF
:100C80009A621F4B0122DA621D4B00221A631C4B31
:100C900000225A631A4B002283F83820184801F0CA
:100CA000C1FC0346002B01D000F050FD0023FB6186
:100CB00007F11C031946124802F0D8FA0346002B2C
:100CC00001D000F043FD104B3B6006237B60002306
:100CD000BB6040F2FF73FB6004233B6100237B6138
:100CE00000237B763B461946054801F03DFE03464E
:100CF000002B01D000F02AFD00BF2837BD4680BD83
:100D00009C000020002002400000844B80B588B089
:100D100000AF3B1D00221A605A609A60DA601A61C7
:100D20005A619A61294B2A4A1A60284B00225A605C
:100D3000264B00229A60254B0022DA60234B0422C6
:100D40001A61224B00221A75204B00225A751F4B44
:100D500001229A611D4B00221A771C4B00225A6215
:100D60001A4B00229A62194B0022DA62174B0022BA
:100D70001A63164B00225A63144B002283F8382062
:100D8000124801F04FFC0346002B01D000F0DEFCBE
:100D9000104B7B600623BB600023FB6040F2FF73B7
:100DA0003B6104237B610023BB6100237B773B1DF8
:100DB0001946064801F0D8FD0346002B01D000F08B
:100DC000C5FC00BF2037BD4680BD00BF000100202C
:100DD000002102400800900C80B58CB000AF786014
:100DE00007F11C0300221A605A609A60DA601A61E7
:100DF0007B681B68504A934262D1504B1B68013399
:100E00004E4A13604D4B1B68012B0ED14C4BD3F84F
:100E1000D8304B4A43F02003C2F8D830484BD3F8BF
:100E2000D83003F02003BB61BB69454BD3F8E030F9
:100E3000434A43F00103C2F8E030414BD3F8E030BD
:100E400003F001037B617B691023FB6103233B6299
:100E500000237B6207F11C0319463A4804F01AFE8E
:100E6000394B3A4A1A60384B09225A60364B0022F5
:100E70009A60354B0022DA60334B4FF480621A617E
:100E8000314B4FF400625A612F4B4FF400529A617C
:100E90002D4B0022DA612C4B00221A622A4B0022D1
:100EA0005A62294802F0D0FB0346002B01D000F023
:100EB0004DFC7B68244ADA64234A7B68936337E0FD
:100EC0007B681B68224A934232D11C4B1B6801335A
:100ED0001A4A1360194B1B68012B0ED1184BD3F81B
:100EE000D830174A43F02003C2F8D830144BD3F857
:100EF000D83003F020033B613B69114BD3F8E0305D
:100F00000F4A43F00103C2F8E0300D4BD3F8E03054
:100F100003F00103FB60FB684023FB6103233B629A
:100F200000237B6207F11C031946064804F0B2FD5A
:100F300000BF3037BD4680BD00200240DC010020EC
:100F400000440258000002586401002010000240D2
:100F50000021024080B582B000AF0D4BD3F8D830ED
:100F60000B4A43F00103C2F8D830094BD3F8D8300C
:100F700003F001037B607B68002200210B2002F05C
:100F80002EFB0B2002F045FB00BF0837BD4680BD9D
:100F90000044025880B58CB000AF07F11C0300225A
:100FA0001A605A609A60DA601A614D4BD3F8E030EB
:100FB0004B4A43F01003C2F8E030494BD3F8E0301D
:100FC00003F01003BB61BB69454BD3F8E030444AE2
:100FD00043F08003C2F8E030414BD3F8E03003F037
:100FE00080037B617B693E4BD3F8E0303C4A43F0A1
:100FF0000403C2F8E0303A4BD3F8E03003F00403C6
:101000003B613B69364BD3F8E030354A43F001038E
:10101000C2F8E030324BD3F8E03003F00103FB605C
:10102000FB682F4BD3F8E0302D4A43F00203C2F89F
:10103000E0302B4BD3F8E03003F00203BB60BB6819
:10104000274BD3F8E030264A43F00803C2F8E030DB
:10105000234BD3F8E03003F008037B607B68002269
:1010600040F203211F4804F0C5FE00224FF4A051B6
:101070001D4804F0BFFE0022FB211C4804F0BAFE0C
:1010800040F20323FB6101233B6200237B620023C8
:10109000BB6207F11C031946124804F0FBFC4FF435
:1010A000A053FB6111233B6201237B620023BB62DF
:1010B00007F11C0319460C4804F0ECFCFB23FB6110
:1010C00001233B6200237B620023BB6207F11C0308
:1010D0001946064804F0DEFC00BF3037BD4680BD2F
:1010E000004402580008025800040258000C02583C
:1010F00080B500AF1B4B1C4A1A601A4B1B4A5A6042
:10110000184B00229A60174B0122DA60154B00221F
:101110001A61144B00225A61124B00229A61114B42
:101120000022DA610F4B00221A620E4804F07CFEA6
:101130000346002B01D000F009FB0021094804F010
:1011400003FF0346002B01D000F000FB00210548FF
:1011500004F045FF0346002B01D000F0F7FA00BF72
:1011600080BD00BFE001002000540040AF7470005B
:1011700080B5BAB000AF786007F1D40300221A60DE
:101180005A609A60DA601A6107F11003C0220021E8
:1011900018460CF0CDFE7B681B68264A934245D169
:1011A0004FF008024FF00003C7E904230023C7F8FB
:1011B000943007F11003184605F07EFF0346002B1C
:1011C00001D000F0C3FA1C4BD3F8E0301A4A43F0C8
:1011D0000203C2F8E030184BD3F8E03003F002030A
:1011E000FB60FB68C023C7F8D4301223C7F8D8309F
:1011F0000123C7F8DC300023C7F8E0300423C7F828
:10120000E43007F1D40319460C4804F043FC0A4BC0
:10121000D3F8E830084A43F40013C2F8E830064B2C
:10122000D3F8E83003F40013BB60BB6800BFE837B5
:10123000BD4680BD005400400044025800040258DE
:1012400080B500AF00F0A0FF00F096F900F010FAB2
:10125000FFF7A0FEFFF77EFEFFF7DEFC00F086FE44
:1012600000F038FEFFF744FF00F076FA00F026FBAE
:1012700000F0D8FDFFF74AFD00F0C6FA0BF0BCFD08
:101280000122AA49AA4809F0EDF9AA4B1B68012BD3
:1012900007D1A94AA949A5480CF0F2FAA54B0022AA
:1012A0001A60A54B1B78013B062BEED801A252F821
:1012B00023F000BFD11200086F1300088B12000842
:1012C0008B1200082F1400085D140008FB1400089E
:1012D0009B4A0A210A200CF047F89A4A28210A2042
:1012E0000CF042F8944BD3ED067AFDEEE77A052335
:1012F00017EE902A282150200CF070F8924A4621CF
:101300000A200CF031F88C4BD3ED077A9FED8F7AE1
:1013100027EE877ADFED8D6AC7EE267AFDEEE77A53
:10132000012317EE902A462150200CF057F8884AE6
:10133000462164200CF018F87F4BD3ED077A9FED1F
:10134000837A67EE877AFDEEE77A17EE903A814A64
:1013500082FB03125111DA178A1A642101FB02F28F
:101360009A1A0323462173200CF038F8DCE07A4AFD
:101370000A210A200BF0F8FF724A28210A200BF0FC
:10138000F3FF6D4BD3ED087AFDEEE77A052317EEF8
:10139000902A282150200CF021F8704A46210A207A
:1013A0000BF0E2FF644BD3ED097A9FED687A27EEEC
:1013B000877ADFED666AC7EE267AFDEEE77A0123CB
:1013C00017EE902A462150200CF008F8604A46217A
:1013D00064200BF0C9FF584BD3ED097A9FED5B7A7F
:1013E00067EE877AFDEEE77A17EE903A594A82FB6C
:1013F00003125111DA178A1A642101FB02F29A1AB8
:101400000323462173200BF0E9FF554A64210A208B
:101410000BF0AAFF484BD3ED0A7AFDEEE77A0523DD
:1014200017EE902A642150200BF0D8FF7CE04D4A43
:101430000A210A200BF098FF4B4A28210A200BF0C2
:1014400093FF3D4BD3ED0B7AFDEEE77A052317EEC4
:10145000902A282150200BF0C1FF65E0434A0A2161
:101460000A200BF081FF404A28210A200BF07CFF64
:10147000314BD3ED0C7AFDEEE77A052317EE902A77
:10148000282150200BF0AAFF394A46210A200BF0F0
:101490006BFF294BD3ED0D7A9FED2C7A27EE877ADF
:1014A000DFED2A6AC7EE267AFDEEE77A022317EE11
:1014B000902A462150200BF091FF254A46216E20AC
:1014C0000BF052FF1C4BD3ED0D7A9FED207A67EEA7
:1014D000877AFDEEE77A17EE903A1E4A82FB0312F6
:1014E0005111DA178A1A642101FB02F29A1A0223B7
:1014F000462182200BF072FF16E01E4A0A210A20C4
:101500000BF032FF184A28210A200BF02DFF0A4B5E
:10151000D3ED0E7AFDEEE77A052317EE902A282107
:101520003C200BF05BFF00BFAFE600BF5002002085
:101530001805002048020020600200203802002028
:1015400034E8000838E8000840E800080000C84215
:1015500044E800081F85EB5148E800084CE8000803
:1015600050E8000858E800085CE8000860E8000857
:1015700064E8000868E8000880B59CB000AF07F197
:1015800024034C22002118460CF0D2FC3B1D2022E3
:10159000002118460CF0CCFC022004F06DFD002365
:1015A0003B60314BDB6A304A23F00103D3622E4BA0
:1015B000DB6A03F001033B602C4B9B6923F440433F
:1015C0002A4A43F480439361284B9B6903F44043C8
:1015D0003B603B6800BF254B9B6903F40053B3F5A8
:1015E000005FF8D101237B624FF48033BB6202239A
:1015F000BB640223FB6405233B6530237B65022328
:10160000BB650323FB6502233B6608237B6600233F
:10161000BB660023FB6607F12403184604F066FD51
:101620000346002B01D000F091F83F237B60032399
:10163000BB600023FB6000233B6100237B615023E0
:10164000BB614FF4A063FB6100233B623B1D0221A1
:10165000184605F0A5F90346002B01D000F076F8F6
:1016600000BF7037BD4680BD0004005800480258D6
:1016700080B5B0B000AF3B46C022002118460CF048
:1016800057FC4FF400224FF00003C7E90023022368
:10169000BB600C23FB6004233B6102237B610223BC
:1016A000BB61C023FB6120233B6200237B620023DC
:1016B000C7F8A4303B46184605F0FEFC0346002B55
:1016C00001D000F043F800BFC037BD4680BD000028
:1016D00080B582B000AF78607B681B68164A934281
:1016E00026D17B681B68596A144B1B785A1CD0B2F0
:1016F000124A10701A46C9B2114B99540F4B1B78FD
:10170000102B0BD10D4B00221A7001220C490D48F1
:1017100008F0A8FF0C4B01221A6009E0074B1B7868
:101720001A46074B134401221946064808F09AFF4F
:1017300000BF0837BD4680BD004400404C02002079
:1017400050020020180500204802002080B400AF9D
:1017500072B600BFFEE7000080B500AF284B294AF3
:101760001A60274B4FF480025A60254B00229A6082
:10177000234B1F22DA60224B4FF000721A61204B7C
:101780004FF080725A611E4B4FF000529A611C4B11
:101790004FF00052DA611A4B00221A62184B0022F5
:1017A0005A62174B00229A62154B0022DA62144BE0
:1017B00000225A63124B00229A63114B0022DA6313
:1017C0000F4B00221A640E4B00225A640C4B00226D
:1017D0009A640B4B0022DA64094B00221A65084B0D
:1017E00000225A65064B00229A65054808F062F906
:1017F0000346002B01D0FFF7A9FF00BF80BD00BF4B
:10180000A00200200030014080B500AF294B2A4AD9
:101810001A60284B4FF480025A60264B4FF4003276
:101820009A60244B0722DA60224B4FF000721A6153
:10183000204B4FF080725A611E4B4FF080629A61CC
:101840001C4B4FF08052DA611A4B00221A62194B7E
:1018500000225A62174B00229A62164B0022DA626B
:10186000144B4FF080425A63124B00229A63114B83
:101870000022DA630F4B00221A640E4B00225A64D6
:101880000C4B00229A640B4B0022DA64094B0022B5
:101890001A65084B00225A65064B00229A650548D6
:1018A00008F008F90346002B01D0FFF74FFF00BFF7
:1018B00080BD00BF28030020003C004080B500AF81
:1018C000274B284A1A60264B4FF480025A60244B5B
:1018D00000229A60224B0722DA60214B00221A6113
:1018E0001F4B00225A611E4B4FF000529A611C4B55
:1018F0000022DA611A4B00221A62194B00225A6246
:10190000174B00229A62164B0022DA62144B4FF0FA
:1019100080425A63124B00229A63114B2022DA63F1
:101920000F4B00221A640E4B00225A640C4B00220B
:101930009A640B4B0022DA64094B00221A65084BAB
:1019400000225A65064B00229A65054808F0B2F855
:101950000346002B01D0FFF7F9FE00BF80BD00BF9A
:10196000B00300200034014080B5C0B000AF786003
:1019700007F1EC0300221A605A609A60DA601A617B
:1019800007F12803C022002118460CF0D1FA7B6829
:101990001B68AB4A93426BD14FF480524FF0000367
:1019A000C7E90A230023C7F8883007F1280318463F
:1019B00005F082FB0346002B01D0FFF7C7FEA14BC9
:1019C000D3F8F0309F4A43F48053C2F8F0309D4B77
:1019D000D3F8F03003F480537B627B6A994BD3F8E1
:1019E000E030984A43F00103C2F8E030954BD3F859
:1019F000E03003F001033B623B6A924BD3F8E030E6
:101A0000904A43F00203C2F8E0308E4BD3F8E03046
:101A100003F00203FB61FB6948F2A003C7F8EC3056
:101A20000223C7F8F0300023C7F8F4300023C7F8CA
:101A3000F8300523C7F8FC3007F1EC03194682485B
:101A400004F028F81023C7F8EC300223C7F8F03070
:101A50000023C7F8F4300023C7F8F8300523C7F88F
:101A6000FC3007F1EC031946784804F013F8E2E083
:101A70007B681B68764A93426BD14FF480524FF0DB
:101A80000003C7E90A230023C7F8883007F12803B9
:101A9000184605F011FB0346002B01D0FFF756FE58
:101AA000684BD3F8E830674A43F40043C2F8E830A3
:101AB000644BD3F8E83003F40043BB61BB69614B6E
:101AC000D3F8E0305F4A43F00203C2F8E0305D4BE8
:101AD000D3F8E03003F002037B617B69594BD3F804
:101AE000E030584A43F00403C2F8E030554BD3F8D5
:101AF000E03003F004033B613B690423C7F8EC309A
:101B00000223C7F8F0300023C7F8F4300023C7F8E9
:101B1000F8300723C7F8FC3007F1EC0319464B48AF
:101B200003F0B8FF4FF48063C7F8EC300223C7F826
:101B3000F0300023C7F8F4300023C7F8F83006234C
:101B4000C7F8FC3007F1EC031946424803F0A2FF46
:101B500071E07B681B68404A93426CD14FF400529D
:101B60004FF00003C7E90A230023C7F88C3007F1C0
:101B70002803184605F0A0FA0346002B01D0FFF712
:101B8000E5FD304BD3F8F0302E4A43F40053C2F851
:101B9000F0302C4BD3F8F03003F40053FB60FB68BB
:101BA000284BD3F8E030274A43F01003C2F8E03066
:101BB000244BD3F8E03003F01003BB60BB6845F65C
:101BC0002003C7F8EC300223C7F8F0300023C7F831
:101BD000F4300023C7F8F8300523C7F8FC3007F1CC
:101BE000EC0319461D4803F055FF4FF40043C7F8B6
:101BF000EC300123C7F8F0300023C7F8F43000239D
:101C0000C7F8F83007F1EC031946154803F042FF16
:101C10004FF40043C7F8EC300123C7F8F03000233D
:101C2000C7F8F4300023C7F8F83007F1EC03194681
:101C30000A4803F02FFF00BF07F58077BD4680BD3F
:101C400000300140004402580000025800040258CD
:101C5000003C0040000802580034014000100258C7
:101C6000000C025880B483B000AF0A4BD3F8F430B4
:101C7000084A43F00203C2F8F430064BD3F8F430BC
:101C800003F002037B607B6800BF0C37BD465DF844
:101C9000047B70470044025880B400AFFEE780B474
:101CA00000AFFEE780B400AFFEE780B400AFFEE710
:101CB00080B400AFFEE780B400AF00BFBD465DF862
:101CC000047B704780B400AF00BFBD465DF8047B65
:101CD000704780B400AF00BFBD465DF8047B70471D
:101CE00080B500AF00F0C2FA00BF80BD80B500AF84
:101CF000024802F069FD00BF80BD00BF6401002002
:101D000080B500AF024808F0F9FC00BF80BD00BFFD
:101D10001805002080B400AF374BD3F88830364A1E
:101D200043F47003C2F88830344B1B6803F00F0390
:101D3000062B07D8314B1B6823F00F032F4A43F0C3
:101D4000070313602E4B1B682D4A43F001031360F9
:101D50002B4B00221A612A4B1A682949294B134040
:101D60000B60264B1B6803F00803002B07D0234BA6
:101D70001B6823F00F03214A43F007031360204B35
:101D800000229A611E4B0022DA611D4B00221A626A
:101D90001B4B1D4A9A621A4B1C4ADA62184B1C4AAA
:101DA0001A63174B00225A63154B194A9A63144B56
:101DB0000022DA63124B164A1A64114B00225A644D
:101DC0000F4B1B680E4A23F4802313600C4B002238
:101DD0001A66104B1A68104B1340B3F1005F02D221
:101DE0000E4B01221A600E4B43F2D2021A6000BF62
:101DF000BD465DF8047B704700ED00E00020005216
:101E0000004402587FEDF6EA000202020000FF01E2
:101E1000800201010010005C0000FFFF08810051FA
:101E20000040005280B584B000AF3B1D00221A6014
:101E30005A609A60144B154A1A60134B00225A607C
:101E4000114B00229A60104B3B22DA600E4B0022AD
:101E50009A610D4808F037FA0346002B01D0FFF7CE
:101E600075FC20237B600023FB603B1D1946064860
:101E700008F01AFB0346002B01D0FFF767FC00BFF8
:101E80001037BD4680BD00BF380400200010004060
:101E900080B485B000AF78607B681B680B4A9342C2
:101EA0000ED10B4BD3F8E830094A43F01003C2F8C7
:101EB000E830074BD3F8E83003F01003FB60FB6811
:101EC00000BF1437BD465DF8047B7047001000402A
:101ED0000044025880B500AF224B234A1A60214BC0
:101EE0004FF4E1325A601F4B00229A601D4B0022D2
:101EF000DA601C4B00221A611A4B0C225A61194BF2
:101F000000229A61174B0022DA61164B00221A62F6
:101F1000144B00225A62134B00229A62114808F0B7
:101F200051FB0346002B01D0FFF710FC00210D48A8
:101F30000AF017FE0346002B01D0FFF707FC002133
:101F400008480AF04CFE0346002B01D0FFF7FEFBC9
:101F500004480AF0CDFD0346002B01D0FFF7F6FB45
:101F600000BF80BD840400200010014080B500AF98
:101F7000224B234A1A60214B224A5A601F4B0022EF
:101F80009A601E4B0022DA601C4B00221A611B4B28
:101F90000C225A61194B00229A61184B0022DA6117
:101FA000164B00221A62154B00225A62134B002274
:101FB0009A62124808F006FB0346002B01D0FFF797
:101FC000C5FB00210D480AF0CCFD0346002B01D0D3
:101FD000FFF7BCFB002109480AF001FE0346002B75
:101FE00001D0FFF7B3FB05480AF082FD0346002B42
:101FF00001D0FFF7ABFB00BF80BD00BF180500207C
:1020000000440040F049020080B5BCB000AF7860E9
:1020100007F1DC0300221A605A609A60DA601A61E4
:1020200007F11803C022002118460BF081FF7B68DE
:102030001B68514A934247D14FF001024FF0000311
:10204000C7E906230023C7F8943007F118031846A0
:1020500005F032F80346002B01D0FFF777FB474B22
:10206000D3F8F030454A43F01003C2F8F030434B48
:10207000D3F8F03003F010037B617B693F4BD3F85A
:10208000E0303E4A43F00103C2F8E0303B4BD3F866
:10209000E03003F001033B613B694FF4C063C7F8D4
:1020A000DC300223C7F8E0300023C7F8E430002317
:1020B000C7F8E8300723C7F8EC3007F1DC0319460E
:1020C0002F4803F0E7FC52E07B681B682D4A9342DF
:1020D0004DD14FF002024FF00003C7E90623002361
:1020E000C7F8903007F11803184604F0E5FF0346DF
:1020F000002B01D0FFF72AFB204BD3F8E8301F4A12
:1021000043F40033C2F8E8301C4BD3F8E83003F452
:102110000033FB60FB68194BD3F8E030174A43F0FB
:102120000103C2F8E030154BD3F8E03003F00103AF
:10213000BB60BB680C23C7F8DC300223C7F8E03073
:102140000023C7F8E4300023C7F8E8300723C7F8B6
:10215000EC3007F1DC031946094803F09BFC002230
:102160000021262001F03BFA262001F052FA00BFA0
:10217000F037BD4680BD00BF00100140004402584A
:10218000000002580044004080B582B000AF032038
:1021900001F01AFA04F0BAFD0246154B9B691B0ABE
:1021A00003F00F031349CB5C03F01F0322FA03F380
:1021B0007B600F4B9B6903F00F030E4AD35C03F067
:1021C0001F037A6822FA03F30B4A13600B4A7B68F9
:1021D00013600F2000F014F80346002B01D00123F8
:1021E00002E0FFF73FFD002318460837BD4680BDDB
:1021F0000044025888E80008040000200000002085
:1022000080B582B000AF7860154B1B78002B01D1F0
:10221000012321E0134B1A68114B1B7819464FF428
:102220007A73B3FBF1F3B2FBF3F3184601F0FFF955
:102230000346002B01D001230EE07B680F2B0AD848
:10224000002279684FF0FF3001F0C9F9064A7B6837
:102250001360002300E0012318460837BD4680BD07
:102260000C000020000000200800002080B400AF17
:10227000064B1B781A46064B1B681344044A13602E
:1022800000BFBD465DF8047B704700BF0C00002016
:10229000AC05002080B400AF034B1B681846BD4658
:1022A0005DF8047B704700BFAC05002080B584B0AA
:1022B00000AF7860FFF7EEFFB8607B68FB60FB68FB
:1022C000B3F1FF3F05D00A4B1B781A46FB68134455
:1022D000FB6000BFFFF7DEFF0246BB68D31AFA6857
:1022E0009A42F7D800BF00BF1037BD4680BD00BF7F
:1022F0000C00002080B400AF034B1B681B0C184679
:10230000BD465DF8047B70470010005C80B483B06C
:1023100000AF786039607B689B6823F47C123B686F
:102320001A437B689A6000BF0C37BD465DF8047B9A
:10233000704780B483B000AF786039607B689B6879
:1023400023F0E0723B681A437B689A6000BF0C3749
:10235000BD465DF8047B704780B483B000AF786001
:102360007B689B6803F0E07318460C37BD465DF848
:10237000047B704780B487B000AFF860B9607A60C2
:102380003B60FB6860331A46BB689B0013447B616B
:102390007B691B6803F000427B6803F0F8413B68EF
:1023A0000B431A437B691A6000BF1C37BD465DF8BA
:1023B000047B704780B485B000AFF860B9607A6084
:1023C000FB681B6923F4F042BB6803F01F037968C4
:1023D00001FA03F31A43FB681A6100BF1437BD46C4
:1023E0005DF8047B704780B487B000AFF860B960D7
:1023F0007A60FB6860331A46BB689B0013447B61BC
:102400007B691B6823F000427B681A437B691A6072
:1024100000BF1C37BD465DF8047B704780B487B0B1
:1024200000AFF860B9607A60FB6830331A46BB6869
:102430001B0A9B0003F00C0313447B617B691A6841
:10244000BB6803F01F031F2101FA03F3DB431A40AB
:102450007B689B0E03F01F01BB6803F01F0301FAAA
:1024600003F31A437B691A6000BF1C37BD465DF851
:10247000047B704780B487B000AFF860B9607A60C1
:10248000FB6814331A46BB685B0E9B0003F0040321
:1024900013447B617B691A68BB681B0D03F01F0343
:1024A000072101FA03F3DB431A40BB681B0D03F05D
:1024B0001F03796801FA03F31A437B691A6000BFAE
:1024C0001C37BD465DF8047B7047000080B485B0C2
:1024D00000AFF860B9607A60FB68D3F8C020BB68D1
:1024E000C3F31303DB431A407B6803F01803084966
:1024F000D940BB680B40C3F313031A43FB68C3F80E
:10250000C02000BF1437BD465DF8047B704700BF94
:10251000FFFF0F0080B483B000AF78607B689A68DB
:10252000044B13407A68936000BF0C37BD465DF8DA
:10253000047B7047C0FFFF5F80B483B000AF78605A
:102540007B689B6803F00053B3F1005F01D1012366
:1025500000E0002318460C37BD465DF8047B704749
:1025600080B483B000AF78607B689A68054B1340F5
:1025700043F080527B689A6000BF0C37BD465DF81F
:10258000047B7047C0FFFF6F80B483B000AF7860FA
:102590007B689B6803F08053B3F1805F01D1012316
:1025A00000E0002318460C37BD465DF8047B7047F9
:1025B00080B483B000AF78607B689B6803F0010350
:1025C000012B01D1012300E0002318460C37BD4642
:1025D0005DF8047B704780B483B000AF78607B689F
:1025E0009B6803F00403042B01D1012300E00023C6
:1025F00018460C37BD465DF8047B704780B483B045
:1026000000AF78607B689B6803F00803082B01D15A
:10261000012300E0002318460C37BD465DF8047B1B
:102620007047000090B589B000AF78600023FB7759
:102630000023BB607B68002B01D101238FE17B6805
:10264000DB68002B7B685B6D002B09D17868FEF797
:10265000C3FB7B6800229A657B68002283F85020C8
:102660007B681B681846FFF767FF0346002B04D002
:102670007B681B681846FFF74DFF7B681B68184690
:10268000FFF782FF0346002B14D17B681B681846B6
:10269000FFF766FF874B1B689B09874AA2FB032352
:1026A0009B090133BB6002E0BB68013BBB60BB68B8
:1026B000002BF9D17B681B681846FFF765FF0346BE
:1026C000002B0DD17B685B6D43F010027B685A656F
:1026D0007B689B6D43F001027B689A650123FB7761
:1026E0007B681B681846FFF776FF78617B685B6D37
:1026F00003F01003002B40F029817B69002B40F090
:1027000025817B685B6D23F4817343F002027B6853
:102710005A657B681B681846FFF74AFF0346002B83
:1027200036D17B681B68654A934204D07B681B687E
:10273000634A93420ED16148FFF73AFF044660486E
:10274000FFF736FF03462343002B0CBF0123002372
:10275000DBB208E05B48FFF72BFF0346002B0CBF02
:1027600001230023DBB2002B12D07B681B68534A85
:10277000934204D07B681B68514A934201D1524A6C
:1027800000E0524A7B685B6819461046FFF7BEFDC1
:10279000FFF7B0FD034641F20302934214D97B6870
:1027A0009B68102B10D17B685B7D5A037B681B6B89
:1027B0001A437B689B681A437B681B7F1B04134387
:1027C00043F00C03BB610DE07B685B7D5A037B68C3
:1027D0001B6B1A437B689B681A437B681B7F1B0437
:1027E0001343BB617B681B7F012B06D17B681B6A8F
:1027F000013B5B04BA691343BB617B685B6A002BD6
:1028000009D07B685B6A03F478727B689B6A134328
:10281000BA691343BB617B681B68DA682C4B1340B1
:102820007A681268B9690B43D3607B681B681846E5
:10283000FFF7D1FE38617B681B681846FFF7DEFEA4
:10284000F8603B69002B5FD1FB68002B5CD17B6893
:102850001B7D9A037B68DB6A1343BB617B681B6843
:10286000DA681C4B13407A681268B9690B43D3606D
:102870007B6893F83830012B30D17B685B6A002B82
:102880007B681B681A69144B13407A68D26B013A53
:1028900011047A68126C11437A68526C11437A6899
:1028A000926C0A431A437B681B6842F001021A616A
:1028B0001CE000BF00000020632D3E050020024008
:1028C00000210240006002580023024000630258C9
:1028D00003C0F0FFFCBFFFFF1EF800FC7B681B6815
:1028E0001A697B681B6822F001021A617B681B6809
:1028F0001B6923F070417B685A6B7B681B680A4335
:102900001A61786800F080FB7B68DB68012B0CD1D2
:102910007B681B681B6B23F00F017B689B695A1E49
:102920007B681B680A431A6307E07B681B681A6BA5
:102930007B681B6822F00F021A637B685B6D23F0D3
:10294000030343F001027B685A6507E07B685B6D17
:1029500043F010027B685A650123FB77FB7F184622
:102960002437BD4690BD00BF90B5A1B000AF7860E0
:102970003960002387F87F300023BB603B68DB6849
:102980009D4A93427B6893F85030012B01D102237A
:1029900021E37B68012283F850207B681B6818467E
:1029A000FFF719FE0346002B40F006833B681B68C7
:1029B000C3F31303002B08D13B681B689B0E03F085
:1029C0001F03012202FA03F316E03B681B687B66D3
:1029D0007B6E93FAA3F33B663B6EBB66BB6E002B2C
:1029E00001D1202303E0BB6EB3FA83F3DBB203F023
:1029F0001F03012202FA03F37A681268D1697A6828
:102A000012680B43D3617B6818683B6859683B6860
:102A10001B681A46FFF702FD7B681B681846FFF724
:102A2000DAFDB8677B681B681846FFF7E7FD786733
:102A3000BB6F002B40F0B3807B6F002B40F0AF806A
:102A40007B6818683B6819683B689B681A46FFF703
:102A500011FD6A4B1B6803F07043B3F1805F0BD12B
:102A60003B685A697B681B68DB689B0803F00703B7
:102A70005B0002FA03F31DE07B681B68DB6803F070
:102A80001003002B0BD13B685A697B681B68DB681D
:102A90009B0803F007035B0002FA03F30AE03B68BC
:102AA0005A697B681B68DB689B0803F004035B00C2
:102AB00002FA03F33B673B681B69042B27D07B6852
:102AC00018683B6819693B681A683B6FFFF752FC4E
:102AD0007B6818683B6819693B685B7E012B02D1F3
:102AE0004FF0004300E000231A46FFF77CFC7B68B0
:102AF00018683B6819693B681B7E012B02D14FF4B3
:102B0000006300E000231A46FFF754FC47E07B68AF
:102B10001B681B6E03F0F8423B681B689B069A42D9
:102B200007D17B681B681A6E7B681B6822F0004225
:102B30001A667B681B685B6E03F0F8423B681B6893
:102B40009B069A4207D17B681B685A6E7B681B689C
:102B500022F000425A667B681B689B6E03F0F842C5
:102B60003B681B689B069A4207D17B681B689A6E7C
:102B70007B681B6822F000429A667B681B68DB6EEC
:102B800003F0F8423B681B689B069A4207D17B68BA
:102B90001B68DA6E7B681B6822F00042DA667B688D
:102BA0001B681846FFF704FD0346002B40F00D821A
:102BB0007B6818683B6819683B68DB681A46FFF752
:102BC00085FC3B68DB680C4A934240F033817B68AC
:102BD00018683B681B68C3F31303002B10D13B68D4
:102BE0001B689B0E013303F01F03092B94BF0123C5
:102BF0000023DBB21EE000BF0000FF470010005CB6
:102C00003B681B68BB65BB6D93FAA3F37B657B6D6B
:102C1000FB65FB6D002B01D1202303E0FB6DB3FAB4
:102C200083F3DBB2013303F01F03092B94BF0123AD
:102C30000023DBB2002B79D03B681B68C3F313037E
:102C4000002B07D13B681B689B0E01339B0603F0EA
:102C5000F84215E03B681B68FB64FB6C93FAA3F336
:102C6000BB64BB6C3B653B6D002B01D1202303E0B3
:102C70003B6DB3FA83F3DBB201339B0603F0F842FA
:102C80003B681B68C3F31303002B09D13B681B6827
:102C90009B0E013303F01F03012101FA03F317E038
:102CA0003B681B683B643B6C93FAA3F3FB63FB6BD1
:102CB0007B647B6C002B01D1202303E07B6CB3FA97
:102CC00083F3DBB2013303F01F03012101FA03F3A5
:102CD00042EA03013B681B68C3F31303002B0AD1CC
:102CE0003B681B689B0E013303F01F0213465B0019
:102CF00013441B0518E03B681B687B637B6B93FAEE
:102D0000A3F33B633B6BBB63BB6B002B01D1202365
:102D100003E0BB6BB3FA83F3DBB2013303F01F02B2
:102D200013465B0013441B050B437EE03B681B68A6
:102D3000C3F31303002B07D13B681B689B0E0133C1
:102D40009B0603F0F84215E03B681B68BB62BB6A58
:102D500093FAA3F37B627B6AFB62FB6A002B01D1CF
:102D6000202303E0FB6AB3FA83F3DBB201339B0653
:102D700003F0F8423B681B68C3F31303002B09D12F
:102D80003B681B689B0E013303F01F03012101FA0E
:102D900003F317E03B681B68FB61FB6993FAA3F33D
:102DA000BB61BB693B623B6A002B01D1202303E07E
:102DB0003B6AB3FA83F3DBB2013303F01F03012153
:102DC00001FA03F342EA03013B681B68C3F31303F0
:102DD000002B0DD13B681B689B0E013303F01F02D3
:102DE00013465B0013441E3B1B0543F000731BE0BE
:102DF0003B681B683B613B6993FAA3F3FB60FB688C
:102E00007B617B69002B01D1202303E07B69B3FA4E
:102E100083F3DBB2013303F01F0213465B0013445C
:102E20001E3B1B0543F000730B433A68926819463A
:102E3000FFF720FB3B681B68002B80F2C6807B6895
:102E40001B68674A934204D07B681B68654A9342BB
:102E500001D1654B00E0654B1846FFF77DFAF86637
:102E60007B681B685E4A934204D07B681B685D4A9E
:102E700093420ED15A48FFF79BFB04465948FFF78F
:102E800097FB03462343002B0CBF01230023DBB237
:102E900008E05748FFF78CFB0346002B0CBF0123CB
:102EA0000023DBB2002B7DD03B681B68514A934264
:102EB00030D1FB6E03F40003002B2BD17B681B6821
:102EC0004B4A934240F081807B681B68444A93429E
:102ED00004D07B681B68434A934201D1424A00E018
:102EE000424AFB6E43F4000319461046FFF721FAED
:102EF000414B1B689B09414AA2FB03239B090133F9
:102F00005B00BB6002E0BB68013BBB60BB68002BA1
:102F1000F9D15AE03B681B68394A93421ED1FB6ED7
:102F200003F08073002B19D17B681B68304A9342F1
:102F30004BD17B681B682A4A934204D07B681B688C
:102F4000284A934201D1284A00E0284AFB6E43F008
:102F5000807319461046FFF7ECF936E03B681B68B2
:102F6000284A934231D1FB6E03F48003002B2CD10D
:102F70007B681B681E4A934227D17B681B68184AEE
:102F8000934204D07B681B68164A934201D1164ACB
:102F900000E0164AFB6E43F4800319461046FFF723
:102FA000C8F912E07B685B6D43F020027B685A65CC
:102FB000012387F87F3008E07B685B6D43F02002D7
:102FC0007B685A65012387F87F307B68002283F88D
:102FD000502097F87F3018468437BD4690BD00BF1B
:102FE00000200240002102400023024000630258FA
:102FF00000600258000084CB00000020632D3E05D5
:10300000000052C70000B8CF80B584B000AF786030
:103010007B681B687A4A934204D07B681B68794AB4
:10302000934209D1784B9B6803F44033002B14BFC3
:1030300001230023DBB208E0744B9B6803F44033A8
:10304000002B14BF01230023DBB2002B1CD003F0A4
:10305000D7FFF8607B685B68B3F5403F10D0B3F5ED
:10306000403F73D8B3F5803F02D0B3F5003F6DD138
:103070007B685B681B0CFA68B2FBF3F3FB6068E0EB
:10308000FB689B08FB6064E04FF400204FF00001F8
:1030900005F01CFAF8607B685B68B3F5301F51D00F
:1030A000B3F5301F54D8B3F5201F47D0B3F5201F18
:1030B0004ED8B3F5101F3DD0B3F5101F48D8B3F567
:1030C000001F33D0B3F5001F42D8B3F5E01F29D05D
:1030D000B3F5E01F3CD8B3F5C01F1AD0B3F5C01F3D
:1030E00036D8B3F5A01F14D0B3F5A01F30D8B3F570
:1030F000801F0ED0B3F5801F2AD8B3F5402F08D01B
:10310000B3F5402F24D8B3F5802F02D0B3F5002FAC
:103110001ED17B685B689B0C5B00FA68B2FBF3F323
:10312000FB6016E0FB681B09FB6012E0FB685B09B3
:10313000FB600EE0FB689B09FB600AE0FB68DB09B3
:10314000FB6006E0FB681B0AFB6002E000BF00E0DA
:1031500000BFFFF7CFF8034641F20302934215D8B0
:10316000FB682B4A934208D97B681B689A687B6886
:103170001B6842F480729A603EE07B681B689A6824
:103180007B681B6822F480729A6035E0FB685B08FC
:10319000FB60FB681F4A934208D87B681B689A68EB
:1031A0007B681B6822F440729A6025E0FB681A4A2B
:1031B00093420AD87B681B689B6823F440727B6843
:1031C0001B6842F480729A6016E0FB68134A9342CF
:1031D0000AD87B681B689B6823F440727B681B6875
:1031E00042F400729A6007E07B681B689A687B680B
:1031F0001B6842F440729A6000BF1037BD4680BD24
:1032000000200240002102400023024000630258D7
:10321000002D3101105E5F0020BCBE0040787D01B2
:1032200080B483B000AF78607B689B6803F00103D3
:10323000012B01D1012300E0002318460C37BD46C5
:103240005DF8047B704780B483B000AF78607B6822
:103250009B6803F00403042B01D1012300E0002349
:1032600018460C37BD465DF8047B704790B59FB09B
:1032700000AF78603960002387F877307B6893F877
:103280005030012B01D10223BEE07B68012283F87C
:1032900050200023FB6500233B667B681B685C4A6B
:1032A000934202D15B4BBB6001E00023BB60BB6873
:1032B000002B0BD17B685B6D43F020027B685A6565
:1032C0007B68002283F8502001239DE0BB681846EC
:1032D000FFF7B9FF38677B681B681846FFF7B3FF35
:1032E0000346002B7FD13B6F002B7CD17B681B6892
:1032F000474A934204D07B681B68464A934201D1F7
:10330000454B00E0454BFB663B681B68002B39D002
:10331000FB6E9B6823F440423B685B681A43FB6E7C
:103320009A607B681B683A4A934204D07B681B68AA
:10333000384A93420ED13648FFF772FF04463548AB
:10334000FFF76EFF03462343002B0CBF012300232E
:10335000DBB208E03248FFF763FF0346002B0CBFE7
:1033600001230023DBB2002B47D0FB6E9A682D4B64
:1033700013403A6811683A6892680A431A43FB6E30
:103380009A603AE0FB6E9B6823F44042FB6E9A60C1
:103390007B681B681E4A934204D07B681B681D4AE9
:1033A00093420ED11A48FFF73BFF04461948FFF736
:1033B00037FF03462343002B0CBF01230023DBB25E
:1033C00008E01748FFF72CFF0346002B0CBF012332
:1033D0000023DBB2002B10D0FB6E9A68114B134018
:1033E000FA6E936009E07B685B6D43F020027B68B6
:1033F0005A65012387F8773000E000BF7B68002220
:1034000083F8502097F8773018467C37BD4690BD3A
:1034100000200240002102400023024000630258C5
:1034200000600258E0F0FFFF80B485B000AF786024
:103430007B6803F00703FB600B4BDB68BB60BA687B
:103440004FF6FF031340BB60FB681A02BB681A43C8
:10345000064B1343BB60044ABB68D36000BF1437FC
:10346000BD465DF8047B704700ED00E00000FA0502
:1034700080B400AF044BDB681B0A03F00703184657
:10348000BD465DF8047B704700ED00E080B483B07A
:1034900000AF0346FB80B7F90630002B0BDBFB883F
:1034A00003F01F020749B7F906305B09012000FA53
:1034B00002F241F8232000BF0C37BD465DF8047BC3
:1034C000704700BF00E100E080B483B000AF034666
:1034D0003960FB80B7F90630002B0ADB3B68DAB2B3
:1034E0000C49B7F906301201D2B20B4483F800231D
:1034F0000AE03B68DAB20849FB8803F00F03043B9B
:103500001201D2B20B441A7600BF0C37BD465DF8EB
:10351000047B704700E100E000ED00E080B489B07A
:1035200000AFF860B9607A60FB6803F00703FB61E5
:10353000FB69C3F10703042B28BF0423BB61FB69AC
:103540000433062B02D9FB69033B00E000237B61B7
:103550004FF0FF32BB6902FA03F3DA43BB681A404B
:103560007B699A404FF0FF317B6901FA03F3D9433D
:103570007B680B40134318462437BD465DF8047B37
:103580007047000080B582B000AF78607B68013B77
:10359000B3F1807F01D301230FE00A4A7B68013B2E
:1035A00053600F214FF0FF30FFF78EFF054B0022D5
:1035B0009A60044B07221A60002318460837BD465C
:1035C00080BD00BF10E000E080B582B000AF786041
:1035D0007868FFF729FF00BF0837BD4680BD80B57A
:1035E00086B000AF0346B9607A60FB81FFF740FF09
:1035F00078617A68B9687869FFF790FF0246B7F991
:103600000E3011461846FFF75FFF00BF1837BD4662
:1036100080BD80B582B000AF0346FB80B7F90630AD
:103620001846FFF733FF00BF0837BD4680BD80B5A1
:1036300082B000AF78607868FFF7A4FF03461846B1
:103640000837BD4680BD000080B586B000AF786009
:10365000FEF720FE38617B68002B01D1012316E3C1
:103660007B681B68664A93424AD07B681B68654A40
:10367000934245D07B681B68634A934240D07B6885
:103680001B68624A93423BD07B681B68604A934246
:1036900036D07B681B685F4A934231D07B681B68D9
:1036A0005D4A93422CD07B681B685C4A934227D0CA
:1036B0007B681B685A4A934222D07B681B68594A30
:1036C00093421DD07B681B68574A934218D07B6891
:1036D0001B68564A934213D07B681B68544A934236
:1036E0000ED07B681B68534A934209D07B681B68E5
:1036F000514A934204D07B681B68504A934201D1DF
:10370000012300E00023002B00F03B817B680222B4
:1037100083F835207B68002283F834207B681B689F
:10372000374A93424AD07B681B68364A934245D059
:103730007B681B68344A934240D07B681B68334ADD
:1037400093423BD07B681B68314A934236D07B68FA
:103750001B68304A934231D07B681B682E4A9342E3
:103760002CD07B681B682D4A934227D07B681B684E
:103770002B4A934222D07B681B682A4A93421DD071
:103780007B681B68284A934218D07B681B68274ACD
:10379000934213D07B681B68254A93420ED07B6806
:1037A0001B68244A934209D07B681B68224A9342D3
:1037B00004D07B681B68214A934208D17B681B6850
:1037C0001A687B681B6822F001021A6007E07B68B8
:1037D0001B681A687B681B6822F001021A602FE0E0
:1037E000FEF758FD02463B69D31A052B28D97B68A2
:1037F00020225A657B68032283F83520012346E2A4
:1038000010000240280002404000024058000240E0
:103810007000024088000240A0000240B800024050
:1038200010040240280402404004024058040240B0
:103830007004024088040240A0040240B804024020
:103840007B681B681B6803F00103002BC8D17B68F1
:103850001B681B687B617A69834B13407B617B68C3
:103860009A687B68DB681A437B681B691A437B682C
:103870005B691A437B689B691A437B68DB691A435F
:103880007B681B6A13437A6913437B617B685B6ABD
:10389000042B07D17B68DA6A7B681B6B13437A6958
:1038A00013437B61714B1A68714B1340B3F1005F96
:1038B00028D37B685B68282B03D97B685B682E2B39
:1038C00017D97B685B683E2B03D97B685B68422B0A
:1038D0000FD97B685B68462B03D97B685B68482BF4
:1038E00007D97B685B684E2B05D97B685B68522BD8
:1038F00001D8012300E00023002B03D07B6943F4AF
:1039000080137B617B681B687A691A607B681B681F
:103910005B697B617B6923F007037B617B685B6A82
:103920007A6913437B617B685B6A042B17D17B68E0
:103930009B6A7A6913437B617B68DB6A002B0ED03C
:10394000786801F01DFF0346002B08D07B684022F9
:103950005A657B68012283F83520012397E17B6853
:103960001B687A695A61786801F058FE0346BB60AB
:103970007B68DB6D03F01F033F229A40BB689A60AF
:10398000CDE07B681B683B4A934222D07B681B6872
:10399000394A93421DD07B681B68384A934218D03D
:1039A0007B681B68364A934213D07B681B68354A94
:1039B00093420ED07B681B68334A934209D07B68E0
:1039C0001B68324A934204D07B681B68304A93429A
:1039D00001D1012300E00023002B00F097807B68D9
:1039E0001B68244A934221D07B681B68224A934279
:1039F0001CD07B681B68214A934217D07B681B68E8
:103A00001F4A934212D07B681B681E4A93420DD016
:103A10007B681B681C4A934208D07B681B681B4A62
:103A2000934203D07B681B68194A934200BF7B68AE
:103A3000022283F835207B68002283F834207B68DB
:103A40001B681B687B617A69124B13407B617B6842
:103A50009B68402B20D07B689B68802B02D14FF461
:103A600080431AE0002318E03F8010FE0010005C45
:103A70000000FFFF085402581C54025830540258EA
:103A800044540258585402586C54025880540258F6
:103A9000945402580F00FEFF10237A68D268D208AF
:103AA0001A437B681B69DB081A437B685B69DB0888
:103AB0001A437B689B69DB081A437B68DB69DB0878
:103AC0001A437B681B6A1B0913437A6913437B61A2
:103AD0007B681B687A691A607B681B681A466E4BA4
:103AE00013446E4AA2FB03231B099A007B68DA6524
:103AF000786801F093FD0346FB607B68DB6D03F0A3
:103B00001F0301229A40FB685A6008E07B6840224C
:103B10005A657B68032283F835200123B7E07B6870
:103B20001B685F4A934272D07B681B685D4A934270
:103B30006DD07B681B685C4A934268D07B681B68C9
:103B40005A4A934263D07B681B68594A93425ED0BD
:103B50007B681B68574A934259D07B681B68564A5A
:103B6000934254D07B681B68544A93424FD07B6881
:103B70001B68534A93424AD07B681B68514A934260
:103B800045D07B681B68504A934240D07B681B68D5
:103B90004E4A93423BD07B681B684D4A934236D0D5
:103BA0007B681B684B4A934231D07B681B684A4A4A
:103BB00093422CD07B681B68484A934227D07B688D
:103BC0001B68474A934222D07B681B68454A934250
:103BD0001DD07B681B68444A934218D07B681B68E1
:103BE000424A934213D07B681B68414A93420ED0ED
:103BF0007B681B683F4A934209D07B681B683E4A3A
:103C0000934204D07B681B683C4A934201D1012354
:103C100000E00023002B32D0786801F02DFE7B6895
:103C20009B68802B02D17B6800225A607B685A68AF
:103C30007B681B6ED2B21A607B685B6E7A68926E8C
:103C40005A607B685B68002B10D07B685B68082B30
:103C50000CD8786801F0AAFE7B68DB6E00221A603F
:103C60007B681B6F7A68526F5A6008E07B6800229D
:103C7000DA667B6800221A677B6800225A677B68D5
:103C800000225A657B68012283F8352000231846FC
:103C90001837BD4680BD00BFF8ABFDA7CDCCCCCC5E
:103CA000100002402800024040000240580002403C
:103CB0007000024088000240A0000240B8000240AC
:103CC000100402402804024040040240580402400C
:103CD0007004024088040240A0040240B80402407C
:103CE000085402581C540258305402584454025884
:103CF000585402586C540258805402589454025834
:103D000080B586B000AF7860FEF7C4FA38617B6892
:103D1000002B01D10123DCE27B6893F83530DBB264
:103D2000022B08D07B6880225A657B68002283F8CA
:103D300034200123CDE27B681B68764A93424AD047
:103D40007B681B68744A934245D07B681B68734A42
:103D5000934240D07B681B68714A93423BD07B689A
:103D60001B68704A934236D07B681B686E4A934248
:103D700031D07B681B686D4A93422CD07B681B68EE
:103D80006B4A934227D07B681B686A4A934222D0D1
:103D90007B681B68684A93421DD07B681B68674A32
:103DA000934218D07B681B68654A934213D07B68A6
:103DB0001B68644A93420ED07B681B68624A934238
:103DC00009D07B681B68614A934204D07B681B68FA
:103DD0005F4A934201D1012300E00023002B13D05E
:103DE0007B681B681A687B681B6822F01E021A60D9
:103DF0007B681B685A697B681B6822F080025A61E5
:103E00007B681B687B610AE07B681B681A687B68BB
:103E10001B6822F00E021A607B681B687B617B685E
:103E20001B683C4A934272D07B681B683A4A9342B3
:103E30006DD07B681B68394A934268D07B681B68E9
:103E4000374A934263D07B681B68364A93425ED000
:103E50007B681B68344A934259D07B681B68334A9D
:103E6000934254D07B681B68314A93424FD07B68A1
:103E70001B68304A93424AD07B681B682E4A9342A3
:103E800045D07B681B682D4A934240D07B681B68F5
:103E90002B4A93423BD07B681B682A4A934236D018
:103EA0007B681B68284A934231D07B681B68274A8D
:103EB00093422CD07B681B68254A934227D07B68AD
:103EC0001B68244A934222D07B681B68224A934293
:103ED0001DD07B681B68214A934218D07B681B6801
:103EE0001F4A934213D07B681B681E4A93420ED030
:103EF0007B681B681C4A934209D07B681B681B4A7D
:103F0000934204D07B681B68194A934232D1012343
:103F100031E000BF10000240280002404000024093
:103F2000580002407000024088000240A000024099
:103F3000B80002401004024028040240400402403D
:103F4000580402407004024088040240A004024069
:103F5000B8040240085402581C5402583054025805
:103F600044540258585402586C5402588054025811
:103F7000945402580023002B07D07B681B6E1A68EC
:103F80007B681B6E22F480721A607B681B686D4A26
:103F900093424AD07B681B686B4A934245D07B684A
:103FA0001B686A4A934240D07B681B68684A934208
:103FB0003BD07B681B68674A934236D07B681B689E
:103FC000654A934231D07B681B68644A93422CD087
:103FD0007B681B68624A934227D07B681B68614AF2
:103FE000934222D07B681B685F4A93421DD07B6856
:103FF0001B685E4A934218D07B681B685C4A9342F8
:1040000013D07B681B685B4A93420ED07B681B68A9
:10401000594A934209D07B681B68584A934204D09E
:104020007B681B68564A934208D17B681B681A68F4
:104030007B681B6822F001021A6007E07B681B683E
:104040001A687B681B6822F001021A6013E0FEF711
:1040500021F902463B69D31A052B0CD97B68202233
:104060005A657B68032283F835207B68002283F839
:10407000342001232DE17B691B6803F00103002B31
:10408000E5D17B681B682F4A93424AD07B681B6846
:104090002D4A934245D07B681B682C4A934240D0FE
:1040A0007B681B682A4A93423BD07B681B68294A7D
:1040B000934236D07B681B68274A934231D07B6895
:1040C0001B68264A93422CD07B681B68244A934283
:1040D00027D07B681B68234A934222D07B681B68E9
:1040E000214A93421DD07B681B68204A934218D016
:1040F0007B681B681E4A934213D07B681B681D4A6D
:1041000093420ED07B681B681B4A934209D07B68A0
:104110001B681A4A934204D07B681B68184A934272
:1041200001D1012300E00023002B2BD07B689B6D85
:10413000BB607B68DB6D03F01F033F229A40BB68C6
:104140009A602AE01000024028000240400002402D
:10415000580002407000024088000240A000024067
:10416000B80002401004024028040240400402400B
:10417000580402407004024088040240A004024037
:10418000B80402407B689B6DFB607B68DB6D03F0CD
:104190001F0301229A40FB685A607B681B684F4AE4
:1041A000934272D07B681B684D4A93426DD07B6806
:1041B0001B684C4A934268D07B681B684A4A93420A
:1041C00063D07B681B68494A93425ED07B681B685A
:1041D000474A934259D07B681B68464A934254D061
:1041E0007B681B68444A93424FD07B681B68434AF4
:1041F00093424AD07B681B68414A934245D07B6812
:104200001B68404A934240D07B681B683E4A9342F9
:104210003BD07B681B683D4A934236D07B681B6865
:104220003B4A934231D07B681B683A4A93422CD078
:104230007B681B68384A934227D07B681B68374AE3
:10424000934222D07B681B68354A93421DD07B681D
:104250001B68344A934218D07B681B68324A9342E9
:1042600013D07B681B68314A93420ED07B681B6871
:104270002F4A934209D07B681B682E4A934204D090
:104280007B681B682C4A934201D1012300E0002384
:10429000002B15D07B685B6E7A68926E5A607B68E3
:1042A000DB6E002B0CD07B68DB6E1A687B68DB6EE4
:1042B00022F480721A607B681B6F7A68526F5A60B2
:1042C0007B68012283F835207B68002283F8342044
:1042D000002318461837BD4680BD00BF10000240BD
:1042E0002800024040000240580002407000024096
:1042F00088000240A0000240B800024010040240C2
:104300002804024040040240580402407004024065
:1043100088040240A0040240B80402400854025835
:104320001C540258305402584454025858540258ED
:104330006C540258805402589454025880B584B08A
:1043400000AF78607B68002B01D1012337E27B68E6
:1043500093F83530DBB2022B04D07B6880225A659B
:1043600001232CE27B681B685C4A93424AD07B683D
:104370001B685B4A934245D07B681B68594A93424D
:1043800040D07B681B68584A93423BD07B681B68CF
:10439000564A934236D07B681B68554A934231D0C7
:1043A0007B681B68534A93422CD07B681B68524A37
:1043B000934227D07B681B68504A934222D07B6887
:1043C0001B684F4A93421DD07B681B684D4A93423D
:1043D00018D07B681B684C4A934213D07B681B68DB
:1043E0004A4A93420ED07B681B68494A934209D0DF
:1043F0007B681B68474A934204D07B681B68464A27
:10440000934201D1012300E00023002B00F08680BD
:104410007B68042283F835207B681B682F4A93420F
:104420004AD07B681B682E4A934245D07B681B6844
:104430002C4A934240D07B681B682B4A93423BD066
:104440007B681B68294A934236D07B681B68284AE0
:10445000934231D07B681B68264A93422CD07B68FC
:104460001B68254A934227D07B681B68234A9342E6
:1044700022D07B681B68224A93421DD07B681B6850
:10448000204A934218D07B681B681F4A934213D07E
:104490007B681B681D4A93420ED07B681B681C4AD0
:1044A000934209D07B681B681A4A934204D07B6808
:1044B0001B68194A934208D17B681B681A687B689D
:1044C0001B6822F001021A6078E17B681B681A6899
:1044D0007B681B6822F001021A606FE11000024045
:1044E0002800024040000240580002407000024094
:1044F00088000240A0000240B800024010040240C0
:104500002804024040040240580402407004024063
:1045100088040240A0040240B80402407B681B6883
:104520001A687B681B6822F00E021A607B681B68A1
:104530006C4A93424AD07B681B686B4A934245D0D1
:104540007B681B68694A934240D07B681B68684A55
:1045500093423BD07B681B68664A934236D07B68A7
:104560001B68654A934231D07B681B68634A93425B
:104570002CD07B681B68624A934227D07B681B68FB
:10458000604A934222D07B681B685F4A93421DD0E9
:104590007B681B685D4A934218D07B681B685C4A45
:1045A000934213D07B681B685A4A93420ED07B68B3
:1045B0001B68594A934209D07B681B68574A93424B
:1045C00004D07B681B68564A934208D17B681B68FD
:1045D0001A687B681B6822F001021A6007E07B689A
:1045E0001B681A687B681B6822F001021A607B68EE
:1045F0001B683C4A934272D07B681B683A4A9342DC
:104600006DD07B681B68394A934268D07B681B6811
:10461000374A934263D07B681B68364A93425ED028
:104620007B681B68344A934259D07B681B68334AC5
:10463000934254D07B681B68314A93424FD07B68C9
:104640001B68304A93424AD07B681B682E4A9342CB
:1046500045D07B681B682D4A934240D07B681B681D
:104660002B4A93423BD07B681B682A4A934236D040
:104670007B681B68284A934231D07B681B68274AB5
:1046800093422CD07B681B68254A934227D07B68D5
:104690001B68244A934222D07B681B68224A9342BB
:1046A0001DD07B681B68214A934218D07B681B6829
:1046B0001F4A934213D07B681B681E4A93420ED058
:1046C0007B681B681C4A934209D07B681B681B4AA5
:1046D000934204D07B681B68194A934232D101236C
:1046E00031E000BF100002402800024040000240BC
:1046F000580002407000024088000240A0000240C2
:10470000B800024010040240280402404004024065
:10471000580402407004024088040240A004024091
:10472000B8040240085402581C540258305402582D
:1047300044540258585402586C5402588054025839
:10474000945402580023002B28D07B681B6E1A68F3
:104750007B681B6E22F480721A607B689B6DFB6025
:104760007B68DB6D03F01F0301229A40FB685A60EF
:104770007B685B6E7A68926E5A607B68DB6E002B9A
:104780000CD07B68DB6E1A687B68DB6E22F480726B
:104790001A607B681B6F7A68526F5A607B680122CF
:1047A00083F835207B68002283F834207B681B6DFA
:1047B000002B03D07B681B6D786898470023184650
:1047C0001037BD4680BD00BF80B58AB000AF7860AD
:1047D0000023FB60674B1B68674AA2FB03239B0A0D
:1047E0007B627B689B6D3B627B689B6DFB613B6A78
:1047F0001B68BB61FB691B687B617B681B685F4A48
:1048000093424AD07B681B685D4A934245D07B68DF
:104810001B685C4A934240D07B681B685A4A9342AB
:104820003BD07B681B68594A934236D07B681B6833
:10483000574A934231D07B681B68564A93422CD02A
:104840007B681B68544A934227D07B681B68534A95
:10485000934222D07B681B68514A93421DD07B68EB
:104860001B68504A934218D07B681B684E4A93429B
:1048700013D07B681B684D4A93420ED07B681B683F
:104880004B4A934209D07B681B684A4A934204D042
:104890007B681B68484A934201D1012300E0002352
:1048A000002B00F02B847B68DB6D03F01F030822D4
:1048B0009A40BB691340002B00F0A2807B681B6804
:1048C0002E4A93424AD07B681B682D4A934245D0BA
:1048D0007B681B682B4A934240D07B681B682A4A3E
:1048E00093423BD07B681B68284A934236D07B6852
:1048F0001B68274A934231D07B681B68254A934244
:104900002CD07B681B68244A934227D07B681B68A5
:10491000224A934222D07B681B68214A93421DD0D1
:104920007B681B681F4A934218D07B681B681E4A2D
:10493000934213D07B681B681C4A93420ED07B685D
:104940001B681B4A934209D07B681B68194A934233
:1049500004D07B681B68184A93422FD17B681B6880
:104960001B6803F00403002B14BF01230023DBB2F8
:104970002EE000BF00000020B5814E1B1000024059
:1049800028000240400002405800024070000240EF
:1049900088000240A0000240B8000240100402401B
:1049A00028040240400402405804024070040240BF
:1049B00088040240A0040240B80402407B681B68DF
:1049C0001B6803F00803002B14BF01230023DBB294
:1049D000002B15D07B681B681A687B681B6822F067
:1049E00004021A607B68DB6D03F01F0308229A4003
:1049F0003B6A9A607B685B6D43F001027B685A6595
:104A00007B68DB6D03F01F03BA6922FA03F303F03E
:104A10000103002B6ED07B681B68694A93424AD021
:104A20007B681B68674A934245D07B681B68664A6F
:104A3000934240D07B681B68644A93423BD07B68BA
:104A40001B68634A934236D07B681B68614A934275
:104A500031D07B681B68604A93422CD07B681B680E
:104A60005E4A934227D07B681B685D4A934222D0FE
:104A70007B681B685B4A93421DD07B681B685A4A5F
:104A8000934218D07B681B68584A934213D07B68C6
:104A90001B68574A93420ED07B681B68554A934265
:104AA00009D07B681B68544A934204D07B681B681A
:104AB000524A93420AD17B681B685B6903F080030A
:104AC000002B14BF01230023DBB203E07B681B68CB
:104AD0001B680023002B0DD07B68DB6D03F01F03E8
:104AE00001229A403B6A9A607B685B6D43F0020248
:104AF0007B685A657B68DB6D03F01F0304229A40D4
:104B0000BB691340002B00F08F807B681B682C4A28
:104B100093424AD07B681B682A4A934245D07B68FF
:104B20001B68294A934240D07B681B68274A9342FE
:104B30003BD07B681B68264A934236D07B681B6853
:104B4000244A934231D07B681B68234A93422CD07D
:104B50007B681B68214A934227D07B681B68204AE8
:104B6000934222D07B681B681E4A93421DD07B680B
:104B70001B681D4A934218D07B681B681B4A9342EE
:104B800013D07B681B681A4A93420ED07B681B685F
:104B9000184A934209D07B681B68174A934204D095
:104BA0007B681B68154A93422AD17B681B681B6887
:104BB00003F00203002B14BF01230023DBB223E028
:104BC000100002402800024040000240580002400D
:104BD0007000024088000240A0000240B80002407D
:104BE00010040240280402404004024058040240DD
:104BF0007004024088040240A0040240B80402404D
:104C00007B681B681B680023002B0DD07B68DB6D65
:104C100003F01F0304229A403B6A9A607B685B6D35
:104C200043F004027B685A657B68DB6D03F01F0369
:104C300010229A40BB691340002B00F0A6807B68CD
:104C40001B68854A93424AD07B681B68834A93421B
:104C500045D07B681B68824A934240D07B681B68C2
:104C6000804A93423BD07B681B687F4A934236D090
:104C70007B681B687D4A934231D07B681B687C4A05
:104C800093422CD07B681B687A4A934227D07B687A
:104C90001B68794A934222D07B681B68774A93420B
:104CA0001DD07B681B68764A934218D07B681B68CE
:104CB000744A934213D07B681B68734A93420ED0A8
:104CC0007B681B68714A934209D07B681B68704AF5
:104CD000934204D07B681B686E4A93420AD17B687A
:104CE0001B681B6803F00803002B14BF012300237B
:104CF000DBB209E07B681B681B6803F00403002B30
:104D000014BF01230023DBB2002B3ED07B68DB6D98
:104D100003F01F0310229A403B6A9A607B681B686D
:104D20001B6803F48023002B18D07B681B681B686A
:104D300003F40023002B08D17B681B6C002B24D0CC
:104D40007B681B6C786898471FE07B689B6C002B26
:104D50001BD07B689B6C7868984716E07B681B6863
:104D60001B6803F48073002B07D17B681B681A68EB
:104D70007B681B6822F008021A607B681B6C002BA2
:104D800003D07B681B6C786898477B68DB6D03F009
:104D90001F0320229A40BB691340002B00F01081B2
:104DA0007B681B682C4A93424AD07B681B682B4A5D
:104DB000934245D07B681B68294A934240D07B6868
:104DC0001B68284A93423BD07B681B68264A934263
:104DD00036D07B681B68254A934231D07B681B68BC
:104DE000234A93422CD07B681B68224A934227D0E7
:104DF0007B681B68204A934222D07B681B681F4A4D
:104E000093421DD07B681B681D4A934218D07B6873
:104E10001B681C4A934213D07B681B681A4A934252
:104E20000ED07B681B68194A934209D07B681B68C7
:104E3000174A934204D07B681B68164A93422BD1D1
:104E40007B681B681B6803F01003002B14BF012351
:104E50000023DBB22AE000BF10000240280002401D
:104E600040000240580002407000024088000240AA
:104E7000A0000240B8000240100402402804024092
:104E8000400402405804024070040240880402407A
:104E9000A0040240B80402407B681B681B6803F052
:104EA0000203002B14BF01230023DBB2002B00F010
:104EB00087807B68DB6D03F01F0320229A403B6AEA
:104EC0009A607B6893F83530DBB2042B39D17B686C
:104ED0001B681A687B681B6822F016021A607B68E0
:104EE0001B685A697B681B6822F080025A617B68E4
:104EF0001B6C002B03D17B689B6C002B07D07B685D
:104F00001B681A687B681B6822F008021A607B68BD
:104F1000DB6D03F01F033F229A403B6A9A607B6877
:104F2000012283F835207B68002283F834207B68D7
:104F30001B6D002B00F04A837B681B6D78689847D7
:104F400044E37B681B681B6803F48023002B18D0A4
:104F50007B681B681B6803F40023002B08D17B6867
:104F60005B6C002B2CD07B685B6C7868984727E0E3
:104F70007B68DB6B002B23D07B68DB6B7868984702
:104F80001EE07B681B681B6803F48073002B0FD145
:104F90007B681B681A687B681B6822F010021A6025
:104FA0007B68012283F835207B68002283F8342057
:104FB0007B68DB6B002B03D07B68DB6B78689847E2
:104FC0007B685B6D002B00F006837B685B6D03F0F4
:104FD0000103002B00F088807B68042283F83520D1
:104FE0007B681B687A4A93424AD07B681B68794A7F
:104FF000934245D07B681B68774A934240D07B68D8
:105000001B68764A93423BD07B681B68744A934284
:1050100036D07B681B68734A934231D07B681B682B
:10502000714A93422CD07B681B68704A934227D008
:105030007B681B686E4A934222D07B681B686D4A6E
:1050400093421DD07B681B686B4A934218D07B68E3
:105050001B686A4A934213D07B681B68684A934274
:105060000ED07B681B68674A934209D07B681B6837
:10507000654A934204D07B681B68644A934208D116
:105080007B681B681A687B681B6822F001021A6043
:1050900007E07B681B681A687B681B6822F00102C6
:1050A0001A60FB680133FB607A6A9A4207D37B6817
:1050B0001B681B6803F00103002BF2D100E000BF66
:1050C0007B681B681B6803F00103002B04D07B681E
:1050D000032283F8352003E07B68012283F8352022
:1050E0007B68002283F834207B68DB6C002B00F0A7
:1050F00072827B68DB6C786898476CE27B681B681F
:10510000434A934222D07B681B68424A93421DD097
:105110007B681B68404A934218D07B681B683F4AF3
:10512000934213D07B681B683D4A93420ED07B6844
:105130001B683C4A934209D07B681B683A4A9342F9
:1051400004D07B681B68394A934201D1012300E0F7
:105150000023002B00F03F827B681B681B683B61CB
:105160007B68DB6D03F01F0304229A407B691340C8
:10517000002B00F0CD803B6903F00403002B00F00E
:10518000C7807B68DB6D03F01F0304229A40FB6934
:105190005A603B6903F40043002B49D03B6903F498
:1051A0008033002B09D17B689B6C002B00F01082B0
:1051B0007B689B6C786898470AE27B681B6C002BC5
:1051C00000F006827B681B6C7868984700E200BF9D
:1051D00010000240280002404000024058000240F7
:1051E0007000024088000240A0000240B800024067
:1051F00010040240280402404004024058040240C7
:105200007004024088040240A0040240B804024036
:10521000085402581C54025830540258445402583E
:10522000585402586C5402588054025894540258EE
:105230003B6903F02003002B60D17B681B687F4A29
:1052400093424AD07B681B687D4A934245D07B6875
:105250001B687C4A934240D07B681B687A4A934221
:105260003BD07B681B68794A934236D07B681B68C9
:10527000774A934231D07B681B68764A93422CD0A0
:105280007B681B68744A934227D07B681B68734A0B
:10529000934222D07B681B68714A93421DD07B6881
:1052A0001B68704A934218D07B681B686E4A934211
:1052B00013D07B681B686D4A93420ED07B681B68D5
:1052C0006B4A934209D07B681B686A4A934204D0B8
:1052D0007B681B68684A934208D17B681B681A6820
:1052E0007B681B6822F008021A6007E07B681B6875
:1052F0001A687B681B6822F004021A607B681B6CCA
:10530000002B00F065817B681B6C786898475FE133
:105310007B68DB6D03F01F0302229A407B69134018
:10532000002B00F0C5803B6903F00203002B00F066
:10533000BF807B68DB6D03F01F0302229A40FB698C
:105340005A603B6903F40043002B18D03B6903F417
:105350008033002B09D17B685B6C002B00F03A8115
:105360007B685B6C7868984734E17B68DB6B002B6B
:1053700000F030817B68DB6B786898472AE13B69F5
:1053800003F02003002B40F089807B681B682B4AC8
:1053900093424AD07B681B68294A934245D07B6878
:1053A0001B68284A934240D07B681B68264A934278
:1053B0003BD07B681B68254A934236D07B681B68CC
:1053C000234A934231D07B681B68224A93422CD0F7
:1053D0007B681B68204A934227D07B681B681F4A62
:1053E000934222D07B681B681D4A93421DD07B6884
:1053F0001B681C4A934218D07B681B681A4A934268
:1054000013D07B681B68194A93420ED07B681B68D7
:10541000174A934209D07B681B68164A934204D00E
:105420007B681B68144A934228D17B681B681A6802
:105430007B681B6822F014021A6027E0100002400B
:105440002800024040000240580002407000024024
:1054500088000240A0000240B80002401004024050
:1054600028040240400402405804024070040240F4
:1054700088040240A0040240B80402407B681B6814
:105480001A687B681B6822F00A021A607B68012296
:1054900083F835207B68002283F834207B68DB6B3F
:1054A000002B00F097807B68DB6B7868984791E071
:1054B0007B68DB6D03F01F0308229A407B69134071
:1054C000002B00F088803B6903F00803002B00F0FC
:1054D00082807B681B68414A93424AD07B681B6884
:1054E0003F4A934245D07B681B683E4A934240D076
:1054F0007B681B683C4A93423BD07B681B683B4AF5
:10550000934236D07B681B68394A934231D07B681E
:105510001B68384A93422CD07B681B68364A9342FA
:1055200027D07B681B68354A934222D07B681B6872
:10553000334A93421DD07B681B68324A934218D08D
:105540007B681B68304A934213D07B681B682F4AE4
:1055500093420ED07B681B682D4A934209D07B682A
:105560001B682C4A934204D07B681B682A4A9342EA
:1055700008D17B681B681A687B681B6822F01C02D4
:105580001A6007E07B681B681A687B681B6822F05A
:105590000E021A607B68DB6D03F01F0301229A4044
:1055A000FB695A607B6801225A657B68012283F897
:1055B00035207B68002283F834207B68DB6C002B6D
:1055C00009D07B68DB6C7868984704E000BF02E094
:1055D00000BF00E000BF2837BD4680BD100002407C
:1055E0002800024040000240580002407000024083
:1055F00088000240A0000240B800024010040240AF
:105600002804024040040240580402407004024052
:1056100088040240A0040240B804024080B485B06F
:1056200000AF78607B681B68424A93424AD07B682F
:105630001B68414A934245D07B681B683F4A9342AE
:1056400040D07B681B683E4A93423BD07B681B6816
:105650003C4A934236D07B681B683B4A934231D028
:105660007B681B68394A93422CD07B681B68384A98
:10567000934227D07B681B68364A934222D07B68CE
:105680001B68354A93421DD07B681B68334A93429E
:1056900018D07B681B68324A934213D07B681B6822
:1056A000304A93420ED07B681B682F4A934209D040
:1056B0007B681B682D4A934204D07B681B682C4A88
:1056C000934201D1012300E00023002B24D07B680A
:1056D0001B68DBB2103B274AA2FB03231B09FB60BC
:1056E000FB6803F00703244AD35C1A467B68DA653B
:1056F000FB68032B08D97B681B681A461F4B1340B5
:105700001A1D7B689A650DE07B681B681A461B4B67
:1057100013407A68936505E07B681B6823F0FF02FD
:105720007B689A657B689B6D18461437BD465DF8AB
:10573000047B7047100002402800024040000240F5
:10574000580002407000024088000240A000024061
:10575000B800024010040240280402404004024005
:10576000580402407004024088040240A004024031
:10577000B8040240ABAAAAAA98E8000800FCFFFF00
:1057800080B485B000AF78600023FB737B689B69B1
:10579000002B20D17B689B6A032B58D801A252F8BA
:1057A00023F000BFB5570008C7570008B5570008D9
:1057B0004F5800087B68DB6A03F08073002B48D0E9
:1057C0000123FB7345E07B68DB6AB3F1C07F42D104
:1057D0000123FB733FE07B689B69B3F5005F23D136
:1057E0007B689B6A032B38D801A252F823F000BFD4
:1057F0000158000807580008015800081958000807
:105800000123FB7330E07B68DB6A03F08073002BBD
:1058100025D00123FB7322E07B68DB6AB3F1C07FF4
:105820001FD10123FB731CE07B689B6A022B02D90A
:10583000032B03D018E00123FB7315E07B68DB6AC0
:1058400003F08073002B0ED00123FB730BE000BF2D
:105850000AE000BF08E000BF06E000BF04E000BFB0
:1058600002E000BF00E000BFFB7B18461437BD46D6
:105870005DF8047B704700BF80B485B000AF7860EE
:105880007B681B68BB607B681B68384A934222D0E8
:105890007B681B68364A93421DD07B681B68354A7B
:1058A000934218D07B681B68334A934213D07B68BD
:1058B0001B68324A93420ED07B681B68304A934281
:1058C00009D07B681B682F4A934204D07B681B6811
:1058D0002D4A934201D1012300E00023002B1AD06E
:1058E0007B681B68DBB2083B284AA2FB03231B0929
:1058F000FB60FA68264B13449B001A467B681A66C5
:105900007B68244A5A66FB6803F01F0301229A4011
:105910007B689A6624E07B681B68DBB2103B1E4AFA
:10592000A2FB03231B09FB60BB681C4A934206D8F9
:10593000BB681B4A934202D9FB680833FB60FA68D4
:10594000184B13449B001A467B681A667B68164AFC
:105950005A66FB6803F01F0301229A407B689A662F
:1059600000BF1437BD465DF8047B704708540258E9
:105970001C54025830540258445402585854025887
:105980006C5402588054025894540258CDCCCCCC5C
:105990000096001680580258ABAAAAAAB804024082
:1059A0000F040240008200108008024080B485B0DD
:1059B00000AF78607B685B68DBB2FB60FB68002B44
:1059C0004AD0FB68082B47D87B681B68254A93425E
:1059D00022D07B681B68244A93421DD07B681B68D9
:1059E000224A934218D07B681B68214A934213D005
:1059F0007B681B681F4A93420ED07B681B681E4A57
:105A0000934209D07B681B681C4A934204D07B6890
:105A10001B681B4A934201D1012300E00023002BA5
:105A20000AD0FA68174B13449B001A467B68DA6663
:105A30007B68154A1A6709E0FA68144B13449B0007
:105A40001A467B68DA667B68114A1A67FB68013B75
:105A500001229A407B685A6700BF1437BD465DF843
:105A6000047B7047085402581C54025830540258A2
:105A700044540258585402586C54025880540258E6
:105A8000945402583F960016405902583F82001025
:105A90004009024080B489B000AF786039600023CB
:105AA000FB61894B7B6194E13B681A680121FB69CA
:105AB00001FA03F313403B613B69002B00F0868140
:105AC0003B685B6803F00303012B05D03B685B6810
:105AD00003F00303022B30D17B689B68BB61FB6939
